:100000000C944A240C947B240C947B240C947B2425
:100010000C947B240C947B240C947B240C947B24E4
:100020000C947B240C947B240C947B240C947B24D4
:100030000C947B240C94C6D60C947B240C947B24C7
:100040000C947B240C9421580C947B240C947B24DA
:100050000C947B240C947B240C94C1490C947CD686
:100060000C947B240C94C3A90C947B240C947B24C7
:100070000C947B240C947B240C947B240C947B2484
:100080000C947B240C947B240C947B240C947B2474
:100090000C947B240C947B240C947B240C947B2464
:1000A0000C947B240C947B240C947B240C947B2454
:1000B0000C947B240C947B240C947B240C947B2444
:1000C0000C947B240C947B240C947B240C947B2434
:1000D0000C947B240C947B240C947B240C947B2424
:1000E0000C947B24084AD73B3BCE016E84BCBFFDF9
:1000F000C12F3D6C74319ABD56833DDA3D00C77FF8
:1001000011BED9E4BB4C3E916BAAAABE0000008090
:100110003F05A84CCDB2D44EB93836A9020C50B91F
:10012000918688083CA6AAAA2ABE000000803F004B
:100130000C9443C60C9426D40C94CD2F0C94293BDC
:100140000C941BCB0C94E4DB0C94D92F0C9425C697
:100150000C94E5D30C9465DE0C9460450C94B7D3F5
:100160000C945BE30C9415F00C9451C60C9494D34E
:100170000C947D240C9499D30C9498C90C942BC6A0
:100180000C9477400C944BC60C9469890C94277D91
:100190000C94054B0C941ED10C9483400C9447C6D0
:1001A0000C941E800C9494240C9456600C948CD364
:1001B0000C9464320C9435C60C9441420C942FC6B6
:1001C0000C94EB2F0C9492370C9450C60C94D32FB4
:1001D0000C94554A0C94E24A0C94DBD30C94FE2602
:1001E0000C94DD3F0C943DC60C94534D0C941CD4E0
:1001F0000C94E33F0C944E2C0C94B1C60C944CE13F
:100200000C9447610C9439C60C94F28D0C9415DF54
:100210000C941EC60C94B9DD0C94504D0C94C3DDA7
:100220000C94BD430C94E93F0C9487300C9436CA6F
:100230000C94DF2F0C94F7EF0C94F1C50C94F64A54
:100240000C944BE20C94D1ED0C94A57A0C9416C648
:100250000C94E52F0C94A83E0C94CA280C9412D44C
:100260000C9405420C9441520C94A3D30C941AC6DE
:100270000C9451E30C94AE3E0C948D470C9408D42E
:100280000C94F14A0C9436C70C94E22B0C94ADD329
:100290000C942A7D0C947D400C940A4B0C94F72B03
:1002A0000C94FED30C9422C60C94AB3E0C94F4D365
:1002B0000C941D2C0C94BFD30C9451E70C94CD2BB3
:1002C0000C94D1D30C9455C60C941D800C94B82B6F
:1002D0000C94DEC80C940A2C0C94D8C50C94D64A05
:1002E0000C94C7D30C9410C60C94DB7D4E414E4940
:1002F0004E495459494E46CDCCCC3D0AD7233C17E4
:10030000B7D13877CC2B329595E6241FB14F0A0030
:100310000020410000C84200401C4620BCBE4CCA20
:100320001B0E5AAEC59D741000C90210012C01406D
:1003300001220170011801B0010E01F00104015009
:1003400002FA00B002F0003003E600D003DC0090B7
:1003500004D2007005C800A006BE000008B400B0BA
:1003600009AA00D00BA000600E960060118C00005E
:1003700015820020197800C01D6E00A0226400B014
:10038000275A00902C500000314600E0343C001009
:10039000383200903A2800603C1E00A03D140080D6
:1003A0003E0A00203F0000206279746573290A002C
:1003B00053657474696E67732053746F726564203B
:1003C0002800454550524F4D20636865636B737537
:1003D0006D206D69736D617463680A0020627974C1
:1003E0006573290A002073746F72656420736574E5
:1003F00074696E67732072657472696576656420CE
:100400002800204D61726C696E3D563337290A0011
:1004100028454550524F4D3D00454550524F4D20C7
:1004200076657273696F6E206D69736D6174636850
:10043000200048617264636F64656420446566618E
:10044000756C742053657474696E6773204C6F61AA
:100450006465640A0020440020490020204D3330A8
:100460003120500020440020490020500020204D21
:100470003330312045005049442073657474696EEF
:1004800067733A0A002046002042002048002020DE
:100490004D3134352053004D6174657269616C20B3
:1004A00068656174757020706172616D65746572E4
:1004B000733A0A00205A0020590020580020204D8D
:1004C000323138205400486F74656E64206F666660
:1004D000736574733A0A00205A0020590020204D99
:1004E000323036205800486F6D65206F6666736540
:1004F000743A0A00204500205A0020590020580074
:1005000020420020540020204D323035205300413D
:100510006476616E6365643A20533C6D696E5F6614
:10052000656564726174653E20543C6D696E5F74EC
:10053000726176656C5F66656564726174653E20A4
:10054000423C6D696E5F7365676D656E745F74695B
:100550006D655F6D733E20583C6D61785F78795FA3
:100560006A65726B3E205A3C6D61785F7A5F6A659E
:10057000726B3E20453C6D61785F655F6A65726BAA
:100580003E0A0020540020520020204D32303420FA
:100590005000416363656C65726174696F6E2028F9
:1005A000756E6974732F7332293A20503C707269EA
:1005B0006E745F616363656C3E20523C7265747259
:1005C0006163745F616363656C3E20543C74726167
:1005D00076656C5F616363656C3E0A0020450020B0
:1005E0005A0020590020204D3230312058004D61F2
:1005F00078696D756D20416363656C6572617469BE
:100600006F6E2028756E6974732F7332293A0A0051
:10061000204500205A0020590020204D3230332040
:1006200058004D6178696D756D206665656472610D
:100630007465732028756E6974732F73293A0A00E4
:10064000204500205A0020590020204D39322058E2
:100650000053746570732070657220756E69743A0A
:100660000A0020204D3230302044300A0020204D36
:1006700032303020543120440020204D32303020A0
:1006800044002044697361626C65640A0046696CC9
:10069000616D656E742073657474696E67733A007A
:1006A00020204D3134392043203B20556E6974732E
:1006B00020696E2043656C736975730A0A002020F7
:1006C000473231203B20556E69747320696E206D6E
:1006D0006D0A0A0020746F6F206C6F6E672065785A
:1006E00074727573696F6E2070726576656E74656D
:1006F000640A0020636F6C64206578747275736996
:100700006F6E2070726576656E7465640A0024F4FD
:10071000D43050C38E20C2A24017828B7011127A3F
:10072000910D816CD90AA861E108C758660761512B
:1007300043061E4B5D05C145A7041A411104093D3E
:100740009803713931034036DB0265339102D430AE
:100750005402802E1D02632CEE01752AC501B028BB
:10076000A001102781018F2564012B244B01E02279
:100770003401AC211F018D200D01801FFC00841E5F
:10078000ED00971DDF00B81CD200E61BC600201B41
:10079000BC00641AB200B219A8000A19A0006A18B5
:1007A0009900D117910040178B00B51684003116BF
:1007B0007E00B31579003A157300C7146F00581402
:1007C0006A00EE1366008813630025135E00C712EB
:1007D0005B006C12570015125400C11151007011CA
:1007E0004F0021114B00D61049008D1047004610D4
:1007F000440002104200C00F4000800F3E00420F34
:100800003C00060F3B00CB0E3800930E37005C0E09
:100810003500270E3400F30D3200C10D3100900D6C
:100820003000600D2E00320D2D00050D2C00D90C6E
:100830002B00AE0C2900850C29005C0C2700350C20
:1008400027000E0C2600E80B2400C40B2400A00B8C
:1008500023007D0B23005A0B2100390B2100180BBC
:100860002000F80A1F00D90A1E00BB0A1E009D0ABC
:100870001D00800A1D00630A1C00470A1B002C0A89
:100880001B00110A1A00F7091A00DD091900C40932
:100890001900AB091900920917007B0918006309B8
:1008A00017004C09160036091600200916000A091F
:1008B0001500F5081500E0081400CC081400B8086D
:1008C0001400A4081400900813007D0812006B089F
:1008D00013005808120046081200340811002308BB
:1008E00011001208110001081100F0071000E007C4
:1008F0001000D0071000C0071000B0070F00A107BC
:10090000100091070E0083070F0074070F006507A2
:100910000E0057070E0049070E003B070D002E077B
:100920000E0020070D0013070D0006070D00F90645
:100930000C00ED060D00E0060C00D4060C00C80605
:100940000C00BC060C00B0060C00A4060B009906B7
:100950000C008D060B0082060B0077060B006C0660
:100960000B0061060A0057060B004C060A004206FF
:100970000A0038060A002E060A0024060A001A0693
:100980000A001006090007060A00FD050900F40523
:100990000900EB050900E2050900D9050900D005A9
:1009A0000900C7050900BE050900B5050800AD0529
:1009B0000800A50509009C050800940508008C05A1
:1009C0000800840508007C050800740508006C0513
:1009D0000700650508005D050700560508004E057F
:1009E00007004705070040050800380507003105E6
:1009F00007002A050700230507001C050600160549
:100A000007000F0507000805060002050700FB04A4
:100A10000600F5040700EE040600E8040600E20400
:100A20000700DB040600D5040600CF040600C90455
:100A30000600C3040600BD040600B7040600B104A6
:100A40000500AC040600A6040600A00405009B04F3
:100A5000060095040500900406008A04050085043C
:100A60000500800406007A04050075040500700482
:100A700005006B04050066040500610405005C04C4
:100A8000050057040500520405004D040500480404
:100A90000500430405003E0404003A040500350443
:100AA0000500300404002C0405002704040023047E
:100AB00005001E0404001A040400160405001104B5
:100AC00004000D04040009040500040404000004EB
:100AD0000400FC030400F8030400F4030400F00322
:100AE0000400EC030400E8030400E4030400E00352
:100AF0000400DC030400D8030400D4030400D00382
:100B00000400CC030400C8030300C503030024F45D
:100B100004D9201BC40C5C0E9804C4095F0265074D
:100B20007101F405F900FB04B30048048700C10318
:100B300069005803550003034500BE023A008402D1
:100B4000310053022A002902250004022000E4019A
:100B50001C00C8011900AF0117009801140084019E
:100B60001300710110006101100051010E004301DA
:100B70000D0036010B002B010B0020010B001501AD
:100B800009000C01090003010800FB000800F30044
:100B90000800EB000700E4000600DE000600D800B5
:100BA0000600D2000600CC000500C7000500C20008
:100BB0000500BD000400B9000400B5000400B10048
:100BC0000400AD000400A9000400A5000300A20079
:100BD00003009F0004009B000300980003009500A1
:100BE000020093000300900003008D0002008B00C0
:100BF00003008800020086000200840003008100D8
:100C000002007F0002007D0002007B0002007900EC
:100C100002007700010076000200740002007200FA
:100C20000100710002006F0002006D0001006C0005
:100C300002006A000100690002006700010066000E
:100C40000100650001006400020062000100610013
:100C50000100600001005F0002005D0001005C0017
:100C600001005B0001005A0001005900010058001A
:100C7000010057000100560001005500010054001A
:100C80000100530000005300010052000100510018
:100C90000100500001004F0001004E0000004E0016
:100CA00001004D0001004C0001004B0000004B0012
:100CB00001004A000100490001004800000048000E
:100CC0000100470001004600000046000100450009
:100CD0000000450001004400010043000000430003
:100CE00001004200000042000100410000004100FC
:100CF0000100400001003F0000003F0001003E00F5
:100D000000003E0001003D0000003D0001003C00ED
:100D100000003C0000003C0001003B0000003B00E4
:100D200001003A0000003A000100390000003900DB
:100D300001003800000038000000380001003700D2
:100D400000003700010036000000360000003600C9
:100D500001003500000035000000350001003400BE
:100D600000003400000034000100330000003300B4
:100D700000003300010032000000320000003200A9
:100D8000010031000000310000003100010030009E
:100D9000000030000000300001002F0000002F0094
:100DA00000002F0000002F0001002E0000002E0088
:100DB00000002E0001002D0000002D0000002D007D
:100DC00000002D0001002C0000002C0000002C0071
:100DD00000002C0001002B0000002B0000002B0065
:100DE00000002B0001002A0000002A0000002A0059
:100DF00000002A000100290000002900000029004D
:100E0000000029000000290001002800000028003F
:100E10000000280000002800000028000100270032
:100E20000000270000002700000027000000270026
:100E30000100260000002600000026000000260019
:100E4000000026000100250000002500000025000C
:100E500000002500000025000000250001002400FE
:100E600000002400000024000000240000002400F2
:100E700001002300000023000000230000002300E5
:100E800000002300000023000000230001002200D6
:100E900000002200000022000000220000002200CA
:100EA00000002200010021000000210000002100BC
:100EB00000002100000021000000210000002100AE
:100EC00001002000000020000000200000002000A1
:100ED0000000200000002000000020000000200092
:100EE00001001F0000001F0000001F0000001F0085
:100EF00000001F0000001F0000001F0001001E0076
:100F000000001E0000001E0000001E0000006265C0
:100F1000640A002C2073797374656D2073746F708C
:100F200070656421204865617465725F49443A20A8
:100F3000004572726F723A20616C2063616C656E5D
:100F40007461720048656174696E67206661696CDE
:100F50006564004572726F723A20616C2063616C47
:100F6000656E7461720048656174696E67206661C0
:100F7000696C65640070012C0190012701B00122A9
:100F800001C0011D01F00118011002130130020E11
:100F9000016002090190020401C002FF000003FA8F
:100FA000004003F5008003F000D003EB002004E6CE
:100FB000007004E100E004DC004005D700C005D269
:100FC000004006CD00D006C8008007C3003008BE30
:100FD00000F008B900C009B400B00AAF00B00BAA15
:100FE00000D00CA500000EA000500F9B00C0109672
:100FF000005012910000148C00C0158700B01782B9
:1010000000B0197D00D01B7800001E730040206ED8
:101010000090226900F024640040275F0090295A64
:1010200000E02B5500102E500020304B00103246AF
:1010300000E033410090353C001037370070383203
:1010400000A0392D00B03A2800A03B2300603C1ED0
:1010500000103D1900903D1400103E0F00703E0A34
:1010600000C03E0500003F0000403FFBFF803FF610
:10107000FFC03FF1FF4572726F7220646520746596
:101080006D706572617475726100546865726D612E
:101090006C2052756E61776179004572726F723A99
:1010A0002054656D70204D696E20506C6174004550
:1010B00072726F723A2054656D70204D696E696D61
:1010C00061004D494E54454D502074726967676503
:1010D000726564004572726F723A2054656D7020BB
:1010E0004D617820506C6174004572726F723A20C5
:1010F00054656D70204D6178696D61004D415854A3
:10110000454D5020747269676765726564001FFF02
:10111000FFFFFFFFFF600000000001FF4000000034
:101120000000FF8000000000007F83CF00000C3033
:101130003F87FF80000C301F867980000C000F8CE9
:1011400030C7838C30E78C30CFC7CC31F38C30DCA8
:10115000ECEC33B98C30D86C6C33198C30D06C0C0F
:1011600033198C30D86C0C33198C30DC6C0E3B1975
:101170008C30CF7C079F198C30C77C038F194000BF
:101180000000000002600000000000061FFFFFFFDB
:10119000FFFFF80000000000000000000000000059
:1011A000000000000000000000000000000000003F
:1011B000000000000000000000000000000000002F
:1011C000000000000000000000000000000000001F
:1011D000000000000000000000000000000000000F
:1011E00000000000000000000000000000000000FF
:1011F00000000000000000000000000000000000EF
:1012000000000000000000000000000000000000DE
:1012100000000007F00000000000000000000000D7
:10122000000FE007F00FF00E07FE00381C00700FF3
:10123000F00FE007F03FFC0E07FF80381C00703F06
:10124000FC0FE007007FFC0E07FFC0381C00707F1A
:10125000FC00E00700780C0E0703C0381C00707813
:101260000C00E00700F0000E0701E0381C0070F0F1
:101270000000E00700E0000E0700E0381C0070E00E
:101280000000E00700E0000E0700E0381C0070E0FE
:101290000000E00700E0000E0700E0381C0070E0EE
:1012A0000000E00700F8000E0701E0381C0070F8AD
:1012B0000000E007007F800E0703C0381C00707F2D
:1012C0008000E007003FF00E07FF80381C00703FF1
:1012D000F000E007000FF80E07FF00381C00700F49
:1012E000F800E0070000FC0E07FF00381C0070004B
:1012F000FC00E00700001E0E070780381C0070008D
:101300001E00E00700000E0E0703C0381C0070002E
:101310000E00E00700000E0E0701E0381C00700010
:101320000E00E00700000E0E0700E0381E00F0007F
:101330000E00E00700001E0E0700F0380E00E0006F
:101340001E00E00700C03C0E070070380F83E0C0AD
:101350003C00E00700FFFC0E0700783807FFC0FFE5
:10136000FC00E00700FFF80E0700383803FF80FF9D
:10137000F800E007003FE00E07003C3800FE003FA9
:10138000E000E00700000000000000000000000096
:101390000000E007F0000000000000000000000076
:1013A000000FE007F0000000000000000000000057
:1013B000000FE007F0000000000000000000000047
:1013C000000FE0000000000000000000000000002E
:1013D000000000000000000000000000000000000D
:1013E00000000000000000000000000000000000FD
:1013F000000000001F80000000000000000000004E
:10140000000000007FE0000000000000000000007D
:1014100000000000FFF000000000000000000000DD
:1014200000000001FFF800000000000000000000C4
:1014300000000001FFF800000000000000000000B4
:1014400000000003C03C000000000000000000009D
:1014500000000003000C000000000000000000007D
:10146000000000060006000000000000040000006C
:101470000000000400020000000000000400000062
:101480000000000C00030000000000000400000049
:101490000000001C0003849494916E38E79144E0AE
:1014A000E72DC01E000785D5D5D111451451450142
:1014B00008A2201E0007877777711145F44A44C1BE
:1014C00008A2201E0007822222211145044A44213D
:1014D00008A2201F000F822222291138F78435C864
:1014E000E722201F000F8000000000000004000021
:1014F0000000001F801F8000000000000018000096
:101500000000000FC03F00000000000000000000CD
:101510000000000FE07F000000000000000000005D
:1015200000000007F0FE00000000000000000000C6
:1015300000000001F9F800000000000000000000B9
:10154000000000007BE00000000000000000000040
:10155000000000000000000000000000000000008B
:10156000000000000000000000000000000000007B
:10157000000000000000000000000000000000006B
:10158000000000000000000000000000000000005B
:1015900000000025753A2530327500253032753A45
:1015A000253032750025756420253032753A253096
:1015B0003275005A00590058000920000000000050
:1015C00000000000000000007FFFE00000000000BD
:1015D000000000000000007000E0000000000000BB
:1015E00000000000000061F8600000000000000042
:1015F000000000000041F820000000000000000092
:101600000000000040F0200000000000000000008A
:10161000000000406020000000000000000000000A
:1016200000005801A07F80003FC00000000041047E
:10163000005C63A0FBC00079E00000000020820095
:101640005EF7A0F3C00076E0000000002082005E9C
:10165000F7A0EBC0007EE0000000004104005C63E6
:10166000A07B80003DC0000000008208005801A05F
:101670007B80003BC000000001041000406020FBA4
:10168000C00077E00000000104100040F020FBC023
:101690000070E00000000082080041F820FFC00058
:1016A0007FE00000000041040061F8603F00001F7F
:1016B00080000000000000007000E01E00000F002D
:1016C00000000001FFFF807FFFE00C00000600002B
:1016D000000001FFFF80000000000000000000008B
:1016E00000000000007FFFE000000000000000009C
:1016F000000000007000E00000000000000000009A
:10170000000000630C60000000000000000000000A
:101710000000470E20000000000000000000000054
:10172000004F0F200000000000000000000000003B
:101730005F0FA00000000000000000000000005E3D
:1017400007A07F80003FC00000000041040040600F
:1017500020FBC00079E00000000020820040F02063
:10176000F3C00076E00000000020820040F020EB93
:10177000C0007EE0000000004104004060207B804B
:10178000003DC0000000008208005E07A07B8000D2
:101790003BC0000000010410005F0FA0FBC00077F9
:1017A000E0000000010410004F0F20FBC00070E0BB
:1017B00000000000820800470E20FFC0007FE0000C
:1017C000000000410400630C603F00001F80000027
:1017D00000000000007000E01E00000F000000008C
:1017E00001FFFF807FFFE00C000006000000000109
:1017F000FFFF80000000496D70726573696F6E2095
:1018000063616E63656C61646100496E662E204998
:101810006D707265736F7261004E6F206861792020
:101820007461726A657461205344004D656E752061
:10183000646520534400446574656E657220696D6B
:1018400070726573696F6E005265616E7564617266
:1018500020696D70726573696F6E00506175736198
:101860007220696D70726573696F6E00436F6E747C
:10187000726F6C00507265706172617200416A75BE
:101880007374617200496E666F726D6163696F6E29
:1018900000426162797374657070696E67205800E8
:1018A000426162797374657070696E672059004295
:1018B0006162797374657070696E67205A004D6952
:1018C00063726F7061736F205A004D6963726F703D
:1018D00061736F2059004D6963726F7061736F207F
:1018E0005800466C756A6F203200466C756A6F202E
:1018F0003200466C756A6F203100466C756A6F2045
:101900003100466C756A6F00466C756A6F005665EB
:101910006E74696C61646F720056656E74696C6197
:10192000646F7200506C617461666F726D6100501B
:101930006C617461666F726D6100426F7175696C84
:101940006C61203200426F7175696C6C61203200ED
:10195000426F7175696C6C61203100426F717569FD
:101960006C6C6120310056656C6F63696461640062
:1019700056656C6F6369646164004D656E752070B7
:1019800072696E636970616C0050726563616C6549
:101990006E74617220504C41506C617461666F725C
:1019A0006D610050726563616C656E746172205088
:1019B0004C41546F646F0050726563616C656E7466
:1019C000617220504C4120456E64204532005072B7
:1019D0006563616C656E74617220504C4120320009
:1019E00050726563616C656E74617220504C412069
:1019F000456E642045310050726563616C656E749C
:101A0000617220504C4120310050726570617261EA
:101A1000720050726563616C656E74617220414240
:101A200053506C617461666F726D610050726563D2
:101A3000616C656E74617220414253546F646F0033
:101A400050726563616C656E74617220414253200F
:101A5000456E642045320050726563616C656E743A
:101A600061722041425320320050726563616C659F
:101A70006E7461722041425320456E6420453100EE
:101A800050726563616C656E7461722041425320CF
:101A900031005072657061726172004D34323800ED
:101AA00050726563616C656E7461722041425300CF
:101AB00050726563616C656E74617220504C4100B8
:101AC000456E6672696172004D383400417061671D
:101AD0006172206D6F746F72657300416A75737403
:101AE00061722064657366617365730047323820E4
:101AF0005A004F726967656E205A00473238205984
:101B0000004F726967656E205900473238205800CF
:101B10004F726967656E205800473238004C6C651B
:101B200076617220616C206F726967656E004D6F1F
:101B300076657220656A6573004D656E75207072FA
:101B4000696E636970616C004D6F76657220580034
:101B50004D6F7665722059004D6F766572205A0080
:101B60004578747275736F7232004578747275734C
:101B70006F7231004D6F76657220302E316D6D00C1
:101B80004D6F76657220316D6D004D6F76657220F8
:101B900031306D6D004D6F76657220656A6573003A
:101BA0004578747275736F72004D6F766572205A46
:101BB000004D6F7665722059004D6F766572205822
:101BC000004578747275736F72320045787472755F
:101BD000736F7231004578747275736F72004D6F58
:101BE000766572205A004D6F7665722059004D6FF0
:101BF0007665722058005072657061726172005291
:101C00006573746175726172206D656D6F72696163
:101C100000436172676172206D656D6F726961006A
:101C200047756172646172206D656D6F72696100E4
:101C300046696C616D656E746F004D6F76696D6994
:101C4000656E746F0054656D706572617475726154
:101C5000004D656E75207072696E636970616C000D
:101C600050726563616C656E7461722041425343CA
:101C70006F6E6669670050726563616C656E746152
:101C80007220504C41436F6E666967005049442D85
:101C900044005049442D44005049442D49005049C6
:101CA000442D49005049442D50005049442D5000C6
:101CB0002008204661637400200820466163740098
:101CC0002008204D6178002008204D617800200810
:101CD000204D696E002008204D696E0041706167DB
:101CE000617200456E63656E6465720054656D7067
:101CF00065726174757261204175746F2E0056654E
:101D00006E74696C61646F720056656E74696C61A3
:101D1000646F7200506C617461666F726D61005027
:101D20006C617461666F726D6100426F7175696C90
:101D30006C61203200426F7175696C6C61203200F9
:101D4000426F7175696C6C61203100426F71756909
:101D50006C6C61203100436F6E74726F6C0047755C
:101D60006172646172206D656D6F72696100506CA3
:101D7000617461666F726D6100506C617461666F51
:101D8000726D6100426F7175696C6C6100426F71B8
:101D900075696C6C610056656E74696C61646F7214
:101DA0000056656E74696C61646F720054656D7085
:101DB000657261747572610045207061736F732F75
:101DC0006D6D0045207061736F732F6D6D005A202B
:101DD0007061736F732F6D6D005A207061736F7334
:101DE0002F6D6D0059207061736F732F6D6D0059E9
:101DF000207061736F732F6D6D0058207061736F69
:101E0000732F6D6D0058207061736F732F6D6D00AF
:101E10004163656C2E205669616A65004163656C9B
:101E20002E205669616A65004163656C2E207265DB
:101E3000747261632E004163656C2E20726574724A
:101E400061632E004163656C2E206D617845004111
:101E500063656C2E206D617845004163656C2E20B2
:101E60006D61785A004163656C2E206D61785A006F
:101E70004163656C2E206D617859004163656C2E5D
:101E8000206D617859004163656C2E206D61785832
:101E9000004163656C2E206D6178580056656C2E8C
:101EA000207669616A65206D696E0056656C2E202A
:101EB0007669616A65206D696E00566D696E0056BF
:101EC0006D696E00566D61784500566D617845000C
:101ED000566D61785A00566D61785A00566D61787A
:101EE0005900566D61785900566D61785800566DED
:101EF0006178580056652D6A65726B0056652D6ACB
:101F000065726B00567A2D6A65726B00567A2D6A7F
:101F100065726B0056792D6A65726B0056792D6A71
:101F200065726B0056782D6A65726B0056782D6A63
:101F300065726B004163656C65726163696F6E0009
:101F40004163656C65726163696F6E00436F6E74A7
:101F5000726F6C0046696C2E204469612E2032003D
:101F600046696C2E204469612E20320046696C2E31
:101F7000204469612E20310046696C2E204469613D
:101F80002E20310041706167617200456E63656E9D
:101F9000646572004520696E206D6D3300436F6E7D
:101FA00074726F6C0000091200FC0A01E803D7206C
:101FB000FFFD0EFD0BFD00000009000E010B0B09DB
:101FC0000400808080808080800000808004040481
:101FD00009030790909090080A0A0900002424241D
:101FE000FF2424FF242424070B0B0901FF107C92FB
:101FF0009050381412927C10070A0A09010042A47A
:10200000A4481010244A4A84070A0A090100609073
:1020100090906062948894620104040904078080AF
:102020008080030C0C0903FF20404080808080806A
:1020300080404020030C0C0903FF804040202020FA
:1020400020202040408007070709010310925438E0
:10205000549210070707090101101010FE1010100C
:102060000204040904FEC0C0408007010109010404
:10207000FE020202090400C0C0070A0A09010002A8
:10208000040408101020404080070A0A09010038A3
:10209000448282828282824438070A0A090100103F
:1020A0003050901010101010FE070A0A0901003875
:1020B0004482020408102040FE070A0A090100FEBB
:1020C000020408180402028478070A0A09010004BD
:1020D0000C14244484FE040404070A0A090100FEC7
:1020E000808080F80402028478070A0A0901003C13
:1020F000408080B8C482824438070A0A090100FE81
:10210000020404080810101010070A0A0901003818
:10211000448244384482824438070A0A090100385C
:10212000448282463A02020478020707090400C08A
:10213000C0000000C0C00209090904FEC0C00000C0
:1021400000C0C04080050909090200081020408035
:1021500040201008070404090102FE0000FE0509E2
:1021600009090200804020100810204080070A0A58
:1021700009010038448202040810100010070A0AFE
:1021800009010038449AAAAAAAAA9C403C070A0A54
:1021900009010010282828447C44828282070A0A08
:1021A000090100F8848284F884828284F8070A0A8C
:1021B0000901003C42808080808080423C070A0AFE
:1021C000090100F88482828282828284F8070A0AE6
:1021D000090100FE808080F880808080FE070A0A66
:1021E000090100FE808080F88080808080070A0AD4
:1021F00009010038448280808E82824438070A0AAE
:1022000009010082828282FE8282828282050A0A1B
:10221000090200F82020202020202020F8070A0AA8
:102220000901003E080808080808888870070A0A9B
:1022300009010082848890A0D088848282070A0ADB
:10224000090100808080808080808080FE070A0AEB
:102250000901008282C6AA928282828282070A0AC9
:102260000901008282C2A2928A86828282070A0AB9
:102270000901007C82828282828282827C070A0A31
:10228000090100F884828284F880808080080B0B2A
:102290000901FF384482828282828A443A01070A15
:1022A0000A090100F884828284F890888482070AEF
:1022B0000A0901007C8280807C020202827C070A7B
:1022C0000A090100FE101010101010101010070A5B
:1022D0000A09010082828282828282824438070A4D
:1022E0000A09010082828244444428282810070AEF
:1022F0000A0901008282828292929292AA44070A7B
:102300000A09010082824428101028448282070AA8
:102310000A09010082824428101010101010070AC8
:102320000A090100FE0204081020408080FE040C0F
:102330000C0903FFF080808080808080808080F0A6
:10234000070A0A0901008040402010100804040216
:10235000040C0C0902FFF0101010101010101010D7
:1023600010F007040409010610284482080101093D
:1023700000FFFF03030309030A8040200707070942
:1023800001007C02027E82867A070A0A0901008027
:102390008080BCC2828282C2BC0707070901007C20
:1023A00082808080827C070A0A0901000202027A88
:1023B00086828282867A0707070901007C8282FE74
:1023C00080827C070A0A0901001C22222020F820B2
:1023D000202020070A0A0901FD7A84848478807C01
:1023E00082827C070A0A090100808080BCC2828246
:1023F000828282050A0A090200600000E020202093
:102400002020F8050D0D0902FD1800003808080805
:10241000080808888870070A0A09010080808084FB
:102420008890B0C88482050A0A090200E0202020B2
:102430002020202020F8070707090100EC92929243
:10244000929282070707090100BCC28282828282BF
:102450000707070901007C82828282827C070A0AC0
:102460000901FDB8C4828282C4B8808080070A0A4C
:102470000901FD3A46828282463A020202070707B4
:102480000901009C624240404040070707090100E3
:102490007C82807C02827C0709090901002020FCE3
:1024A00020202020221C0707070901008282828247
:1024B00082867A070707090100828244442828108F
:1024C0000707070901008282929292AA4407070730
:1024D00009010082442810284482070A0A0901FDE4
:1024E00042422424241818109060070707090100AD
:1024F000FE0408102040FE060B0B0902001C2020E1
:102500002020C0202020201C010C0C0904FF80800A
:1025100080808080808080808080060B0B09010095
:10252000E0101010100C10101010E0070303090148
:102530000762928CFFFFFFFFFFFFFFFFFFFFFFFF20
:10254000FFFFFFFFFFFFFFFFFFFFFFFFFFFFFFFF9B
:10255000FFFFFFFFFF00000009000E010B0B090445
:1025600000808000008080808080808006080809CC
:10257000010008789490A0A47840070A0A09010095
:102580001C222020F8202060A25C07060609010317
:10259000827C44447C82070A0A0901008282442822
:1025A0007C107C101010010B0B0904FF80808080D0
:1025B00080008080808080040B0B0902FF60908087
:1025C000609090906010906003020209030BA0A03D
:1025D0000809090900013C4299A5A1A599423C05B9
:1025E0000707090103609070907800F80708080950
:1025F00001011224489090482412060404090102A3
:10260000FC040404050101090204F8080909090091
:10261000013C42B9A5BDA9A5423C06010109010939
:10262000FC0404040903066090906007090909018D
:1026300001101010FE10101000FE0406060901041F
:102640006090106080F0040606090104609020107C
:10265000906003030309030A204080070909090168
:10266000FE8282828282C6BA8080070A0A0901003D
:102670007E8A8A8A7A0A0A0A0A0A0202020904047B
:10268000C0C00403030902FD20906003060609018F
:102690000440C0404040E0050606090104708888F7
:1026A0007000F80708080901019048241212244814
:1026B00090070A0A09010040C0404042E60A121A87
:1026C00006070A0A09010040C040404CF2020C1003
:1026D0001E070A0A0901006090201092660A121A69
:1026E00006070A0A090100100010102040808282AB
:1026F0007C070E0E0901002010080010282828442D
:102700007C44828282070E0E09010008102000100E
:10271000282828447C44828282070E0E090100107A
:1027200028440010282828447C44828282070D0D0A
:1027300009010034580010282828447C44828282F1
:10274000070D0D09010028280010282828447C4482
:10275000828282070E0E09010010282810102828F6
:1027600028447C44828282070A0A0901001E282824
:10277000284E784888888E070D0D0901FD3C42805F
:102780008080808080423C082418070E0E090100DA
:1027900020100800FE808080F880808080FE070E78
:1027A0000E09010008102000FE808080F8808080E3
:1027B00080FE070E0E09010010284400FE80808074
:1027C000F880808080FE070D0D090100282800FE9A
:1027D000808080F880808080FE050E0E0902004017
:1027E000201000F82020202020202020F8050E0EA8
:1027F00009020010204000F8202020202020202066
:10280000F8050E0E09020020508800F82020202034
:1028100020202020F8050D0D090200505000F8205E
:1028200020202020202020F8070A0A0901007844EF
:102830004242F24242424478070D0D0901003458E9
:10284000008282C2A2928A86828282070E0E0901CB
:1028500000201008007C82828282828282827C0731
:102860000E0E090100081020007C82828282828282
:1028700082827C070E0E090100102844007C8282AF
:102880008282828282827C070D0D09010034580009
:102890007C82828282828282827C070D0D09010005
:1028A0002828007C82828282828282827C070707BB
:1028B00009010182442810284482070C0C0901FFF9
:1028C000027C868A8A9292A2A2C27C80070E0E099E
:1028D0000100201008008282828282828282443833
:1028E000070E0E0901000810200082828282828277
:1028F00082824438070E0E090100102844008282AB
:102900008282828282824438070D0D0901002828C4
:102910000082828282828282824438070E0E0901FE
:102920000008102000828244281010101010100798
:102930000A0A0901008080FC828282FC8080800675
:102940000A0A09010038444448D04844444458071E
:102950000B0B090100201008007C02027E82867A9F
:10296000070B0B090100081020007C02027E828602
:102970007A070B0B090100102844007C02027E82BA
:10298000867A070A0A0901003458007C02027E8216
:10299000867A070A0A0901002828007C02027E8242
:1029A000867A070C0C09010010282810007C02020E
:1029B0007E82867A0707070901006C12127E9092C8
:1029C0006C070A0A0901FD7C82808080827C1048A5
:1029D00030070B0B090100201008007C8282FE806A
:1029E000827C070B0B090100081020007C8282FE0C
:1029F00080827C070B0B090100102844007C828236
:102A0000FE80827C070A0A0901002828007C828255
:102A1000FE80827C050C0C0902008040200000E052
:102A20002020202020F8050C0C0902001020400076
:102A300000E02020202020F8050C0C090200205086
:102A4000880000E02020202020F8050B0B09020060
:102A500050500000E02020202020F8070B0B090137
:102A600000483050083C448282824438070A0A09F0
:102A70000100345800BCC28282828282070B0B099B
:102A80000100201008007C82828282827C070B0B6E
:102A9000090100081020007C82828282827C070B60
:102AA0000B090100102844007C82828282827C070C
:102AB0000A0A0901003458007C82828282827C07E3
:102AC0000A0A0901002828007C82828282827C070F
:102AD000090909010010381000FE0010381007091C
:102AE000090901FF027C8A8A92A2A27C80070B0B53
:102AF000090100402010008282828282867A070BC0
:102B00000B090100081020008282828282867A07E7
:102B10000B0B090100102844008282828282867A8F
:102B2000070A0A0901002828008282828282867AA6
:102B3000070E0E0901FD0408100042422424241847
:102B400018109060070B0B0901FE8080B8C48282C8
:102B500082C4B88080070D0D0901FD242400424283
:102B60002424241818109060434F4D4D554E49436E
:102B70004154494F4E0044525952554E004552520D
:102B80004F525300494E464F004543484F00256978
:102B9000730025696D202569730025696820256902
:102BA0006D202569730025696420256968202569E1
:102BB0006D202569730025697920256964202569C0
:102BC000682025696D202569730050617261646118
:102BD00020646520656D657267656E636961004498
:102BE0006574656E696461005072696E7465722007
:102BF00073746F707065642064756520746F2065F0
:102C000072726F72732E2046697820746865206531
:102C100072726F7220616E6420757365204D393950
:102C20003920746F20726573746172742E20285479
:102C3000656D706572617475726520697320726567
:102C40007365742E20536574206974206166746501
:102C5000722072657374617274696E67290A004E1E
:102C60006F204C696E65204E756D626572207769C4
:102C7000746820636865636B73756D2C204C617399
:102C800074204C696E653A20004E6F20436865637E
:102C90006B73756D2077697468206C696E65206E42
:102CA000756D6265722C204C617374204C696E6581
:102CB0003A2000636865636B73756D206D69736D91
:102CC000617463682C204C617374204C696E653AA2
:102CD00020004C696E65204E756D626572206973C7
:102CE000206E6F74204C617374204C696E65204EA9
:102CF000756D6265722B312C204C617374204C69A8
:102D00006E653A20004D313130004D33310053446F
:102D10002072656164206572726F720A00446F6E82
:102D200065207072696E74696E672066696C650AE9
:102D30000020496E76616C696420657874727564F0
:102D40006572200000809343008093430080894394
:102D5000000040C2000040C10000000044656C65F6
:102D600074696F6E206661696C65642C2046696CBD
:102D7000653A200046696C652064656C657465641D
:102D80003A006F70656E206661696C65642C204640
:102D9000696C653A20006D0046696C616D656E7402
:102DA00020757365643A200053746174733A20008F
:102DB0002C204C6F6E67657374206A6F623A200036
:102DC000546F74616C2074696D653A2000537461AE
:102DD00074733A20002C204661696C65643A2000C7
:102DE0002C2046696E69736865643A2000507269E8
:102DF0006E74733A200053746174733A200020405B
:102E0000002042403A0020403A00202F0020540089
:102E1000202F0020423A00202F0020543A00436126
:102E20006C656E74616D69656E746F206C69737426
:102E30006F003F0A0020573A00452569202573009E
:102E40005B534952495553203330305D206C6973D0
:102E500074612E00205A3A0020593A0020436F75C1
:102E60006E7420583A0020453A00205A3A00205902
:102E70003A00583A0023646566696E65202044452F
:102E80004641554C545F4B64200023646566696E6F
:102E900065202044454641554C545F4B6920002332
:102EA000646566696E65202044454641554C545F13
:102EB0004B702000504944204175746F74756E65E5
:102EC0002066696E6973686564212050757420748A
:102ED0006865206C617374204B702C204B692061F5
:102EE0006E64204B6420636F6E7374616E74732024
:102EF00066726F6D2062656C6F7720696E746F20EB
:102F0000436F6E66696775726174696F6E2E680AC9
:102F100000504944204175746F74756E6520666178
:102F2000696C6564212074696D656F75740A005061
:102F30004944204175746F74756E65206661696CD3
:102F40006564212054656D706572617475726520C9
:102F5000746F6F20686967680A00204B643A20002C
:102F6000204B693A2000204B703A20000A20436C25
:102F7000617373696320504944200A002054753AF4
:102F80002000204B753A2000206D61783A20002007
:102F90006D696E3A200020643A20002062696173F6
:102FA0003A2000486F6D65202573257325732066D0
:102FB00069727374002066697273740A005A00594A
:102FC000005800486F6D6520004163746976652084
:102FD00045787472756465723A20004E6F206D6F8B
:102FE0007665206F6E20746F6F6C6368616E6765C5
:102FF0000A0047322F47332062616420706172619A
:103000006D65746572730A005265706F736F2E2E52
:103010002E005B534952495553203330305D206CAC
:10302000697374612E00526573756D69656E646FA6
:1030300020696D7072652E004573706572616E64F3
:103040006F206F7264656E65730053696E206D6FDB
:1030500076696D69656E746F00456E642066696C93
:1030600065206C6973740A00426567696E20666941
:103070006C65206C6973740A005344207072696E29
:1030800074696E67206279746520004E6F742053F6
:1030900044207072696E74696E670A005072696EBE
:1030A000742074696D653A200050726F74656374A2
:1030B00065642050696E0A00452569202573005B10
:1030C000534952495553203330305D206C69737435
:1030D000612E006F666600892B842B7D2B762B6812
:1030E0002B44454255473A00506172616461206447
:1030F0006520656D657267656E636961004D31318C
:10310000332053006F6B00506C617461666F726D99
:10311000612043616C69656E7465003F0A00205749
:103120003A0043616C656E74616E646F20506C612F
:10313000742E2E2E005B53495249555320333030A4
:103140005D204170616761722E004649524D5741C2
:1031500052455F4E414D453A4D61726C696E20316A
:103160002E312E3120284769746875622920534F0B
:10317000555243455F434F44455F55524C3A68743E
:103180007470733A2F2F6769746875622E636F6D60
:103190002F4D61726C696E4669726D776172652F31
:1031A0004D61726C696E2050524F544F434F4C5FCB
:1031B00056455253494F4E3A312E30204D414348E7
:1031C000494E455F545950453A5B5349524955530E
:1031D000203330305D2045585452554445525F43AA
:1031E0004F554E543A3220555549443A636564650B
:1031F000326132662D343161322D343734382D3915
:103200006231322D63353563363266333637666662
:103210000A007A5F6D696E3A2000795F6D696E3AD7
:103220002000785F6D61783A2000785F6D696E3AB2
:1032300020005265706F7274696E6720656E6473EA
:10324000746F70207374617475730A004D31343576
:1032500020533C696E6465783E206F7574206F66FC
:103260002072616E67652028302D31290A00536570
:103270007474696E672054726176656C2041636373
:10328000656C65726174696F6E3A20005365747481
:10329000696E67205265747261637420416363656F
:1032A0006C65726174696F6E3A200053657474695D
:1032B0006E67205072696E7420416363656C65723D
:1032C0006174696F6E3A200053657474696E67208B
:1032D0005072696E7420616E642054726176656C00
:1032E00020416363656C65726174696F6E3A20009A
:1032F000205A00205900580020204D61783A2000C3
:10330000205A00205900580020204D696E3A2000B4
:10331000456E63656E64657200417061676172003D
:10332000536F667420656E6473746F70733A200017
:10333000486F74656E64206F6666736574733A00D7
:1033400020643A0020693A0020703A0043290A00BC
:1033500061626C656420286D696E2074656D7020F3
:1033600000436F6C642065787472756465732061C6
:10337000726520004572723A20546F6F2066617248
:103380002100546F6F206661722066726F6D20722B
:1033900065666572656E636520706F696E740A009C
:1033A000446573666173652061706C696361646F05
:1033B00000486F74656E64206F6666736574733A57
:1033C000004E6F2063617365206C696768740A0042
:1033D000556E6B6E6F776E20636F6D6D616E643AC4
:1033E000202200526573656E643A20006F6B0020E6
:1033F000746F6F206C6F6E67206578747275736977
:103400006F6E2070726576656E7465640A00206365
:103410006F6C6420657874727573696F6E2070725A
:103420006576656E7465640A00627573793A20701A
:10343000617573656420666F7220696E7075740AB9
:1034400000627573793A2070617573656420666FE8
:103450007220757365720A00627573793A20707212
:103460006F63657373696E670A00506172616461AE
:1034700020646520656D657267656E636961004BE8
:10348000494C4C20636175736564206279204B4917
:103490004C4C20627574746F6E2F70696E0A005008
:1034A000617261646120646520656D657267656E37
:1034B000636961004B494C4C2063617573656420FE
:1034C000627920746F6F206D75636820696E616327
:1034D000746976652074696D65202D20637572723C
:1034E000656E7420636F6D6D616E643A2000506F7D
:1034F00072206661766F722C207265696E696369ED
:103500006500494D505245534F5241205041524160
:103510004441005072696E7465722068616C746514
:10352000642E206B696C6C28292063616C6C656467
:10353000210A00000040C2000040C1000000005706
:1035400061726E696E673A20486F6D696E672042DE
:10355000756D702044697669736F72203C20310A62
:10356000000000404000004040000000400080ABF0
:10357000430080994300808943FFFFFF0000211032
:10358000422063308440A550C660E77008812991CD
:103590004AA16BB18CC1ADD1CEE1EFF13112100275
:1035A00073325222B5529442F772D662399318831D
:1035B0007BB35AA3BDD39CC3FFF3DEE36224433441
:1035C00020040114E664C774A44485546AA54BB56D
:1035D00028850995EEE5CFF5ACC58DD55336722615
:1035E00011163006D776F6669556B4465BB77AA7BD
:1035F00019973887DFF7FEE79DD7BCC7C448E55861
:103600008668A7784008611802282338CCC9EDD90C
:103610008EE9AFF9488969990AA92BB9F55AD44AB4
:10362000B77A966A711A500A333A122AFDDBDCCB5C
:10363000BFFB9EEB799B588B3BBB1AABA66C877C80
:10364000E44CC55C222C033C600C411CAEED8FFDAC
:10365000ECCDCDDD2AAD0BBD688D499D977EB66E54
:10366000D55EF44E133E322E511E700E9FFFBEEFFC
:10367000DDDFFCCF1BBF3AAF599F788F8891A981BE
:10368000CAB1EBA10CD12DC14EF16FE18010A100A8
:10369000C230E3200450254046706760B983989398
:1036A000FBA3DAB33DC31CD37FE35EF3B1029012F8
:1036B000F322D2323542145277625672EAB5CBA564
:1036C000A89589856EF54FE52CD50DC5E234C32448
:1036D000A01481046674476424540544DBA7FAB738
:1036E0009987B8975FE77EF71DC73CD7D326F23698
:1036F0009106B01657667676154634564CD96DC984
:103700000EF92FE9C899E9898AB9ABA944586548E7
:1037100006782768C018E1088238A3287DCB5CDBD7
:103720003FEB1EFBF98BD89BBBAB9ABB754A545A37
:10373000376A167AF10AD01AB32A923A2EFD0FEDA3
:103740006CDD4DCDAABD8BADE89DC98D267C076C87
:10375000645C454CA23C832CE01CC10C1FEF3EFF77
:103760005DCF7CDF9BAFBABFD98FF89F176E367ED7
:10377000554E745E932EB23ED10EF01E7C3C3E5EE2
:103780002B3D3F2F5B5D3B2C2A225C004572726F04
:10379000722077726974696E6720746F2045455096
:1037A000524F4D210A0043616E6E6F7420656E7436
:1037B0006572207375626469723A2000022E2E00D1
:1037C0004D656E75207072696E636970616C000082
:1037D000546F74616C2064652045787472757369E8
:1037E0006F6E3A2000256C642E25696D0000496DCE
:1037F00070726573696F6E206D6173206C617267A2
:10380000613A2000005469656D706F20746F7461B7
:103810006C20646520696D702E3A2000436F6D70D6
:103820006C6574616461733A2000436F6E74656FF8
:1038300020646520696D70726573696F6E3A20004F
:1038400054656D7065726174757261206D6178691F
:103850006D613A203132300054656D70657261746B
:10386000757261206D696E696D613A203500544250
:1038700065643A4550434F53203130304B00546516
:103880006D7065726174757261206D6178696D61CA
:103890003A203235300054656D706572617475720E
:1038A00061206D696E696D613A20350054313A20AE
:1038B0004154432031303447542D320054656D70EB
:1038C00065726174757261206D6178696D613A200D
:1038D0003235300054656D706572617475726120A7
:1038E0006D696E696D613A20350054303A2041545B
:1038F000432031303447542D32004675656E74656F
:1039000020646520706F6465723A2047656E657249
:1039100069630050726F746F636F6C6F3A20312E61
:10392000300042617564696F733A2031313532304D
:10393000300052756D6261004578747275736F72F4
:1039400065733A203200687474703A2F2F6D61727B
:103950006C696E66772E6F7267005B5349524955EA
:1039600053203330305D00323031372D30352D313A
:10397000322031323A303000312E312E31004D615B
:10398000726C696E00457374616469737469636114
:103990007320496D702E005465726D6973746F7277
:1039A000657300496E662E20436F6E74726F6C6192
:1039B000646F7200496E662E20496D707265736F78
:1039C0007261004D656E75207072696E6369706119
:1039D0006C005461726A6574612072657469726109
:1039E0006461005461726A65746120636F6C6F6317
:1039F00061646100022020506C616E6E65724275D8
:103A00006666657242797465733A20002046726575
:103A100065204D656D6F72793A2000436F6D706956
:103A20006C65643A20536570202031203230323684
:103A30000A00207C20417574686F723A202853492F
:103A4000524955532033303078333030204355536A
:103A5000544F4D202D206F646F736C66290A00321D
:103A60003031372D30352D31322031323A3030007F
:103A7000204C61737420557064617465643A200051
:103A8000312E312E310A004D61726C696E00205367
:103A90006F6674776172652052657365740A0020E1
:103AA0005761746368646F672052657365740A00B8
:103AB0002042726F776E206F757420526573657443
:103AC0000A002045787465726E616C2052657365DA
:103AD000740A00506F77657255700A0073746172D2
:103AE000740A006572726F722077726974696E670A
:103AF00020746F2066696C650A00456E6473746F8C
:103B00007073202563202563202563202563002012
:103B10005A3A0020593A0020583A00656E6473748E
:103B20006F7073206869743A2000446F6E6520736B
:103B30006176696E672066696C652E0A004D3239C0
:103B40000000002100240027002A002D003000334F
:103B50000001010000040107010A01000022002504
:103B60000028002B002E0031003400020100000567
:103B70000108010B01000020002300260029002C71
:103B8000002F0032000001000003010601090105B9
:103B9000050505070508080808020202020A0A08C6
:103BA00008040404040101010101010101030303EC
:103BB0000303030303040707070C0C0C0C0C0C0C89
:103BC0000C0202020206060606060606060B0B0B90
:103BD0000B0B0B0B0B0102102020080810204010CB
:103BE00020408002010201080402010102040810C1
:103BF00020408080402010080402018004020180DF
:103C00004020100804020108040201010204081007
:103C1000204080010204081020408000000A0B02AE
:103C2000090C0D0E0807030401000000000000004D
:103C30000000000000000000000000000000000084
:103C40000000000000000012111000000000000041
:103C50000000000000000000000000000000000064
:103C60000057726974696E6720746F2066696C65AD
:103C70003A20006F70656E206661696C65642C2067
:103C800046696C653A20006F70656E206661696CEC
:103C900065642C2046696C653A200046696C652095
:103CA00073656C65637465640A002053697A653ACC
:103CB000200046696C65206F70656E65643A20006F
:103CC0006F70656E206661696C65642C2046696C56
:103CD000653A20002066696C653A20004E6F7720B7
:103CE000002220706F73002220706172656E743A3A
:103CF0002200535542524F5554494E452043414CA2
:103D00004C207461726765743A220050617261647C
:103D10006120646520656D657267656E6369610029
:103D2000747279696E6720746F2063616C6C2073A4
:103D300075622D67636F64652066696C65732077B3
:103D400069746820746F6F206D616E79206C657680
:103D5000656C732E204D4158206C6576656C20692A
:103D6000733A0043616E6E6F74206F70656E2073DE
:103D70007562646972200053442063617264206F2D
:103D80006B0A006F70656E526F6F74206661696CAC
:103D900065640A00766F6C756D652E696E697420B6
:103DA0006661696C65640A004572726F723A00530D
:103DB0004420696E6974206661696C0A00617574DB
:103DC0006F25692E67004D3234004D323320257344
:103DD00000656E7175657565696E672022006563A3
:103DE000686F3A0000060900FE070192032120FFD8
:103DF000FF08FF07FF00000006000001070706029A
:103E00000080808080800080030202060105A0A05F
:103E10000507070600005050F850F85050050707F6
:103E20000600002078A07028F02005070706000093
:103E3000C0C810204098180507070600006090A031
:103E400040A89068020303060104C04080030707EE
:103E50000601002040808080402003070706010003
:103E60008040202020408005050506000120A87024
:103E7000A8200505050600012020F82020020303E4
:103E80000602FFC04080050101060003F80202029D
:103E9000060200C0C005050506000108102040808C
:103EA0000507070600007088888888887003070760
:103EB00006010040C040404040E005070706000002
:103EC000708808708080F8050707060000F8102049
:103ED000100808F005070706000010305090F81091
:103EE00010050707060000F880F00808887005072D
:103EF00007060000708080F08888700507070600BC
:103F000000F8081020202020050707060000708810
:103F10008870888870050707060000708888780810
:103F20000870020505060200C0C000C0C0020606F7
:103F30000602FFC0C000C040800407070600001052
:103F4000204080402010050303060002F800F8041A
:103F50000707060100804020102040800507070663
:103F60000000708808102000200507070600007078
:103F7000880868A8A870050707060000708888F8F8
:103F8000888888050707060000F08888F08888F090
:103F90000507070600007088808080887005070785
:103FA000060000F08888888888F00507070600006A
:103FB000F88080F08080F8050707060000F8808010
:103FC000F0808080050707060000708880B8888828
:103FD00070050707060000888888F8888888010728
:103FE0000706020080808080808080050707060029
:103FF0000038101010109060050707060000889028
:10400000A0C0A090880507070600008080808080FF
:1040100080F805070706000088D8A88888888805E2
:1040200007070600008888C8A8988888050707063B
:10403000000070888888888870050707060000F0EF
:104040008888F080808005070706000070888888CF
:10405000A89068050707060000F08888F0A09088FF
:10406000050707060000788080700808F00507073C
:10407000060000F820202020202005070706000069
:1040800088888888888870050707060000888888DF
:10409000888850200507070600008888888888A837
:1040A00050050707060000888850205088880507BB
:1040B0000706000088888850202020050707060092
:1040C00000F80810204080F8030707060100E08090
:1040D00080808080E00505050600018040201008F2
:1040E000030707060100E02020202020E00503034D
:1040F000060004205088050101060000F8020202B3
:1041000006020580400505050600007008788878DD
:104110000507070600008080B0C88888F0050505FF
:1041200006000070808088700507070600000808F8
:1041300068988888780505050600007088F8807002
:104140000507070600003048E040404040050606ED
:104150000600FF7088887808700507070600008051
:1041600080B0C88888880107070602008000808028
:104170008080800308080601FF200020202020A066
:1041800040040707060000808090A0C0A0900307AD
:1041900007060100C04040404040E005050506001C
:1041A00000D0A8A8A8A8050505060000B0C8888802
:1041B00088050505060000708888887005060606D3
:1041C00000FFF08888F080800506060600FF7888EA
:1041D00088780808050505060000B0C880808005BD
:1041E000050506000070807008F00407070600004F
:1041F0004040E040404030050505060000888888C2
:104200009868050505060000888888502005050582
:104210000600008888A8A8500505050600008850FB
:104220002050880506060600FF88888878087005F3
:104230000505060000F8102040F8030707060100F6
:104240002040408040402001070706020080808017
:1042500080808080030707060100804040204040A6
:1042600080050202060002689000000006000000BF
:10427000000006000000000006000000000006002C
:104280000000000006000000000006000000000022
:10429000060000000000060000000000060000000C
:1042A00000000600000000000600000000000600FC
:1042B00000000000060000000000060000000000F2
:1042C00006000000000006000000000006000000DC
:1042D00000000600000000000600000000000600CC
:1042E00000000000060000000000060000000000C2
:1042F00006000000000006000000000006000000AC
:10430000000006000000000006000000000006009B
:104310000000000006000000000006000000000091
:10432000060000000000060000000000060000007B
:104330000000060000010707060200800080808060
:1043400080800507070600002070A8A0A87020053F
:104350000707060000304040E04050A8050505066C
:1043600000008870507088050707060000885020FC
:10437000F820F82001070706020080808000808076
:104380008005080806000030482050502090600347
:104390000101060107A0050707060000F888B8B864
:1043A000B888F8050707060001700878887800F8D3
:1043B0000505050600012850A05028050303060046
:1043C00001F80808020202060206408005070706F7
:1043D0000000F888A88898A8F8050101060006F8EA
:1043E00004040406000360909060050707060000BF
:1043F0002020F8202000F804050506000360902026
:1044000040F0030505060003E020E020E002020280
:1044100006020640800508080600FF8888888898FC
:10442000E880800507070600007898987818181823
:10443000020202060202C0C00202020602FF40801F
:1044400003050506000340C04040E00507070600DD
:1044500001708888887000F8050505060001A050E5
:104460002850A00507070600008890A858B808083B
:104470000507070600008890B84898203805080806
:10448000060000C040C048D83808080507070600E5
:1044900000200020408088700508080600004020A9
:1044A000007088F888880508080600001020007051
:1044B00088F888880508080600002050007088F8F1
:1044C00088880508080600006890007088F88888C9
:1044D0000508080600005000708888F888880508DC
:1044E000080600002050207088F888880507070615
:1044F00000003860A0B8E0A0B80508080600FF700A
:104500008880808870206005080806000040200030
:10451000F880F080F8050808060000081000F88010
:10452000F080F8050808060000205000F880F080B0
:10453000F80507070600005000F880F080F803082F
:1045400008060100804000E0404040E00308080603
:104550000100204000E0404040E003080806010060
:1045600040A000E0404040E0030707060100A00033
:10457000E0404040E0050707060000704848E84872
:10458000487005080806000068900088C8A8988848
:104590000508080600004020708888888870050893
:1045A00008060000102070888888887005080806B2
:1045B00000002050007088888870050808060000F8
:1045C0006890007088888870050808060000500010
:1045D000708888888870050505060001885020507D
:1045E000880508080600FF1070A8A8A8A870400554
:1045F0000808060000402088888888887005080818
:104600000600001020888888888870050808060041
:10461000002050008888888870050808060000502F
:10462000008888888888700508080600001020889F
:1046300050202020200509090600FFC0407048488E
:10464000704040E00408080601FF609090A0909040
:10465000E08005080806000040200070087888788F
:104660000508080600001020007008788878050802
:1046700008060000205000700878887805080806B1
:104680000000689000700878887805070706000029
:10469000500070087888780508080600002050202F
:1046A0007008788878050606060000D02878A0A84B
:1046B000500506060600FF70808870206005080817
:1046C0000600004020007088F88070050808060089
:1046D000001020007088F88070050808060000208F
:1046E00050007088F88070050707060000500070C1
:1046F00088F8807003080806010080400040C04030
:1047000040E003080806010020400040C04040E0AF
:1047100003080806010040A00040C04040E0030735
:1047200007060100A00040C04040E0050707060062
:1047300000A040A010788870050808060000689066
:1047400000B0C8888888050808060000402000706E
:104750008888887005080806000010200070888886
:10476000887005080806000020500070888888704E
:1047700005080806000068900070888888700507A2
:10478000070600005000708888887005050506003F
:10479000012000F800200507070600FF1070A8A8F8
:1047A000A870400508080600004020008888889806
:1047B00068050808060000102000888888986805A9
:1047C00008080600002050008888889868050707B8
:1047D000060000500088888898680509090600FFCF
:1047E000102000888888F808700407070601FFC0B9
:1047F0004060506040E00508080600FF50008888CF
:104800008878087000060900FE0000000000010919
:104810000008FE000005080806000040F0C888886F
:10482000987810050808060000C0F88888888888ED
:10483000F80505050600012030F8302005080806B7
:1048400000002070F820202020E00509090600FF64
:104850002070A8A8B8888870200509090600FFE024
:1048600080C0B0A8283028280509090600FFF8A84C
:104870008888888888A8F8050A0A0600FE20505013
:10488000505088A8A8887003030306000340A04086
:1048900015F0F7EF11241FBECFEFD1E2DEBFCDBF81
:1048A00000E00CBF14E0A0E0B2E0ECE8F5E002E0CC
:1048B0000BBF02C007900D92A639B107D9F725E1C9
:1048C000A6E9B4E001C01D92A735B207E1F714E2F2
:1048D000C9E4D4E200E006C021970109802FFE015F
:1048E0000F942202C834D10780E00807A9F70E947C
:1048F00052F10D94B4020C9400002CEA35EC47E21E
:104900005EE360912A0B70912B0B80912C0B9091A0
:104910002D0B0E94C8FF609337027093380280937A
:10492000390290933A0208952CEA35EC47E25EE3AF
:1049300060912E0B70912F0B8091300B9091310B69
:104940000E94D2FA60933B0270933C0280933D0236
:1049500090933E0208955B982FB787FD63C0F8944B
:1049600090910B019F7790930B012FBF5B9A0000F2
:104970005B982FB786FD74C0F89490910B019F77D8
:1049800090930B012FBF5B9A00005B982FB785FDBA
:1049900062C0F89490910B019F7790930B012FBF09
:1049A0005B9A00005B982FB784FD50C0F8949091FB
:1049B0000B019F7790930B012FBF5B9A00005B98D0
:1049C0002FB783FD3EC0F89490910B019F77909391
:1049D0000B012FBF5B9A00005B982FB782FD2CC0A4
:1049E000F89490910B019F7790930B012FBF5B9AE6
:1049F00000005B989FB781FD1AC0F89480910B016D
:104A00008F7780930B019FBF5B9A00005B989FB7E5
:104A1000F89480910B018F7780930B019FBF5B9A75
:104A200000000895F89490910B0190689CCFF89441
:104A300080910B018068E5CFF89490910B0190680C
:104A4000D3CFF89490910B019068C1CFF8949091D6
:104A50000B019068AFCFF89490910B0190689DCFB7
:104A6000F89490910B0190688BCFF8948130910568
:104A700009F453C08230910509F478C0892B09F0FC
:104A800038C08091000182702FB7F89490910B018B
:104A90009D7F90930B012FBFA2982FB7662359F1EA
:104AA000F894909102019260909302012FBF169AA0
:104AB0002FB7F894909102019160909302012FBF5B
:104AC000179AEBE0F0E03197F1F72FB7F894909157
:104AD00002019E7F909302012FBF17989FB78823F2
:104AE00099F0F894809102018260809302019FBF47
:104AF000169A78940895F894909102019D7F90936E
:104B000002012FBF1698D4CFF894809102018D7FB7
:104B1000809302019FBF1698ECCF809109018470A9
:104B200089982FB7611118C0F89490910B01946087
:104B300090930B012FBF889AEBE0F0E03197F1F7EB
:104B400088989FB7882369F0F89480910B0184605E
:104B500080930B019FBFCDCFF89490910B019B7F69
:104B6000E7CFF89480910B018B7FF2CF8FB18470E7
:104B70002FB7F894909108019E7F909308012FBF62
:104B8000662359F08A9A8B9AEBE0F0E03197F1F7BF
:104B90008B98882321F08A9AACCF8A98F4CF8A9890
:104BA000A8CF880F991F880F991FFC01E356F64F75
:104BB0004081518162817381855C924FFC01408309
:104BC000518362837383E0919B09F0919C098289F0
:104BD0009389A489B5898093660A9093670AA09304
:104BE000680AB093690A0895EF92FF920F931F939A
:104BF000CF93DF93E0909B09F0909C09F7018281AD
:104C00009381A481B581181619061A061B06E4F4CF
:104C10008091380A91814091610A40FF79C09111D9
:104C200013C096B190FB80F98093380A9091370AAF
:104C30009170892349F08091470D81608093470DE1
:104C400090E080E00E94D125F70186819781A085C0
:104C5000B185181619061A061B0614F58091610A0B
:104C600081FF1EC08091380A96B192FB002700F99F
:104C700010E011950195110908270270112780276E
:104C80008093380A0091370A0270082349F0809116
:104C9000470D82608093470D81E090E00E94D1250E
:104CA000F70182859385A485B585181619061A061D
:104CB0001B061CF58091610A82FF1FC08091380A93
:104CC00096B192959170C92FF0E0DF2FD195C195E3
:104CD000D109C827C470DD278C278093380AC0917A
:104CE000370AC470C82349F08091470D84608093CF
:104CF000470D82E090E00E94D1258091380A809390
:104D0000370ADF91CF911F910F91FF90EF90089597
:104D1000992309F499CF96B191FB222720F930E02D
:104D200031952195310928272071332782278093D7
:104D3000380A9091370A90717CCFCF92DF92EF9230
:104D4000FF92CF93DF93EC01039731F46F3F11F49F
:104D50006091CC096093E40C0E942BD46B017C0120
:104D600024EA30E74DE75FE36091210B7091220B5D
:104D70008091230B9091240B0E946CFA87FD19C03F
:104D80008AEF90E0A0E0B0E08C0D9D1DAE1DBF1D30
:104D90008093E50C9093E60CA093E70CB093E80C9D
:104DA000C0937202DF91CF91FF90EF90DF90CF9090
:104DB000089580E090E0DC01E7CFCF93DF9300D04F
:104DC0001F92CDB7DEB7882349F00E9480E30F9091
:104DD0000F900F900F90DF91CF91089588EB91E0A5
:104DE0009C838B8384E190E09A838983BE016D5F0D
:104DF0007F4FCE0101960E9417CFE9CF9F92AF92CD
:104E0000BF92CF92DF92EF92FF920F931F93CF93B7
:104E1000DF935B01E9014A3009F4B0C0453109F084
:104E200063C0DB011296ED91FC91F280C681D781BF
:104E30005A9A88E290E00197F1F7EF2CE29420EF84
:104E4000E22230E1932E9F0C48E2C42ED12C0E9426
:104E50005DD0C6010197F1F7BFE1BF1508F47BC033
:104E60008F2D807780680E94AB248E2D0E94AB240A
:104E7000C6010197F1F70E94C7CF0E9412D0C60168
:104E80000197F1F70E947CCFC6010197F1F78E01DF
:104E9000005F1F4F8881807F0E94AB24899182959B
:104EA000807F0E94AB24C017D107A1F7C6010197EC
:104EB000F1F7F394E0E1EE0EF910C9CF5A98D5015D
:104EC0001296CD91DC91CE010E947BD7811147C112
:104ED000DF91CF911F910F91FF90EF90DF90CF90D6
:104EE000BF90AF909F900895FB01028113814233E0
:104EF00009F4F0C008F4F4C0463409F4E1C04734C2
:104F000009F4E4C04B3329F589812B81D80112962D
:104F10007C91129713963C91213009F437C12330CC
:104F200009F001C148EF480F582F91E0341708F4F9
:104F300090E031E0541708F030E0492F432B61E056
:104F4000571708F460E0462309F015C1932309F0D0
:104F500012C181E0BDCF80EE8F0D8068807F0E94FE
:104F6000AB248F2D8295807F0E94AB24C6010197D0
:104F7000F1F70E94C7CF0E94C7CF81CF529A5A98AB
:104F800080910A01806880930A019FB7F89480910C
:104F90000B018F7780930B019FBF539A5B9A5A9AAC
:104FA00088E290E00197F1F788E790E0CEE9DFE052
:104FB000FE013197F1F70197D9F70E945DD008E221
:104FC00010E0C8010197F1F70E9412D00E94C7CFEC
:104FD000C8010197F1F70E9412D080E10E94AB2432
:104FE000C8010197F1F7CE010197F1F7CE010197C2
:104FF000F1F7CE010197F1F7CE010197F1F7CE015C
:105000000197F1F7CE010197F1F7CE010197F1F782
:10501000CE010197F1F7CE010197F1F7CE0101978B
:10502000F1F7CE010197F1F7CE010197F1F7CE012B
:105030000197F1F7CE010197F1F72197F1F780E39E
:105040000E94AB2480EE0E94AB24C8010197F1F7C7
:10505000F12CD0E08D2F807780680E94AB248F2DBB
:105060000E94AB24C8010197F1F70E94C7CF0E94AC
:1050700012D0C8010197F1F70E947CCFC8010197B7
:10508000F1F7C0E20E9412D00E9412D0C80101972D
:10509000F1F7C150B9F70E945DD0C8010197F1F74F
:1050A000DF5F80E1F80ED032A9F60E9412D080ECCA
:1050B0000E94AB24C8010197F1F75A9881E008CF0C
:1050C000D80115968C91888381E002CFF801818107
:1050D0008883FACFB901C8010E9465D781E0F8CE74
:1050E000443171F0473109F034CF1882F8018281E0
:1050F0008983858181508A8383818B8381E0E8CE97
:10510000D80115964C91159750E0440F551F70E04B
:1051100060E016968D919C910F945702C8010E94F1
:1051200091D781E0D5CE381708F413CF871708F44C
:1051300010CFFA80E12CD12C243070F41DC0BE01B8
:10514000C8010E9465D7898198819D0D98838E0D35
:105150008983FF0C09F4FDCEF7FEF6CFF0CF4D8129
:1051600050E0440F551F70E060E08E819F810F94E6
:10517000570281E0ADCEFA8030E0F901E35EFC4FEA
:10518000D080275E3C4FF901E080E6CF58E0580F11
:10519000482FCBCEDF92EF92FF920F931F93CF93C6
:1051A000DF93EC01D62E1CAD0BAD7C0184E0E80E44
:1051B000F11CE98DFA8DC7011995412F480F2D2D4E
:1051C000602FC7010E940BDA9BAD890F8BAF81E086
:1051D00090E0DF91CF911F910F91FF90EF90DF90C2
:1051E00008954F925F926F927F92AF92BF92CF924B
:1051F000DF92EF92FF920F931F93CF93DF938C0177
:10520000EB01FC0147A050A461A472A4AFA0B8A414
:10521000C9A4DAA49501A601C301B2010E946CFAE7
:1052200087FF3EC0A3019201C301B2010E94D2FADE
:105230002B013C01F80163A974A985A996A990588E
:105240009B01AC010E94CEFEF80127A530A941A91F
:1052500052A90E94D2FA9B01AC01C301B2010E9483
:10526000CDFE0F947C017B018C019B01AC01B5014B
:10527000C6010E946CFA87FF02C075018601970182
:10528000A801B501C6010E946CFA882349F0C70144
:10529000D8018FA398A7A9A7BAA78881816088831E
:1052A000DF91CF911F910F91FF90EF90DF90CF9002
:1052B000BF90AF907F906F905F904F9008954F9206
:1052C0005F926F927F928F929F92AF92BF92CF9296
:1052D000DF92EF92FF92CF93DF93CDB7DEB76A975D
:1052E0000FB6F894DEBF0FBECDBF9A8F898F5B01DA
:1052F0004A01DC01D7966D917D918D919C91DA9751
:105300000E9471FA6B017C01F5012081318142819B
:1053100053810E94D2FA0E94ACFF0F9441003B01DE
:105320005C01D4012D913D914D915C91C701B60175
:105330000E94D2FA0E94ACFF0F9441006D827E82DF
:10534000AF82B8862D813E814F815885283731053F
:105350004105510540F428E730E040E050E02D835E
:105360003E834F83588769837A838B839C838981AB
:105370009A81AB81BC8188379105A105B10540F4C4
:1053800028E730E040E050E029833A834B835C8398
:10539000E98DFA8DED5BFF4F80819181A281B38110
:1053A0008D879E87AF87B88BBC01CD010E9473FAB1
:1053B00069877A878B879C876D817E818F819885AD
:1053C0000E9471FA698B7A8B8B8B9C8B20E030E08A
:1053D000A90169857A858B859C850E946CFA882352
:1053E00009F432C1A7019601C701B6010E94D2FAA1
:1053F0004B015C0129893A894B895C89CA01B90151
:105400000E94D2FA9B01AC01C501B4010E94CDFEFD
:105410004B015C0129853A854B855C85CA01B90140
:105420000E94CEFE9B01AC01C501B4010E94C8FFE1
:105430000E94ACFF0F943A002B013C016D857E85E4
:105440008F85988990958095709561957F4F8F4F46
:105450009F4F0E9473FA4B015C0169817A818B81B5
:105460009C810E9471FA6D877E878F87988B20E0E0
:1054700030E0A901C501B4010E946CFA882309F447
:10548000E7C02D853E854F855889CA01B9010E9424
:10549000D2FA6D8B7E8B8F8B988FA7019601C701F7
:1054A000B6010E94D2FA9B01AC016D897E898F8979
:1054B000988D0E94CDFE6B017C01A5019401C50170
:1054C000B4010E94CEFE9B01AC01C701B6010E944F
:1054D000C8FF0F947000A98DBA8D52968D909D9043
:1054E000AD90BC90559775016401C418D508E608C5
:1054F000F7080F943A00C61AD70AE80AF90AF7FE25
:1055000067C020E030E0A90169857A858B859C859C
:105510000E946CFA882309F49FC0C501B4010E945F
:1055200071FA6B017C0129853A854B855C85CA013E
:10553000B9010E94CEFE9B01AC01C701B6010E94D9
:10554000D2FA6B017C0129893A894B895C89CA01AD
:10555000B9010E94D2FA9B01AC01C701B6010E94B9
:10556000CDFE6B017C012D853E854F855889CA0192
:10557000B9010E94D2FA9B01AC01C701B6010E9499
:10558000CEFE6B017C0120E030E040E850E469850C
:105590007A858B859C850E94D2FA9B01AC01C7015C
:1055A000B6010E94C8FF0E94ACFF0F943A002B0185
:1055B0003C0177FE03C0412C512C320148145904A0
:1055C0006A047B0410F024013501C12CD12C760132
:1055D0008FB7F894E98DFA8D908193FD1FC0DF019C
:1055E000468A578A608E718EC40CD51CE61CF71C47
:1055F000C28ED38EE48EF58E2D813E814F815885EB
:1056000023AF34AF45AF56AFDF9629813A814B8146
:105610005C812D933D934D935C9313978FBF6A9656
:105620000FB6F894DEBF0FBECDBFDF91CF91FF90D4
:10563000EF90DF90CF90BF90AF909F908F907F9032
:105640006F905F904F90089560E070E0CB01F0CED6
:1056500060E070E0CB013DCF60E070E0CB01A3CF14
:105660008091FB0A8630D8F496E0899FF0011124DE
:10567000E952F54F209180023091810231832083DD
:105680004091490D50914A0D60914B0D70914C0D18
:1056900042835383648375838F5F8093FB0A0895ED
:1056A000CF92DF92EF92FF920F931F93CF93DF93EE
:1056B000EC016A017B0180918002909181028C173C
:1056C0009D0781F127E4CD38D207A9F58154924591
:1056D00071F40E942BD46E517B4F8F4F9F4F60937C
:1056E000D30A7093D40A8093D50A9093D60AD093A4
:1056F0008102C0938002C092490DD0924A0DE0927F
:105700004B0DF0924C0DC154D24521F41092ED0C8A
:105710001092FB0A82E08093880281E08093E30C80
:105720001092F30CDF91CF911F910F91FF90EF90AA
:10573000DF90CF90089522E5C134D207C1F68D588D
:10574000974419F0C1E4D2E5D2CF0E942BD4009146
:10575000D30A1091D40A2091D50A3091D60A601B41
:10576000710B820B930B97FFEDCFCDE1DCE2BFCF46
:1057700080E090E0A0E2B1E48093210B9093220BB3
:10578000A093230BB093240B40E050E0BA0180912A
:10579000260B9091270B0C94502B80E090E0A0E812
:1057A000BFE38093210B9093220BA093230BB09324
:1057B000240B40E050E0BA018091260B9091270B1A
:1057C0000C94502B8DEC9CECACECBDE38093210B46
:1057D0009093220BA093230BB093240B40E050E056
:1057E000BA018091260B9091270B0C94502B40E02E
:1057F00050E0BA0183E890E40E94502B1092190BFC
:1058000010921A0B10921B0B10921C0B81E08093CC
:10581000ED0C089540E050E0BA018DE790E40E945D
:10582000502B1092190B10921A0B10921B0B109206
:105830001C0B81E08093ED0C089540E050E0BA012C
:1058400087E790E40E94502B1092190B10921A0BCC
:1058500010921B0B10921C0B81E08093ED0C0895AD
:1058600040E050E0BA0181E492E50C94502BE091C5
:10587000FB0AEE2389F0E150E093FB0A86E0E89F03
:10588000F0011124E952F54F428153816481758101
:10589000808191810C94502B0C94302CFF920F93AB
:1058A0001F93CF93DF931092F20C8091490D90914A
:1058B0004A0DA0914B0DB0914C0D81309048A1053F
:1058C000B10540F01092490D10924A0D10924B0D07
:1058D00010924C0D6091490D70914A0D80914B0DC5
:1058E00090914C0D25E030E040E050E00E9491FEA8
:1058F000C22F8091280B1816F4F4482F082E000CA4
:10590000550B41505109022E000C330B241735075B
:1059100094F0CFEFC80F25E0C29FC0011124092EDB
:10592000000CAA0BBB0B8093490D90934A0DA093DA
:105930004B0DB0934C0D1092E30C8091E20CC81704
:1059400014F4C093E20C8091E20C082E000C990B29
:1059500004962C2F0C2E000C330B8217930724F483
:105960008CEF8C0F8093E20CD091E20C1D2F05E0A0
:105970000D0FFD2EF194D1111FC080918802882354
:1059800049F081E0C11180E024E046EF5BE16F2D3A
:105990000E94AFE38091F40C882339F1C11125C036
:1059A0000E94372C8091E30C8823F9F0DF91CF918E
:1059B0001F910F91FF900895D130F1F480918802EA
:1059C000882359F06D2F611B81E0C13009F080E020
:1059D00023E04EEE5BE10E94AFE38091F40C88235C
:1059E00021F08DEC9FE2C13009F1DF5F0D13C3CFD1
:1059F00087E08093280BDACFD23009F066C080911F
:105A00008802882359F06D2F611B81E0C23009F0B4
:105A100080E023E046EE5BE10E94AFE38091F40C6E
:105A2000882319F383ED9FE2C230F9F60E9444E720
:105A3000B9CF80918802882359F06D2F611B81E0D6
:105A4000C33009F080E023E04EED5BE10E94AFE35C
:105A50008091F40C882349F289ED9FE2C33029F646
:105A6000E5CF80918802882359F06D2F611B81E07A
:105A7000C43009F080E023E045ED5BE10E94AFE334
:105A80008091F40C882309F4B0CF8FED9FE2C430ED
:105A900009F0ABCFCBCF80918802882359F06D2FCE
:105AA000611B81E0C53009F080E023E04BEC5BE155
:105AB0000E94AFE38091F40C882309F496CF85EE21
:105AC0009FE2C53009F091CFB1CFD33009F4B1CF07
:105AD000D43039F2D530F9F2D63009F086CF809142
