:100000000C943F240C9470240C9470240C94702451
:100010000C9470240C9470240C9470240C94702410
:100020000C9470240C9470240C9470240C94702400
:100030000C9470240C94BBD60C9470240C947024F3
:100040000C9470240C9416580C9470240C94702406
:100050000C9470240C9470240C94B6490C9471D6B2
:100060000C9470240C94B8A90C9470240C947024F3
:100070000C9470240C9470240C9470240C947024B0
:100080000C9470240C9470240C9470240C947024A0
:100090000C9470240C9470240C9470240C94702490
:1000A0000C9470240C9470240C9470240C94702480
:1000B0000C9470240C9470240C9470240C94702470
:1000C0000C9470240C9470240C9470240C94702460
:1000D0000C9470240C9470240C9470240C94702450
:1000E0000C947024084AD73B3BCE016E84BCBFFD04
:1000F000C12F3D6C74319ABD56833DDA3D00C77FF8
:1001000011BED9E4BB4C3E916BAAAABE0000008090
:100110003F05A84CCDB2D44EB93836A9020C50B91F
:10012000918688083CA6AAAA2ABE000000803F004B
:100130000C9438C60C941BD40C94C22F0C941E3B08
:100140000C9410CB0C94D9DB0C94CE2F0C941AC6C3
:100150000C94DAD30C945ADE0C9455450C94ACD321
:100160000C9450E30C940AF00C9446C60C9489D37A
:100170000C9472240C948ED30C948DC90C9420C6CC
:100180000C946C400C9440C60C945E890C941C7DBD
:100190000C94FA4A0C9413D10C9478400C943CC6FD
:1001A0000C9413800C9489240C944B600C9481D390
:1001B0000C9459320C942AC60C9436420C9424C6E2
:1001C0000C94E02F0C9487370C9445C60C94C82FE0
:1001D0000C944A4A0C94D74A0C94D0D30C94F3262E
:1001E0000C94D23F0C9432C60C94484D0C9411D40C
:1001F0000C94D83F0C94432C0C94A6C60C9441E16B
:100200000C943C610C942EC60C94E78D0C940ADF80
:100210000C9413C60C94AEDD0C94454D0C94B8DDD3
:100220000C94B2430C94DE3F0C947C300C942BCA9B
:100230000C94D42F0C94ECEF0C94E6C50C94EB4A80
:100240000C9440E20C94C6ED0C949A7A0C940BC674
:100250000C94DA2F0C949D3E0C94BF280C9407D478
:100260000C94FA410C9436520C9498D30C940FC60B
:100270000C9446E30C94A33E0C9482470C94FDD35B
:100280000C94E64A0C942BC70C94D72B0C94A2D355
:100290000C941F7D0C9472400C94FF4A0C94EC2B30
:1002A0000C94F3D30C9417C60C94A03E0C94E9D391
:1002B0000C94122C0C94B4D30C9446E70C94C22BDF
:1002C0000C94C6D30C944AC60C9412800C94AD2B9B
:1002D0000C94D3C80C94FF2B0C94CDC50C94CB4A32
:1002E0000C94BCD30C9405C60C94D07D4E414E4961
:1002F0004E495459494E46CDCCCC3D0AD7233C17E4
:10030000B7D13877CC2B329595E6241FB14F0A0030
:100310000020410000C84200401C4620BCBE4CCA20
:100320001B0E5AAEC59D741000C90210012C01406D
:1003300001220170011801B0010E01F00104015009
:1003400002FA00B002F0003003E600D003DC0090B7
:1003500004D2007005C800A006BE000008B400B0BA
:1003600009AA00D00BA000600E960060118C00005E
:1003700015820020197800C01D6E00A0226400B014
:10038000275A00902C500000314600E0343C001009
:10039000383200903A2800603C1E00A03D140080D6
:1003A0003E0A00203F0000206279746573290A002C
:1003B00053657474696E67732053746F726564203B
:1003C0002800454550524F4D20636865636B737537
:1003D0006D206D69736D617463680A0020627974C1
:1003E0006573290A002073746F72656420736574E5
:1003F00074696E67732072657472696576656420CE
:100400002800204D61726C696E3D563337290A0011
:1004100028454550524F4D3D00454550524F4D20C7
:1004200076657273696F6E206D69736D6174636850
:10043000200048617264636F64656420446566618E
:10044000756C742053657474696E6773204C6F61AA
:100450006465640A0020440020490020204D3330A8
:100460003120500020440020490020500020204D21
:100470003330312045005049442073657474696EEF
:1004800067733A0A002046002042002048002020DE
:100490004D3134352053004D6174657269616C20B3
:1004A00068656174757020706172616D65746572E4
:1004B000733A0A00205A0020590020580020204D8D
:1004C000323138205400486F74656E64206F666660
:1004D000736574733A0A00205A0020590020204D99
:1004E000323036205800486F6D65206F6666736540
:1004F000743A0A00204500205A0020590020580074
:1005000020420020540020204D323035205300413D
:100510006476616E6365643A20533C6D696E5F6614
:10052000656564726174653E20543C6D696E5F74EC
:10053000726176656C5F66656564726174653E20A4
:10054000423C6D696E5F7365676D656E745F74695B
:100550006D655F6D733E20583C6D61785F78795FA3
:100560006A65726B3E205A3C6D61785F7A5F6A659E
:10057000726B3E20453C6D61785F655F6A65726BAA
:100580003E0A0020540020520020204D32303420FA
:100590005000416363656C65726174696F6E2028F9
:1005A000756E6974732F7332293A20503C707269EA
:1005B0006E745F616363656C3E20523C7265747259
:1005C0006163745F616363656C3E20543C74726167
:1005D00076656C5F616363656C3E0A0020450020B0
:1005E0005A0020590020204D3230312058004D61F2
:1005F00078696D756D20416363656C6572617469BE
:100600006F6E2028756E6974732F7332293A0A0051
:10061000204500205A0020590020204D3230332040
:1006200058004D6178696D756D206665656472610D
:100630007465732028756E6974732F73293A0A00E4
:10064000204500205A0020590020204D39322058E2
:100650000053746570732070657220756E69743A0A
:100660000A0020204D3230302044300A0020204D36
:1006700032303020543120440020204D32303020A0
:1006800044002044697361626C65640A0046696CC9
:10069000616D656E742073657474696E67733A007A
:1006A00020204D3134392043203B20556E6974732E
:1006B00020696E2043656C736975730A0A002020F7
:1006C000473231203B20556E69747320696E206D6E
:1006D0006D0A0A0020746F6F206C6F6E672065785A
:1006E00074727573696F6E2070726576656E74656D
:1006F000640A0020636F6C64206578747275736996
:100700006F6E2070726576656E7465640A0024F4FD
:10071000D43050C38E20C2A24017828B7011127A3F
:10072000910D816CD90AA861E108C758660761512B
:1007300043061E4B5D05C145A7041A411104093D3E
:100740009803713931034036DB0265339102D430AE
:100750005402802E1D02632CEE01752AC501B028BB
:10076000A001102781018F2564012B244B01E02279
:100770003401AC211F018D200D01801FFC00841E5F
:10078000ED00971DDF00B81CD200E61BC600201B41
:10079000BC00641AB200B219A8000A19A0006A18B5
:1007A0009900D117910040178B00B51684003116BF
:1007B0007E00B31579003A157300C7146F00581402
:1007C0006A00EE1366008813630025135E00C712EB
:1007D0005B006C12570015125400C11151007011CA
:1007E0004F0021114B00D61049008D1047004610D4
:1007F000440002104200C00F4000800F3E00420F34
:100800003C00060F3B00CB0E3800930E37005C0E09
:100810003500270E3400F30D3200C10D3100900D6C
:100820003000600D2E00320D2D00050D2C00D90C6E
:100830002B00AE0C2900850C29005C0C2700350C20
:1008400027000E0C2600E80B2400C40B2400A00B8C
:1008500023007D0B23005A0B2100390B2100180BBC
:100860002000F80A1F00D90A1E00BB0A1E009D0ABC
:100870001D00800A1D00630A1C00470A1B002C0A89
:100880001B00110A1A00F7091A00DD091900C40932
:100890001900AB091900920917007B0918006309B8
:1008A00017004C09160036091600200916000A091F
:1008B0001500F5081500E0081400CC081400B8086D
:1008C0001400A4081400900813007D0812006B089F
:1008D00013005808120046081200340811002308BB
:1008E00011001208110001081100F0071000E007C4
:1008F0001000D0071000C0071000B0070F00A107BC
:10090000100091070E0083070F0074070F006507A2
:100910000E0057070E0049070E003B070D002E077B
:100920000E0020070D0013070D0006070D00F90645
:100930000C00ED060D00E0060C00D4060C00C80605
:100940000C00BC060C00B0060C00A4060B009906B7
:100950000C008D060B0082060B0077060B006C0660
:100960000B0061060A0057060B004C060A004206FF
:100970000A0038060A002E060A0024060A001A0693
:100980000A001006090007060A00FD050900F40523
:100990000900EB050900E2050900D9050900D005A9
:1009A0000900C7050900BE050900B5050800AD0529
:1009B0000800A50509009C050800940508008C05A1
:1009C0000800840508007C050800740508006C0513
:1009D0000700650508005D050700560508004E057F
:1009E00007004705070040050800380507003105E6
:1009F00007002A050700230507001C050600160549
:100A000007000F0507000805060002050700FB04A4
:100A10000600F5040700EE040600E8040600E20400
:100A20000700DB040600D5040600CF040600C90455
:100A30000600C3040600BD040600B7040600B104A6
:100A40000500AC040600A6040600A00405009B04F3
:100A5000060095040500900406008A04050085043C
:100A60000500800406007A04050075040500700482
:100A700005006B04050066040500610405005C04C4
:100A8000050057040500520405004D040500480404
:100A90000500430405003E0404003A040500350443
:100AA0000500300404002C0405002704040023047E
:100AB00005001E0404001A040400160405001104B5
:100AC00004000D04040009040500040404000004EB
:100AD0000400FC030400F8030400F4030400F00322
:100AE0000400EC030400E8030400E4030400E00352
:100AF0000400DC030400D8030400D4030400D00382
:100B00000400CC030400C8030300C503030024F45D
:100B100004D9201BC40C5C0E9804C4095F0265074D
:100B20007101F405F900FB04B30048048700C10318
:100B300069005803550003034500BE023A008402D1
:100B4000310053022A002902250004022000E4019A
:100B50001C00C8011900AF0117009801140084019E
:100B60001300710110006101100051010E004301DA
:100B70000D0036010B002B010B0020010B001501AD
:100B800009000C01090003010800FB000800F30044
:100B90000800EB000700E4000600DE000600D800B5
:100BA0000600D2000600CC000500C7000500C20008
:100BB0000500BD000400B9000400B5000400B10048
:100BC0000400AD000400A9000400A5000300A20079
:100BD00003009F0004009B000300980003009500A1
:100BE000020093000300900003008D0002008B00C0
:100BF00003008800020086000200840003008100D8
:100C000002007F0002007D0002007B0002007900EC
:100C100002007700010076000200740002007200FA
:100C20000100710002006F0002006D0001006C0005
:100C300002006A000100690002006700010066000E
:100C40000100650001006400020062000100610013
:100C50000100600001005F0002005D0001005C0017
:100C600001005B0001005A0001005900010058001A
:100C7000010057000100560001005500010054001A
:100C80000100530000005300010052000100510018
:100C90000100500001004F0001004E0000004E0016
:100CA00001004D0001004C0001004B0000004B0012
:100CB00001004A000100490001004800000048000E
:100CC0000100470001004600000046000100450009
:100CD0000000450001004400010043000000430003
:100CE00001004200000042000100410000004100FC
:100CF0000100400001003F0000003F0001003E00F5
:100D000000003E0001003D0000003D0001003C00ED
:100D100000003C0000003C0001003B0000003B00E4
:100D200001003A0000003A000100390000003900DB
:100D300001003800000038000000380001003700D2
:100D400000003700010036000000360000003600C9
:100D500001003500000035000000350001003400BE
:100D600000003400000034000100330000003300B4
:100D700000003300010032000000320000003200A9
:100D8000010031000000310000003100010030009E
:100D9000000030000000300001002F0000002F0094
:100DA00000002F0000002F0001002E0000002E0088
:100DB00000002E0001002D0000002D0000002D007D
:100DC00000002D0001002C0000002C0000002C0071
:100DD00000002C0001002B0000002B0000002B0065
:100DE00000002B0001002A0000002A0000002A0059
:100DF00000002A000100290000002900000029004D
:100E0000000029000000290001002800000028003F
:100E10000000280000002800000028000100270032
:100E20000000270000002700000027000000270026
:100E30000100260000002600000026000000260019
:100E4000000026000100250000002500000025000C
:100E500000002500000025000000250001002400FE
:100E600000002400000024000000240000002400F2
:100E700001002300000023000000230000002300E5
:100E800000002300000023000000230001002200D6
:100E900000002200000022000000220000002200CA
:100EA00000002200010021000000210000002100BC
:100EB00000002100000021000000210000002100AE
:100EC00001002000000020000000200000002000A1
:100ED0000000200000002000000020000000200092
:100EE00001001F0000001F0000001F0000001F0085
:100EF00000001F0000001F0000001F0001001E0076
:100F000000001E0000001E0000001E0000006265C0
:100F1000640A002C2073797374656D2073746F708C
:100F200070656421204865617465725F49443A20A8
:100F3000004572726F723A20616C2063616C656E5D
:100F40007461720048656174696E67206661696CDE
:100F50006564004572726F723A20616C2063616C47
:100F6000656E7461720048656174696E67206661C0
:100F7000696C65640070012C0190012701B00122A9
:100F800001C0011D01F00118011002130130020E11
:100F9000016002090190020401C002FF000003FA8F
:100FA000004003F5008003F000D003EB002004E6CE
:100FB000007004E100E004DC004005D700C005D269
:100FC000004006CD00D006C8008007C3003008BE30
:100FD00000F008B900C009B400B00AAF00B00BAA15
:100FE00000D00CA500000EA000500F9B00C0109672
:100FF000005012910000148C00C0158700B01782B9
:1010000000B0197D00D01B7800001E730040206ED8
:101010000090226900F024640040275F0090295A64
:1010200000E02B5500102E500020304B00103246AF
:1010300000E033410090353C001037370070383203
:1010400000A0392D00B03A2800A03B2300603C1ED0
:1010500000103D1900903D1400103E0F00703E0A34
:1010600000C03E0500003F0000403FFBFF803FF610
:10107000FFC03FF1FF4572726F7220646520746596
:101080006D706572617475726100546865726D612E
:101090006C2052756E61776179004572726F723A99
:1010A0002054656D70204D696E20506C6174004550
:1010B00072726F723A2054656D70204D696E696D61
:1010C00061004D494E54454D502074726967676503
:1010D000726564004572726F723A2054656D7020BB
:1010E0004D617820506C6174004572726F723A20C5
:1010F00054656D70204D6178696D61004D415854A3
:10110000454D5020747269676765726564001FFF02
:10111000FFFFFFFFFF600000000001FF4000000034
:101120000000FF8000000000007F83CF00000C3033
:101130003F87FF80000C301F867980000C000F8CE9
:1011400030C7838C30E78C30CFC7CC31F38C30DCA8
:10115000ECEC33B98C30D86C6C33198C30D06C0C0F
:1011600033198C30D86C0C33198C30DC6C0E3B1975
:101170008C30CF7C079F198C30C77C038F194000BF
:101180000000000002600000000000061FFFFFFFDB
:10119000FFFFF80000000000000000000000000059
:1011A000000000000000000000000000000000003F
:1011B000000000000000000000000000000000002F
:1011C000000000000000000000000000000000001F
:1011D000000000000000000000000000000000000F
:1011E00000000000000000000000000000000000FF
:1011F00000000000000000000000000000000000EF
:1012000000000000000000000000000000000000DE
:1012100000000007F00000000000000000000000D7
:10122000000FE007F00FF00E07FE00381C00700FF3
:10123000F00FE007F03FFC0E07FF80381C00703F06
:10124000FC0FE007007FFC0E07FFC0381C00707F1A
:10125000FC00E00700780C0E0703C0381C00707813
:101260000C00E00700F0000E0701E0381C0070F0F1
:101270000000E00700E0000E0700E0381C0070E00E
:101280000000E00700E0000E0700E0381C0070E0FE
:101290000000E00700E0000E0700E0381C0070E0EE
:1012A0000000E00700F8000E0701E0381C0070F8AD
:1012B0000000E007007F800E0703C0381C00707F2D
:1012C0008000E007003FF00E07FF80381C00703FF1
:1012D000F000E007000FF80E07FF00381C00700F49
:1012E000F800E0070000FC0E07FF00381C0070004B
:1012F000FC00E00700001E0E070780381C0070008D
:101300001E00E00700000E0E0703C0381C0070002E
:101310000E00E00700000E0E0701E0381C00700010
:101320000E00E00700000E0E0700E0381E00F0007F
:101330000E00E00700001E0E0700F0380E00E0006F
:101340001E00E00700C03C0E070070380F83E0C0AD
:101350003C00E00700FFFC0E0700783807FFC0FFE5
:10136000FC00E00700FFF80E0700383803FF80FF9D
:10137000F800E007003FE00E07003C3800FE003FA9
:10138000E000E00700000000000000000000000096
:101390000000E007F0000000000000000000000076
:1013A000000FE007F0000000000000000000000057
:1013B000000FE007F0000000000000000000000047
:1013C000000FE0000000000000000000000000002E
:1013D000000000000000000000000000000000000D
:1013E00000000000000000000000000000000000FD
:1013F000000000001F80000000000000000000004E
:10140000000000007FE0000000000000000000007D
:1014100000000000FFF000000000000000000000DD
:1014200000000001FFF800000000000000000000C4
:1014300000000001FFF800000000000000000000B4
:1014400000000003C03C000000000000000000009D
:1014500000000003000C000000000000000000007D
:10146000000000060006000000000000040000006C
:101470000000000400020000000000000400000062
:101480000000000C00030000000000000400000049
:101490000000001C0003849494916E38E79144E0AE
:1014A000E72DC01E000785D5D5D111451451450142
:1014B00008A2201E0007877777711145F44A44C1BE
:1014C00008A2201E0007822222211145044A44213D
:1014D00008A2201F000F822222291138F78435C864
:1014E000E722201F000F8000000000000004000021
:1014F0000000001F801F8000000000000018000096
:101500000000000FC03F00000000000000000000CD
:101510000000000FE07F000000000000000000005D
:1015200000000007F0FE00000000000000000000C6
:1015300000000001F9F800000000000000000000B9
:10154000000000007BE00000000000000000000040
:10155000000000000000000000000000000000008B
:10156000000000000000000000000000000000007B
:10157000000000000000000000000000000000006B
:10158000000000000000000000000000000000005B
:1015900000000025753A2530327500253032753A45
:1015A000253032750025756420253032753A253096
:1015B0003275005A00590058000920000000000050
:1015C00000000000000000007FFFE00000000000BD
:1015D000000000000000007000E0000000000000BB
:1015E00000000000000061F8600000000000000042
:1015F000000000000041F820000000000000000092
:101600000000000040F0200000000000000000008A
:10161000000000406020000000000000000000000A
:1016200000005801A07F80003FC00000000041047E
:10163000005C63A0FBC00079E00000000020820095
:101640005EF7A0F3C00076E0000000002082005E9C
:10165000F7A0EBC0007EE0000000004104005C63E6
:10166000A07B80003DC0000000008208005801A05F
:101670007B80003BC000000001041000406020FBA4
:10168000C00077E00000000104100040F020FBC023
:101690000070E00000000082080041F820FFC00058
:1016A0007FE00000000041040061F8603F00001F7F
:1016B00080000000000000007000E01E00000F002D
:1016C00000000001FFFF807FFFE00C00000600002B
:1016D000000001FFFF80000000000000000000008B
:1016E00000000000007FFFE000000000000000009C
:1016F000000000007000E00000000000000000009A
:10170000000000630C60000000000000000000000A
:101710000000470E20000000000000000000000054
:10172000004F0F200000000000000000000000003B
:101730005F0FA00000000000000000000000005E3D
:1017400007A07F80003FC00000000041040040600F
:1017500020FBC00079E00000000020820040F02063
:10176000F3C00076E00000000020820040F020EB93
:10177000C0007EE0000000004104004060207B804B
:10178000003DC0000000008208005E07A07B8000D2
:101790003BC0000000010410005F0FA0FBC00077F9
:1017A000E0000000010410004F0F20FBC00070E0BB
:1017B00000000000820800470E20FFC0007FE0000C
:1017C000000000410400630C603F00001F80000027
:1017D00000000000007000E01E00000F000000008C
:1017E00001FFFF807FFFE00C000006000000000109
:1017F000FFFF80000000496D70726573696F6E2095
:1018000063616E63656C61646100496E662E204998
:101810006D707265736F7261004E6F206861792020
:101820007461726A657461205344004D656E752061
:10183000646520534400446574656E657220696D6B
:1018400070726573696F6E005265616E7564617266
:1018500020696D70726573696F6E00506175736198
:101860007220696D70726573696F6E00436F6E747C
:10187000726F6C00507265706172617200416A75BE
:101880007374617200496E666F726D6163696F6E29
:1018900000426162797374657070696E67205800E8
:1018A000426162797374657070696E672059004295
:1018B0006162797374657070696E67205A004D6952
:1018C00063726F7061736F205A004D6963726F703D
:1018D00061736F2059004D6963726F7061736F207F
:1018E0005800466C756A6F203200466C756A6F202E
:1018F0003200466C756A6F203100466C756A6F2045
:101900003100466C756A6F00466C756A6F005665EB
:101910006E74696C61646F720056656E74696C6197
:10192000646F7200506C617461666F726D6100501B
:101930006C617461666F726D6100426F7175696C84
:101940006C61203200426F7175696C6C61203200ED
:10195000426F7175696C6C61203100426F717569FD
:101960006C6C6120310056656C6F63696461640062
:1019700056656C6F6369646164004D656E752070B7
:1019800072696E636970616C0050726563616C6549
:101990006E74617220504C41506C617461666F725C
:1019A0006D610050726563616C656E746172205088
:1019B0004C41546F646F0050726563616C656E7466
:1019C000617220504C4120456E64204532005072B7
:1019D0006563616C656E74617220504C4120320009
:1019E00050726563616C656E74617220504C412069
:1019F000456E642045310050726563616C656E749C
:101A0000617220504C4120310050726570617261EA
:101A1000720050726563616C656E74617220414240
:101A200053506C617461666F726D610050726563D2
:101A3000616C656E74617220414253546F646F0033
:101A400050726563616C656E74617220414253200F
:101A5000456E642045320050726563616C656E743A
:101A600061722041425320320050726563616C659F
:101A70006E7461722041425320456E6420453100EE
:101A800050726563616C656E7461722041425320CF
:101A900031005072657061726172004D34323800ED
:101AA00050726563616C656E7461722041425300CF
:101AB00050726563616C656E74617220504C4100B8
:101AC000456E6672696172004D383400417061671D
:101AD0006172206D6F746F72657300416A75737403
:101AE00061722064657366617365730047323820E4
:101AF0005A004F726967656E205A00473238205984
:101B0000004F726967656E205900473238205800CF
:101B10004F726967656E205800473238004C6C651B
:101B200076617220616C206F726967656E004D6F1F
:101B300076657220656A6573004D656E75207072FA
:101B4000696E636970616C004D6F76657220580034
:101B50004D6F7665722059004D6F766572205A0080
:101B60004578747275736F7232004578747275734C
:101B70006F7231004D6F76657220302E316D6D00C1
:101B80004D6F76657220316D6D004D6F76657220F8
:101B900031306D6D004D6F76657220656A6573003A
:101BA0004578747275736F72004D6F766572205A46
:101BB000004D6F7665722059004D6F766572205822
:101BC000004578747275736F72320045787472755F
:101BD000736F7231004578747275736F72004D6F58
:101BE000766572205A004D6F7665722059004D6FF0
:101BF0007665722058005072657061726172005291
:101C00006573746175726172206D656D6F72696163
:101C100000436172676172206D656D6F726961006A
:101C200047756172646172206D656D6F72696100E4
:101C300046696C616D656E746F004D6F76696D6994
:101C4000656E746F0054656D706572617475726154
:101C5000004D656E75207072696E636970616C000D
:101C600050726563616C656E7461722041425343CA
:101C70006F6E6669670050726563616C656E746152
:101C80007220504C41436F6E666967005049442D85
:101C900044005049442D44005049442D49005049C6
:101CA000442D49005049442D50005049442D5000C6
:101CB0002008204661637400200820466163740098
:101CC0002008204D6178002008204D617800200810
:101CD000204D696E002008204D696E0041706167DB
:101CE000617200456E63656E6465720054656D7067
:101CF00065726174757261204175746F2E0056654E
:101D00006E74696C61646F720056656E74696C61A3
:101D1000646F7200506C617461666F726D61005027
:101D20006C617461666F726D6100426F7175696C90
:101D30006C61203200426F7175696C6C61203200F9
:101D4000426F7175696C6C61203100426F71756909
:101D50006C6C61203100436F6E74726F6C0047755C
:101D60006172646172206D656D6F72696100506CA3
:101D7000617461666F726D6100506C617461666F51
:101D8000726D6100426F7175696C6C6100426F71B8
:101D900075696C6C610056656E74696C61646F7214
:101DA0000056656E74696C61646F720054656D7085
:101DB000657261747572610045207061736F732F75
:101DC0006D6D0045207061736F732F6D6D005A202B
:101DD0007061736F732F6D6D005A207061736F7334
:101DE0002F6D6D0059207061736F732F6D6D0059E9
:101DF000207061736F732F6D6D0058207061736F69
:101E0000732F6D6D0058207061736F732F6D6D00AF
:101E10004163656C2E205669616A65004163656C9B
:101E20002E205669616A65004163656C2E207265DB
:101E3000747261632E004163656C2E20726574724A
:101E400061632E004163656C2E206D617845004111
:101E500063656C2E206D617845004163656C2E20B2
:101E60006D61785A004163656C2E206D61785A006F
:101E70004163656C2E206D617859004163656C2E5D
:101E8000206D617859004163656C2E206D61785832
:101E9000004163656C2E206D6178580056656C2E8C
:101EA000207669616A65206D696E0056656C2E202A
:101EB0007669616A65206D696E00566D696E0056BF
:101EC0006D696E00566D61784500566D617845000C
:101ED000566D61785A00566D61785A00566D61787A
:101EE0005900566D61785900566D61785800566DED
:101EF0006178580056652D6A65726B0056652D6ACB
:101F000065726B00567A2D6A65726B00567A2D6A7F
:101F100065726B0056792D6A65726B0056792D6A71
:101F200065726B0056782D6A65726B0056782D6A63
:101F300065726B004163656C65726163696F6E0009
:101F40004163656C65726163696F6E00436F6E74A7
:101F5000726F6C0046696C2E204469612E2032003D
:101F600046696C2E204469612E20320046696C2E31
:101F7000204469612E20310046696C2E204469613D
:101F80002E20310041706167617200456E63656E9D
:101F9000646572004520696E206D6D3300436F6E7D
:101FA00074726F6C0000091200FC0A01E803D7206C
:101FB000FFFD0EFD0BFD00000009000E010B0B09DB
:101FC0000400808080808080800000808004040481
:101FD00009030790909090080A0A0900002424241D
:101FE000FF2424FF242424070B0B0901FF107C92FB
:101FF0009050381412927C10070A0A09010042A47A
:10200000A4481010244A4A84070A0A090100609073
:1020100090906062948894620104040904078080AF
:102020008080030C0C0903FF20404080808080806A
:1020300080404020030C0C0903FF804040202020FA
:1020400020202040408007070709010310925438E0
:10205000549210070707090101101010FE1010100C
:102060000204040904FEC0C0408007010109010404
:10207000FE020202090400C0C0070A0A09010002A8
:10208000040408101020404080070A0A09010038A3
:10209000448282828282824438070A0A090100103F
:1020A0003050901010101010FE070A0A0901003875
:1020B0004482020408102040FE070A0A090100FEBB
:1020C000020408180402028478070A0A09010004BD
:1020D0000C14244484FE040404070A0A090100FEC7
:1020E000808080F80402028478070A0A0901003C13
:1020F000408080B8C482824438070A0A090100FE81
:10210000020404080810101010070A0A0901003818
:10211000448244384482824438070A0A090100385C
:10212000448282463A02020478020707090400C08A
:10213000C0000000C0C00209090904FEC0C00000C0
:1021400000C0C04080050909090200081020408035
:1021500040201008070404090102FE0000FE0509E2
:1021600009090200804020100810204080070A0A58
:1021700009010038448202040810100010070A0AFE
:1021800009010038449AAAAAAAAA9C403C070A0A54
:1021900009010010282828447C44828282070A0A08
:1021A000090100F8848284F884828284F8070A0A8C
:1021B0000901003C42808080808080423C070A0AFE
:1021C000090100F88482828282828284F8070A0AE6
:1021D000090100FE808080F880808080FE070A0A66
:1021E000090100FE808080F88080808080070A0AD4
:1021F00009010038448280808E82824438070A0AAE
:1022000009010082828282FE8282828282050A0A1B
:10221000090200F82020202020202020F8070A0AA8
:102220000901003E080808080808888870070A0A9B
:1022300009010082848890A0D088848282070A0ADB
:10224000090100808080808080808080FE070A0AEB
:102250000901008282C6AA928282828282070A0AC9
:102260000901008282C2A2928A86828282070A0AB9
:102270000901007C82828282828282827C070A0A31
:10228000090100F884828284F880808080080B0B2A
:102290000901FF384482828282828A443A01070A15
:1022A0000A090100F884828284F890888482070AEF
:1022B0000A0901007C8280807C020202827C070A7B
:1022C0000A090100FE101010101010101010070A5B
:1022D0000A09010082828282828282824438070A4D
:1022E0000A09010082828244444428282810070AEF
:1022F0000A0901008282828292929292AA44070A7B
:102300000A09010082824428101028448282070AA8
:102310000A09010082824428101010101010070AC8
:102320000A090100FE0204081020408080FE040C0F
:102330000C0903FFF080808080808080808080F0A6
:10234000070A0A0901008040402010100804040216
:10235000040C0C0902FFF0101010101010101010D7
:1023600010F007040409010610284482080101093D
:1023700000FFFF03030309030A8040200707070942
:1023800001007C02027E82867A070A0A0901008027
:102390008080BCC2828282C2BC0707070901007C20
:1023A00082808080827C070A0A0901000202027A88
:1023B00086828282867A0707070901007C8282FE74
:1023C00080827C070A0A0901001C22222020F820B2
:1023D000202020070A0A0901FD7A84848478807C01
:1023E00082827C070A0A090100808080BCC2828246
:1023F000828282050A0A090200600000E020202093
:102400002020F8050D0D0902FD1800003808080805
:10241000080808888870070A0A09010080808084FB
:102420008890B0C88482050A0A090200E0202020B2
:102430002020202020F8070707090100EC92929243
:10244000929282070707090100BCC28282828282BF
:102450000707070901007C82828282827C070A0AC0
:102460000901FDB8C4828282C4B8808080070A0A4C
:102470000901FD3A46828282463A020202070707B4
:102480000901009C624240404040070707090100E3
:102490007C82807C02827C0709090901002020FCE3
:1024A00020202020221C0707070901008282828247
:1024B00082867A070707090100828244442828108F
:1024C0000707070901008282929292AA4407070730
:1024D00009010082442810284482070A0A0901FDE4
:1024E00042422424241818109060070707090100AD
:1024F000FE0408102040FE060B0B0902001C2020E1
:102500002020C0202020201C010C0C0904FF80800A
:1025100080808080808080808080060B0B09010095
:10252000E0101010100C10101010E0070303090148
:102530000762928CFFFFFFFFFFFFFFFFFFFFFFFF20
:10254000FFFFFFFFFFFFFFFFFFFFFFFFFFFFFFFF9B
:10255000FFFFFFFFFF00000009000E010B0B090445
:1025600000808000008080808080808006080809CC
:10257000010008789490A0A47840070A0A09010095
:102580001C222020F8202060A25C07060609010317
:10259000827C44447C82070A0A0901008282442822
:1025A0007C107C101010010B0B0904FF80808080D0
:1025B00080008080808080040B0B0902FF60908087
:1025C000609090906010906003020209030BA0A03D
:1025D0000809090900013C4299A5A1A599423C05B9
:1025E0000707090103609070907800F80708080950
:1025F00001011224489090482412060404090102A3
:10260000FC040404050101090204F8080909090091
:10261000013C42B9A5BDA9A5423C06010109010939
:10262000FC0404040903066090906007090909018D
:1026300001101010FE10101000FE0406060901041F
:102640006090106080F0040606090104609020107C
:10265000906003030309030A204080070909090168
:10266000FE8282828282C6BA8080070A0A0901003D
:102670007E8A8A8A7A0A0A0A0A0A0202020904047B
:10268000C0C00403030902FD20906003060609018F
:102690000440C0404040E0050606090104708888F7
:1026A0007000F80708080901019048241212244814
:1026B00090070A0A09010040C0404042E60A121A87
:1026C00006070A0A09010040C040404CF2020C1003
:1026D0001E070A0A0901006090201092660A121A69
:1026E00006070A0A090100100010102040808282AB
:1026F0007C070E0E0901002010080010282828442D
:102700007C44828282070E0E09010008102000100E
:10271000282828447C44828282070E0E090100107A
:1027200028440010282828447C44828282070D0D0A
:1027300009010034580010282828447C44828282F1
:10274000070D0D09010028280010282828447C4482
:10275000828282070E0E09010010282810102828F6
:1027600028447C44828282070A0A0901001E282824
:10277000284E784888888E070D0D0901FD3C42805F
:102780008080808080423C082418070E0E090100DA
:1027900020100800FE808080F880808080FE070E78
:1027A0000E09010008102000FE808080F8808080E3
:1027B00080FE070E0E09010010284400FE80808074
:1027C000F880808080FE070D0D090100282800FE9A
:1027D000808080F880808080FE050E0E0902004017
:1027E000201000F82020202020202020F8050E0EA8
:1027F00009020010204000F8202020202020202066
:10280000F8050E0E09020020508800F82020202034
:1028100020202020F8050D0D090200505000F8205E
:1028200020202020202020F8070A0A0901007844EF
:102830004242F24242424478070D0D0901003458E9
:10284000008282C2A2928A86828282070E0E0901CB
:1028500000201008007C82828282828282827C0731
:102860000E0E090100081020007C82828282828282
:1028700082827C070E0E090100102844007C8282AF
:102880008282828282827C070D0D09010034580009
:102890007C82828282828282827C070D0D09010005
:1028A0002828007C82828282828282827C070707BB
:1028B00009010182442810284482070C0C0901FFF9
:1028C000027C868A8A9292A2A2C27C80070E0E099E
:1028D0000100201008008282828282828282443833
:1028E000070E0E0901000810200082828282828277
:1028F00082824438070E0E090100102844008282AB
:102900008282828282824438070D0D0901002828C4
:102910000082828282828282824438070E0E0901FE
:102920000008102000828244281010101010100798
:102930000A0A0901008080FC828282FC8080800675
:102940000A0A09010038444448D04844444458071E
:102950000B0B090100201008007C02027E82867A9F
:10296000070B0B090100081020007C02027E828602
:102970007A070B0B090100102844007C02027E82BA
:10298000867A070A0A0901003458007C02027E8216
:10299000867A070A0A0901002828007C02027E8242
:1029A000867A070C0C09010010282810007C02020E
:1029B0007E82867A0707070901006C12127E9092C8
:1029C0006C070A0A0901FD7C82808080827C1048A5
:1029D00030070B0B090100201008007C8282FE806A
:1029E000827C070B0B090100081020007C8282FE0C
:1029F00080827C070B0B090100102844007C828236
:102A0000FE80827C070A0A0901002828007C828255
:102A1000FE80827C050C0C0902008040200000E052
:102A20002020202020F8050C0C0902001020400076
:102A300000E02020202020F8050C0C090200205086
:102A4000880000E02020202020F8050B0B09020060
:102A500050500000E02020202020F8070B0B090137
:102A600000483050083C448282824438070A0A09F0
:102A70000100345800BCC28282828282070B0B099B
:102A80000100201008007C82828282827C070B0B6E
:102A9000090100081020007C82828282827C070B60
:102AA0000B090100102844007C82828282827C070C
:102AB0000A0A0901003458007C82828282827C07E3
:102AC0000A0A0901002828007C82828282827C070F
:102AD000090909010010381000FE0010381007091C
:102AE000090901FF027C8A8A92A2A27C80070B0B53
:102AF000090100402010008282828282867A070BC0
:102B00000B090100081020008282828282867A07E7
:102B10000B0B090100102844008282828282867A8F
:102B2000070A0A0901002828008282828282867AA6
:102B3000070E0E0901FD0408100042422424241847
:102B400018109060070B0B0901FE8080B8C48282C8
:102B500082C4B88080070D0D0901FD242400424283
:102B60002424241818109060434F4D4D554E49436E
:102B70004154494F4E0044525952554E004552520D
:102B80004F525300494E464F004543484F00256978
:102B9000730025696D202569730025696820256902
:102BA0006D202569730025696420256968202569E1
:102BB0006D202569730025697920256964202569C0
:102BC000682025696D202569730050617261646118
:102BD00020646520656D657267656E636961004498
:102BE0006574656E696461005072696E7465722007
:102BF00073746F707065642064756520746F2065F0
:102C000072726F72732E2046697820746865206531
:102C100072726F7220616E6420757365204D393950
:102C20003920746F20726573746172742E20285479
:102C3000656D706572617475726520697320726567
:102C40007365742E20536574206974206166746501
:102C5000722072657374617274696E67290A004E1E
:102C60006F204C696E65204E756D626572207769C4
:102C7000746820636865636B73756D2C204C617399
:102C800074204C696E653A20004E6F20436865637E
:102C90006B73756D2077697468206C696E65206E42
:102CA000756D6265722C204C617374204C696E6581
:102CB0003A2000636865636B73756D206D69736D91
:102CC000617463682C204C617374204C696E653AA2
:102CD00020004C696E65204E756D626572206973C7
:102CE000206E6F74204C617374204C696E65204EA9
:102CF000756D6265722B312C204C617374204C69A8
:102D00006E653A20004D313130004D33310053446F
:102D10002072656164206572726F720A00446F6E82
:102D200065207072696E74696E672066696C650AE9
:102D30000020496E76616C696420657874727564F0
:102D40006572200000809343008093430080894394
:102D5000000040C2000040C10000000044656C65F6
:102D600074696F6E206661696C65642C2046696CBD
:102D7000653A200046696C652064656C657465641D
:102D80003A006F70656E206661696C65642C204640
:102D9000696C653A20006D0046696C616D656E7402
:102DA00020757365643A200053746174733A20008F
:102DB0002C204C6F6E67657374206A6F623A200036
:102DC000546F74616C2074696D653A2000537461AE
:102DD00074733A20002C204661696C65643A2000C7
:102DE0002C2046696E69736865643A2000507269E8
:102DF0006E74733A200053746174733A200020405B
:102E0000002042403A0020403A00202F0020540089
:102E1000202F0020423A00202F0020543A00436126
:102E20006C656E74616D69656E746F206C69737426
:102E30006F003F0A0020573A00452569202573009E
:102E40005B5349524955535D206C697374612E0080
:102E5000205A3A0020593A0020436F756E7420586A
:102E60003A0020453A00205A3A0020593A00583A90
:102E70000023646566696E65202044454641554CD3
:102E8000545F4B64200023646566696E65202044AE
:102E9000454641554C545F4B692000236465666983
:102EA0006E65202044454641554C545F4B702000D0
:102EB000504944204175746F74756E652066696E63
:102EC0006973686564212050757420746865206C8E
:102ED000617374204B702C204B6920616E64204B11
:102EE0006420636F6E7374616E74732066726F6DAD
:102EF0002062656C6F7720696E746F20436F6E6619
:102F0000696775726174696F6E2E680A0050494472
:102F1000204175746F74756E65206661696C6564B7
:102F2000212074696D656F75740A00504944204111
:102F300075746F74756E65206661696C65642120B7
:102F400054656D706572617475726520746F6F2061
:102F5000686967680A00204B643A2000204B693A90
:102F60002000204B703A20000A20436C6173736983
:102F70006320504944200A002054753A2000204B19
:102F8000753A2000206D61783A2000206D696E3A14
:102F9000200020643A200020626961733A200048D2
:102FA0006F6D6520257325732573206669727374B0
:102FB000002066697273740A005A0059005800486C
:102FC0006F6D652000416374697665204578747281
:102FD000756465723A20004E6F206D6F7665206FC4
:102FE0006E20746F6F6C6368616E67650A004732AC
:102FF0002F47332062616420706172616D65746572
:1030000072730A005265706F736F2E2E2E005B5321
:1030100049524955535D206C697374612E005265A5
:1030200073756D69656E646F20696D7072652E00D1
:103030004573706572616E646F206F7264656E6552
:10304000730053696E206D6F76696D69656E746F7C
:1030500000456E642066696C65206C6973740A00B3
:10306000426567696E2066696C65206C6973740AD5
:10307000005344207072696E74696E6720627974BF
:103080006520004E6F74205344207072696E74691D
:103090006E670A005072696E742074696D653A201B
:1030A0000050726F7465637465642050696E0A0025
:1030B000452569202573005B5349524955535D20CE
:1030C0006C697374612E006F666600892B842B7D9A
:1030D0002B762B682B44454255473A00506172616C
:1030E000646120646520656D657267656E63696102
:1030F000004D3131332053006F6B00506C617461AF
:10310000666F726D612043616C69656E7465003F26
:103110000A0020573A0043616C656E74616E646FFB
:1031200020506C61742E2E2E005B5349524955532A
:103130005D204170616761722E004649524D5741D2
:1031400052455F4E414D453A4D61726C696E20317A
:103150002E312E3120284769746875622920534F1B
:10316000555243455F434F44455F55524C3A68744E
:103170007470733A2F2F6769746875622E636F6D70
:103180002F4D61726C696E4669726D776172652F41
:103190004D61726C696E2050524F544F434F4C5FDB
:1031A00056455253494F4E3A312E30204D414348F7
:1031B000494E455F545950453A5B5349524955531E
:1031C0005D2045585452554445525F434F554E5427
:1031D0003A3220555549443A636564653261326636
:1031E0002D343161322D343734382D396231322D5E
:1031F0006335356336326633363766660A007A5F82
:103200006D696E3A2000795F6D696E3A2000785FD3
:103210006D61783A2000785F6D696E3A20005265E2
:10322000706F7274696E6720656E6473746F70205E
:103230007374617475730A004D31343520533C69E1
:103240006E6465783E206F7574206F662072616EC3
:1032500067652028302D31290A0053657474696E22
:10326000672054726176656C20416363656C65729A
:103270006174696F6E3A200053657474696E6720DB
:103280005265747261637420416363656C65726139
:1032900074696F6E3A200053657474696E672050CC
:1032A00072696E7420416363656C65726174696FE5
:1032B0006E3A200053657474696E67205072696EAF
:1032C0007420616E642054726176656C2041636382
:1032D000656C65726174696F6E3A2000205A002037
:1032E0005900580020204D61783A2000205A0020D3
:1032F0005900580020204D696E3A2000456E6365E4
:103300006E6465720041706167617200536F66742C
:1033100020656E6473746F70733A2000486F746533
:103320006E64206F6666736574733A0020643A00B9
:1033300020693A0020703A0043290A0061626C65F6
:103340006420286D696E2074656D702000436F6C79
:1033500064206578747275646573206172652000FD
:103360004572723A20546F6F206661722100546F6B
:103370006F206661722066726F6D2072656665727D
:10338000656E636520706F696E740A0044657366CC
:103390006173652061706C696361646F00486F746C
:1033A000656E64206F6666736574733A004E6F20B5
:1033B00063617365206C696768740A00556E6B6E93
:1033C0006F776E20636F6D6D616E643A20220052DC
:1033D0006573656E643A20006F6B0020746F6F2018
:1033E0006C6F6E6720657874727573696F6E20708C
:1033F000726576656E7465640A0020636F6C642084
:10340000657874727573696F6E2070726576656E1B
:103410007465640A00627573793A2070617573652A
:103420006420666F7220696E7075740A006275732D
:10343000793A2070617573656420666F72207573C8
:1034400065720A00627573793A2070726F636573F2
:1034500073696E670A00506172616461206465205F
:10346000656D657267656E636961004B494C4C2000
:10347000636175736564206279204B494C4C20620E
:103480007574746F6E2F70696E0A0050617261649A
:103490006120646520656D657267656E63696100B2
:1034A0004B494C4C206361757365642062792074CC
:1034B0006F6F206D75636820696E616374697665EE
:1034C0002074696D65202D2063757272656E74209D
:1034D000636F6D6D616E643A2000506F722066619B
:1034E000766F722C207265696E6963696500494D5B
:1034F000505245534F524120504152414441005097
:1035000072696E7465722068616C7465642E206BDC
:10351000696C6C28292063616C6C6564210A000069
:103520000040C2000040C1000000005761726E6997
:103530006E673A20486F6D696E672042756D702026
:1035400044697669736F72203C20310A00000040A4
:103550004000004040000000400080AB43008099E4
:103560004300808943FFFFFF0000211042206330A9
:103570008440A550C660E770088129914AA16BB1CB
:103580008CC1ADD1CEE1EFF1311210027332522273
:10359000B5529442F772D662399318837BB35AA31B
:1035A000BDD39CC3FFF3DEE3622443342004011443
:1035B000E664C774A44485546AA54BB5288509956B
:1035C000EEE5CFF5ACC58DD5533672261116300613
:1035D000D776F6669556B4465BB77AA719973887BB
:1035E000DFF7FEE79DD7BCC7C448E5588668A778D3
:1035F0004008611802282338CCC9EDD98EE9AFF90B
:10360000488969990AA92BB9F55AD44AB77A966AB2
:10361000711A500A333A122AFDDBDCCBBFFB9EEB5A
:10362000799B588B3BBB1AABA66C877CE44CC55C82
:10363000222C033C600C411CAEED8FFDECCDCDDDAA
:103640002AAD0BBD688D499D977EB66ED55EF44E52
:10365000133E322E511E700E9FFFBEEFDDDFFCCFFA
:103660001BBF3AAF599F788F8891A981CAB1EBA14E
:103670000CD12DC14EF16FE18010A100C230E320CA
:103680000450254046706760B9839893FBA3DAB372
:103690003DC31CD37FE35EF3B1029012F322D2321A
:1036A0003542145277625672EAB5CBA5A895898542
:1036B0006EF54FE52CD50DC5E234C324A01481046A
:1036C0006674476424540544DBA7FAB79987B89712
:1036D0005FE77EF71DC73CD7D326F2369106B016BA
:1036E00057667676154634564CD96DC90EF92FE9D2
:1036F000C899E9898AB9ABA944586548067827680A
:10370000C018E1088238A3287DCB5CDB3FEB1EFBB1
:10371000F98BD89BBBAB9ABB754A545A376A167A59
:10372000F10AD01AB32A923A2EFD0FED6CDD4DCD81
:10373000AABD8BADE89DC98D267C076C645C454CA9
:10374000A23C832CE01CC10C1FEF3EFF5DCF7CDF51
:103750009BAFBABFD98FF89F176E367E554E745EF9
:10376000932EB23ED10EF01E7C3C3E5E2B3D3F2F91
:103770005B5D3B2C2A225C004572726F722077726F
:103780006974696E6720746F20454550524F4D2112
:103790000A0043616E6E6F7420656E7465722073EB
:1037A00075626469723A2000022E2E004D656E75B6
:1037B000207072696E636970616C0000546F74618F
:1037C0006C20646520457874727573696F6E3A2059
:1037D00000256C642E25696D0000496D707265735B
:1037E000696F6E206D6173206C617267613A2000B1
:1037F000005469656D706F20746F74616C2064652E
:1038000020696D702E3A2000436F6D706C65746195
:103810006461733A2000436F6E74656F20646520A5
:10382000696D70726573696F6E3A200054656D70D2
:1038300065726174757261206D6178696D613A209D
:103840003132300054656D7065726174757261203B
:103850006D696E696D613A203500544265643A4580
:1038600050434F53203130304B0054656D706572BA
:103870006174757261206D6178696D613A203235CD
:10388000300054656D7065726174757261206D6988
:103890006E696D613A20350054313A20415443201D
:1038A00031303447542D320054656D706572617447
:1038B000757261206D6178696D613A203235300032
:1038C00054656D7065726174757261206D696E69A1
:1038D0006D613A20350054303A2041544320313054
:1038E0003447542D32004675656E7465206465203A
:1038F000706F6465723A2047656E65726963005047
:10390000726F746F636F6C6F3A20312E30004261BA
:103910007564696F733A2031313532303000527539
:103920006D6261004578747275736F7265733A20C9
:103930003200687474703A2F2F6D61726C696E6614
:10394000772E6F7267005B5349524955535D0032C1
:103950003031372D30352D31322031323A30300090
:10396000312E312E31004D61726C696E00457374D9
:1039700061646973746963617320496D702E0054CA
:1039800065726D6973746F72657300496E662E207F
:10399000436F6E74726F6C61646F7200496E662E55
:1039A00020496D707265736F7261004D656E752090
:1039B0007072696E636970616C005461726A6574DB
:1039C00061207265746972616461005461726A6534
:1039D000746120636F6C6F6361646100022020502A
:1039E0006C616E6E65724275666665724279746569
:1039F000733A20002046726565204D656D6F7279BF
:103A00003A2000436F6D70696C65643A20536570AD
:103A100020203120323032360A00207C204175745B
:103A2000686F723A20284D6F65627975734D6163D6
:103A300068696E65732C2064656661756C742063BB
:103A40006F6E666967290A00323031372D30352DA7
:103A500031322031323A303000204C6173742055BD
:103A60007064617465643A2000312E312E310A0091
:103A70004D61726C696E0020536F66747761726578
:103A80002052657365740A00205761746368646F1F
:103A9000672052657365740A002042726F776E204A
:103AA0006F75742052657365740A002045787465DB
:103AB000726E616C2052657365740A00506F776591
:103AC0007255700A0073746172740A006572726FC5
:103AD000722077726974696E6720746F2066696CF2
:103AE000650A00456E6473746F707320256320252A
:103AF0006320256320256300205A3A0020593A00AC
:103B000020583A00656E6473746F7073206869742E
:103B10003A2000446F6E6520736176696E67206697
:103B2000696C652E0A004D32390000002100240026
:103B300027002A002D00300033000101000004019D
:103B400007010A0100002200250028002B002E009A
:103B50003100340002010000050108010B010000E2
:103B600020002300260029002C002F003200000135
:103B70000000030106010901050505050705080800
:103B80000808020202020A0A0808040404040101E7
:103B900001010101010103030303030303030407FC
:103BA00007070C0C0C0C0C0C0C0C02020202060693
:103BB0000606060606060B0B0B0B0B0B0B0B010286
:103BC000102020080810204010204080020102012F
:103BD00008040201010204081020408080402010E7
:103BE0000804020180040201804020100804020140
:103BF00008040201010204081020408001020408A8
:103C00001020408000000A0B02090C0D0E0807036B
:103C1000040100000000000000000000000000009F
:103C20000000000000000000000000000000000094
:103C30001211100000000000000000000000000051
:103C40000000000000000000000057726974696EF7
:103C50006720746F2066696C653A20006F70656E2E
:103C6000206661696C65642C2046696C653A2000A9
:103C70006F70656E206661696C65642C2046696CA6
:103C8000653A200046696C652073656C65637465F0
:103C9000640A002053697A653A200046696C652001
:103CA0006F70656E65643A20006F70656E206661A6
:103CB000696C65642C2046696C653A200020666951
:103CC0006C653A20004E6F7720002220706F7300E1
:103CD0002220706172656E743A2200535542524F31
:103CE0005554494E452043414C4C207461726765E0
:103CF000743A220050617261646120646520656DD0
:103D0000657267656E63696100747279696E6720B8
:103D1000746F2063616C6C207375622D67636F64D0
:103D2000652066696C6573207769746820746F6FAD
:103D3000206D616E79206C6576656C732E204D4127
:103D400058206C6576656C2069733A0043616E6E2D
:103D50006F74206F70656E207375626469722000E5
:103D600053442063617264206F6B0A006F70656E4C
:103D7000526F6F74206661696C65640A00766F6CBF
:103D8000756D652E696E6974206661696C65640A7B
:103D9000004572726F723A00534420696E69742054
:103DA0006661696C0A006175746F25692E67004D44
:103DB0003234004D323320257300656E71756575A0
:103DC00065696E672022006563686F3A0000060926
:103DD00000FE070192032120FFFF08FF07FF0000FC
:103DE0000006000001070706020080808080800036
:103DF00080030202060105A0A00507070600005087
:103E000050F850F850500507070600002078A070C1
:103E100028F020050707060000C0C81020409818A9
:103E20000507070600006090A040A8906802030301
:103E3000060104C04080030707060100204080807F
:103E4000804020030707060100804020202040809A
:103E500005050506000120A870A820050505060037
:103E6000012020F820200203030602FFC040800545
:103E70000101060003F8020202060200C0C00505A7
:103E800005060001081020408005070706000070A5
:103E900088888888887003070706010040C0404072
:103EA0004040E0050707060000708808708080F831
:103EB000050707060000F81020100808F00507079E
:103EC00006000010305090F810100507070600009B
:103ED000F880F008088870050707060000708080E9
:103EE000F0888870050707060000F80810202020D9
:103EF000200507070600007088887088887005070D
:103F00000706000070888878080870020505060218
:103F100000C0C000C0C00206060602FFC0C000C04C
:103F20004080040707060000102040804020100554
:103F30000303060002F800F80407070601008040AA
:103F40002010204080050707060000708808102018
:103F5000002005070706000070880868A8A87005FB
:103F60000707060000708888F88888880507070614
:103F70000000F08888F08888F005070706000070C8
:103F8000888080808870050707060000F088888890
:103F90008888F0050707060000F88080F08080F828
:103FA000050707060000F88080F08080800507077D
:103FB000060000708880B888887005070706000032
:103FC000888888F888888801070706020080808032
:103FD00080808080050707060000381010101090C0
:103FE000600507070600008890A0C0A0908805071C
:103FF00007060000808080808080F80507070600A3
:104000000088D8A88888888805070706000088885F
:10401000C8A89888880507070600007088888888DF
:104020008870050707060000F08888F0808080050A
:10403000070706000070888888A8906805070706AB
:104040000000F08888F0A090880507070600007837
:104050008080700808F0050707060000F82020207F
:104060002020200507070600008888888888887037
:1040700005070706000088888888885020050707FC
:104080000600008888888888A85005070706000071
:10409000888850205088880507070600008888888F
:1040A00050202020050707060000F8081020408057
:1040B000F8030707060100E08080808080E00505A6
:1040C000050600018040201008030707060100E0F4
:1040D0002020202020E0050303060004205088054E
:1040E0000101060000F802020206020580400505F3
:1040F000050600007008788878050707060000802C
:1041000080B0C88888F005050506000070808088AA
:104110007005070706000008086898888878050574
:10412000050600007088F88070050707060000305B
:1041300048E0404040400506060600FF7088887849
:1041400008700507070600008080B0C888888801CD
:104150000707060200800080808080800308080630
:1041600001FF200020202020A040040707060000B7
:10417000808090A0C0A090030707060100C04040C7
:10418000404040E0050505060000D0A8A8A8A80505
:104190000505060000B0C8888888050505060000EA
:1041A00070888888700506060600FFF08888F08011
:1041B000800506060600FF7888887808080505054A
:1041C000060000B0C88080800505050600007080EC
:1041D0007008F00407070600004040E0404040300F
:1041E000050505060000888888986805050506000D
:1041F0000088888850200505050600008888A8A842
:104200005005050506000088502050880506060662
:1042100000FF888888780870050505060000F810FA
:104220002040F8030707060100204040804040205E
:1042300001070706020080808080808080030707D6
:104240000601008040402040408005020206000236
:10425000689000000006000000000006000000005A
:10426000000600000000000600000000000600003C
:10427000000000060000000000060000000000062C
:104280000000000000060000000000060000000022
:10429000000600000000000600000000000600000C
:1042A00000000006000000000006000000000006FC
:1042B00000000000000600000000000600000000F2
:1042C00000060000000000060000000000060000DC
:1042D00000000006000000000006000000000006CC
:1042E00000000000000600000000000600000000C2
:1042F00000060000000000060000000000060000AC
:10430000000000060000000000060000000000069B
:104310000000000000060000000000060000010789
:104320000706020080008080808080050707060065
:10433000002070A8A0A870200507070600003040E4
:1043400040E04050A80505050600008870507088C0
:10435000050707060000885020F820F8200107070D
:10436000060200808080008080800508080600002A
:104370003048205050209060030101060107A0053D
:104380000707060000F888B8B8B888F805070706D8
:104390000001700878887800F805050506000128F6
:1043A00050A05028050303060001F8080802020285
:1043B0000602064080050707060000F888A88898CE
:1043C000A8F8050101060006F804040406000360CD
:1043D0009090600507070600002020F8202000F8D4
:1043E00004050506000360902040F0030505060063
:1043F00003E020E020E002020206020640800508F9
:10440000080600FF8888888898E8808005070706E6
:10441000000078989878181818020202060202C064
:10442000C00202020602FF408003050506000340A9
:10443000C04040E0050707060001708888887000CA
:10444000F8050505060001A0502850A0050707063D
:1044500000008890A858B8080805070706000088DB
:1044600090B848982038050808060000C040C048A9
:10447000D83808080507070600002000204080887B
:10448000700508080600004020007088F88888053C
:1044900008080600001020007088F88888050808C1
:1044A0000600002050007088F8888805080806007B
:1044B000006890007088F888880508080600005099
:1044C00000708888F88888050808060000205020B9
:1044D0007088F888880507070600003860A0B8E0F3
:1044E000A0B80508080600FF7088808088702060EA
:1044F000050808060000402000F880F080F8050854
:1045000008060000081000F880F080F8050808068A
:104510000000205000F880F080F805070706000032
:104520005000F880F080F803080806010080400081
:10453000E0404040E0030808060100204000E04061
:104540004040E003080806010040A000E040404071
:10455000E0030707060100A000E0404040E0050737
:1045600007060000704848E848487005080806003B
:104570000068900088C8A8988805080806000040D0
:104580002070888888887005080806000010207050
:104590008888888870050808060000205000708808
:1045A0008888700508080600006890007088888870
:1045B000700508080600005000708888888870051B
:1045C000050506000188502050880508080600FFF0
:1045D0001070A8A8A8A87040050808060000402090
:1045E0008888888888700508080600001020888858
:1045F0008888887005080806000020500088888890
:10460000887005080806000050008888888888702F
:1046100005080806000010208850202020200509E9
:10462000090600FFC040704848704040E004080898
:104630000601FF609090A09090E0800508080600B9
:1046400000402000700878887805080806000010EF
:1046500020007008788878050808060000205000BF
:1046600070087888780508080600006890007008CF
:104670007888780507070600005000700878887869
:104680000508080600002050207008788878050684
:1046900006060000D02878A0A8500506060600FFF0
:1046A00070808870206005080806000040200070B7
:1046B00088F880700508080600001020007088F84F
:1046C00080700508080600002050007088F880708F
:1046D00005070706000050007088F880700308087E
:1046E00006010080400040C04040E0030808060189
:1046F0000020400040C04040E003080806010040A0
:10470000A00040C04040E0030707060100A00040B1
:10471000C04040E0050707060000A040A0107888D0
:1047200070050808060000689000B0C888888805F1
:104730000808060000402000708888887005080876
:1047400006000010200070888888700508080600A0
:1047500000205000708888887005080806000068EE
:104760009000708888887005070706000050007068
:10477000888888700505050600012000F8002005DE
:1047800007070600FF1070A8A8A8704005080806D3
:104790000000402000888888986805080806000006
:1047A00010200088888898680508080600002050B6
:1047B00000888888986805070706000050008888E8
:1047C0008898680509090600FF102000888888F885
:1047D00008700407070601FFC04060506040E00514
:1047E00008080600FF5000888888780870000609CD
:1047F00000FE000000000001090008FE000005089E
:104800000806000040F0C888889878100508080657
:104810000000C0F88888888888F80505050600012A
:104820002030F830200508080600002070F820200D
:104830002020E00509090600FF2070A8A8B8888894
:1048400070200509090600FFE080C0B0A8283028C4
:10485000280509090600FFF8A88888888888A8F82C
:10486000050A0A0600FE205050505088A8A88870FB
:1048700003030306000340A040000AF0ECEF1124FC
:104880001FBECFEFD1E2DEBFCDBF00E00CBF14E012
:10489000A0E0B2E0E6E7F5E002E00BBF02C007905F
:1048A0000D92A639B107D9F725E1A6E9B4E001C018
:1048B0001D92A735B207E1F714E2CEE3D4E200E09F
:1048C00006C021970109802FFE010F941702CD33F6
:1048D000D10780E00807A9F70E9447F10D94A902CB
:1048E0000C9400002CEA35EC47E25EE360912A0B61
:1048F00070912B0B80912C0B90912D0B0E94BDFF82
:1049000060933702709338028093390290933A0291
:1049100008952CEA35EC47E25EE360912E0B70912E
:104920002F0B8091300B9091310B0E94C7FA60934E
:104930003B0270933C0280933D0290933E020895A7
:104940005B982FB787FD63C0F89490910B019F7718
:1049500090930B012FBF5B9A00005B982FB786FDE9
:1049600074C0F89490910B019F7790930B012FBF27
:104970005B9A00005B982FB785FD62C0F894909118
:104980000B019F7790930B012FBF5B9A00005B9800
:104990002FB784FD50C0F89490910B019F779093AE
:1049A0000B012FBF5B9A00005B982FB783FD3EC0C1
:1049B000F89490910B019F7790930B012FBF5B9A16
:1049C00000005B982FB782FD2CC0F89490910B01EA
:1049D0009F7790930B012FBF5B9A00005B989FB766
:1049E00081FD1AC0F89480910B018F7780930B01A1
:1049F0009FBF5B9A00005B989FB7F89480910B0172
:104A00008F7780930B019FBF5B9A00000895F89405
:104A100090910B0190689CCFF89480910B01806875
:104A2000E5CFF89490910B019068D3CFF8949091D2
:104A30000B019068C1CFF89490910B019068AFCFB3
:104A4000F89490910B0190689DCFF89490910B0190
:104A500090688BCFF8948130910509F453C082306F
:104A6000910509F478C0892B09F038C080910001C4
:104A700082702FB7F89490910B019D7F90930B015A
:104A80002FBFA2982FB7662359F1F8949091020195
:104A90009260909302012FBF169A2FB7F8949091CD
:104AA00002019160909302012FBF179AEBE0F0E0B2
:104AB0003197F1F72FB7F894909102019E7F909370
:104AC00002012FBF17989FB7882399F0F89480911F
:104AD00002018260809302019FBF169A7894089524
:104AE000F894909102019D7F909302012FBF169838
:104AF000D4CFF894809102018D7F809302019FBFF3
:104B00001698ECCF80910901847089982FB76111B4
:104B100018C0F89490910B01946090930B012FBFF3
:104B2000889AEBE0F0E03197F1F788989FB78823F7
:104B300069F0F89480910B01846080930B019FBF12
:104B4000CDCFF89490910B019B7FE7CFF8948091A3
:104B50000B018B7FF2CF8FB184702FB7F8949091B7
:104B600008019E7F909308012FBF662359F08A9A0F
:104B70008B9AEBE0F0E03197F1F78B98882321F0E6
:104B80008A9AACCF8A98F4CF8A98A8CF880F991FB9
:104B9000880F991FFC01E356F64F408151816281D5
:104BA0007381855C924FFC014083518362837383E0
:104BB000E0919B09F0919C0982899389A489B58928
:104BC0008093660A9093670AA093680AB093690A73
:104BD0000895EF92FF920F931F93CF93DF93E0908E
:104BE0009B09F0909C09F70182819381A481B58192
:104BF000181619061A061B06E4F48091380A9181EA
:104C00004091610A40FF79C0911113C096B190FBA9
:104C100080F98093380A9091370A9170892349F07E
:104C20008091470D81608093470D90E080E00E9465
:104C3000C625F70186819781A085B18518161906CA
:104C40001A061B0614F58091610A81FF1EC080912F
:104C5000380A96B192FB002700F910E011950195F2
:104C6000110908270270112780278093380A0091C4
:104C7000370A0270082349F08091470D82608093C3
:104C8000470D81E090E00E94C625F701828593855B
:104C9000A485B585181619061A061B061CF5809101
:104CA000610A82FF1FC08091380A96B19295917077
:104CB000C92FF0E0DF2FD195C195D109C827C47065
:104CC000DD278C278093380AC091370AC470C82327
:104CD00049F08091470D84608093470D82E090E019
:104CE0000E94C6258091380A8093370ADF91CF91C0
:104CF0001F910F91FF90EF900895992309F499CF98
:104D000096B191FB222720F930E0319521953109A8
:104D100028272071332782278093380A9091370AF9
:104D200090717CCFCF92DF92EF92FF92CF93DF937F
:104D3000EC01039731F46F3F11F46091CC0960935B
:104D4000E40C0E9420D46B017C0124EA30E74DE79B
:104D50005FE36091210B7091220B8091230B909166
:104D6000240B0E9461FA87FD19C08AEF90E0A0E051
:104D7000B0E08C0D9D1DAE1DBF1D8093E50C909382
:104D8000E60CA093E70CB093E80CC0937202DF919D
:104D9000CF91FF90EF90DF90CF90089580E090E06A
:104DA000DC01E7CFCF93DF9300D01F92CDB7DEB702
:104DB000882349F00E9475E30F900F900F900F9099
:104DC000DF91CF91089588EB91E09C838B8384E100
:104DD00090E09A838983BE016D5F7F4FCE0101967B
:104DE0000E940CCFE9CF9F92AF92BF92CF92DF92F9
:104DF000EF92FF920F931F93CF93DF935B01E90133
:104E00004A3009F4B0C0453109F063C0DB011296A5
:104E1000ED91FC91F280C681D7815A9A88E290E0A8
:104E20000197F1F7EF2CE29420EFE22230E1932E8C
:104E30009F0C48E2C42ED12C0E9452D0C60101978B
:104E4000F1F7BFE1BF1508F47BC08F2D8077806834
:104E50000E94A0248E2D0E94A024C6010197F1F784
:104E60000E94BCCF0E9407D0C6010197F1F70E94B3
:104E700071CFC6010197F1F78E01005F1F4F888146
:104E8000807F0E94A02489918295807F0E94A02427
:104E9000C017D107A1F7C6010197F1F7F394E0E13C
:104EA000EE0EF910C9CF5A98D5011296CD91DC912A
:104EB000CE010E9470D7811147C1DF91CF911F9120
:104EC0000F91FF90EF90DF90CF90BF90AF909F90A9
:104ED0000895FB0102811381423309F4F0C008F404
:104EE000F4C0463409F4E1C0473409F4E4C04B335C
:104EF00029F589812B81D80112967C9112971396FE
:104F00003C91213009F437C1233009F001C148EF49
:104F1000480F582F91E0341708F490E031E054170F
:104F200008F030E0492F432B61E0571708F460E0A8
:104F3000462309F015C1932309F012C181E0BDCFCA
:104F400080EE8F0D8068807F0E94A0248F2D829537
:104F5000807F0E94A024C6010197F1F70E94BCCF78
:104F60000E94BCCF81CF529A5A9880910A018068E2
:104F700080930A019FB7F89480910B018F778093FB
:104F80000B019FBF539A5B9A5A9A88E290E001976F
:104F9000F1F788E790E0CEE9DFE0FE013197F1F725
:104FA0000197D9F70E9452D008E210E0C80101979A
:104FB000F1F70E9407D00E94BCCFC8010197F1F71A
:104FC0000E9407D080E10E94A024C8010197F1F758
:104FD000CE010197F1F7CE010197F1F7CE010197CC
:104FE000F1F7CE010197F1F7CE010197F1F7CE016C
:104FF0000197F1F7CE010197F1F7CE010197F1F793
:10500000CE010197F1F7CE010197F1F7CE0101979B
:10501000F1F7CE010197F1F7CE010197F1F7CE013B
:105020000197F1F72197F1F780E30E94A02480EE29
:105030000E94A024C8010197F1F7F12CD0E08D2F38
:10504000807780680E94A0248F2D0E94A024C80130
:105050000197F1F70E94BCCF0E9407D0C8010197C9
:10506000F1F70E9471CFC8010197F1F7C0E20E94E9
:1050700007D00E9407D0C8010197F1F7C150B9F7D6
:105080000E9452D0C8010197F1F7DF5F80E1F80E6E
:10509000D032A9F60E9407D080EC0E94A024C8015B
:1050A0000197F1F75A9881E008CFD80115968C91B5
:1050B000888381E002CFF80181818883FACFB9012A
:1050C000C8010E945AD781E0F8CE443171F04731CF
:1050D00009F034CF1882F80182818983858181505B
:1050E0008A8383818B8381E0E8CED80115964C9129
:1050F000159750E0440F551F70E060E016968D91B3
:105100009C910F944C02C8010E9486D781E0D5CEB5
:10511000381708F413CF871708F410CFFA80E12C62
:10512000D12C243070F41DC0BE01C8010E945AD792
:10513000898198819D0D98838E0D8983FF0C09F4D8
:10514000FDCEF7FEF6CFF0CF4D8150E0440F551F56
:1051500070E060E08E819F810F944C0281E0ADCEC3
:10516000FA8030E0F901E35EFC4FD080275E3C4FCF
:10517000F901E080E6CF58E0580F482FCBCEDF9200
:10518000EF92FF920F931F93CF93DF93EC01D62EF4
:105190001CAD0BAD7C0184E0E80EF11CE98DFA8DAD
:1051A000C7011995412F480F2D2D602FC7010E946F
:1051B00000DA9BAD890F8BAF81E090E0DF91CF915A
:1051C0001F910F91FF90EF90DF9008954F925F92A3
:1051D0006F927F92AF92BF92CF92DF92EF92FF9247
:1051E0000F931F93CF93DF938C01EB01FC0147A03A
:1051F00050A461A472A4AFA0B8A4C9A4DAA4950174
:10520000A601C301B2010E9461FA87FF3EC0A3015B
:105210009201C301B2010E94C7FA2B013C01F801BF
:1052200063A974A985A996A990589B01AC010E9415
:10523000C3FEF80127A530A941A952A90E94C7FAC7
:105240009B01AC01C301B2010E94C2FE0F94710127
:105250007B018C019B01AC01B501C6010E9461FA82
:1052600087FF02C0750186019701A801B501C6013B
:105270000E9461FA882349F0C701D8018FA398A73B
:10528000A9A7BAA7888181608883DF91CF911F91F8
:105290000F91FF90EF90DF90CF90BF90AF907F90F5
:1052A0006F905F904F9008954F925F926F927F92B0
:1052B0008F929F92AF92BF92CF92DF92EF92FF9226
:1052C000CF93DF93CDB7DEB76A970FB6F894DEBF02
:1052D0000FBECDBF9A8F898F5B014A01DC01D79643
:1052E0006D917D918D919C91DA970E9466FA6B0188
:1052F0007C01F50120813181428153810E94C7FAEE
:105300000E94A1FF0F9436003B015C01D4012D9156
:105310003D914D915C91C701B6010E94C7FA0E9470
:10532000A1FF0F9436006D827E82AF82B8862D81F8
:105330003E814F815885283731054105510540F49C
:1053400028E730E040E050E02D833E834F835887CC
:1053500069837A838B839C8389819A81AB81BC81A9
:1053600088379105A105B10540F428E730E040E019
:1053700050E029833A834B835C83E98DFA8DED5BA2
:10538000FF4F80819181A281B3818D879E87AF87F6
:10539000B88BBC01CD010E9468FA69877A878B8738
:1053A0009C876D817E818F8198850E9466FA698BCA
:1053B0007A8B8B8B9C8B20E030E0A90169857A8504
:1053C0008B859C850E9461FA882309F432C1A7016C
:1053D0009601C701B6010E94C7FA4B015C012989F9
:1053E0003A894B895C89CA01B9010E94C7FA9B01BD
:1053F000AC01C501B4010E94C2FE4B015C012985CC
:105400003A854B855C85CA01B9010E94C3FE9B01A8
:10541000AC01C501B4010E94BDFF0E94A1FF0F9421
:105420002F002B013C016D857E858F859889909595
:105430008095709561957F4F8F4F9F4F0E9468FABE
:105440004B015C0169817A818B819C810E9466FAA3
:105450006D877E878F87988B20E030E0A901C5019A
:10546000B4010E9461FA882309F4E7C02D853E85C6
:105470004F855889CA01B9010E94C7FA6D8B7E8B8E
:105480008F8B988FA7019601C701B6010E94C7FABA
:105490009B01AC016D897E898F89988D0E94C2FE27
:1054A0006B017C01A5019401C501B4010E94C3FEFA
:1054B0009B01AC01C701B6010E94BDFF0F946500BE
:1054C000A98DBA8D52968D909D90AD90BC905597B8
:1054D00075016401C418D508E608F7080F942F0079
:1054E000C61AD70AE80AF90AF7FE67C020E030E0DA
:1054F000A90169857A858B859C850E9461FA88233C
:1055000009F49FC0C501B4010E9466FA6B017C01D9
:1055100029853A854B855C85CA01B9010E94C3FE85
:105520009B01AC01C701B6010E94C7FA6B017C0167
:1055300029893A894B895C89CA01B9010E94C7FA55
:105540009B01AC01C701B6010E94C2FE6B017C0148
:105550002D853E854F855889CA01B9010E94C7FA39
:105560009B01AC01C701B6010E94C3FE6B017C0127
:1055700020E030E040E850E469857A858B859C85A1
:105580000E94C7FA9B01AC01C701B6010E94BDFF92
:105590000E94A1FF0F942F002B013C0177FE03C056
:1055A000412C512C3201481459046A047B0410F038
:1055B00024013501C12CD12C76018FB7F894E98DE7
:1055C000FA8D908193FD1FC0DF01468A578A608E55
:1055D000718EC40CD51CE61CF71CC28ED38EE48ED3
:1055E000F58E2D813E814F81588523AF34AF45AF75
:1055F00056AFDF9629813A814B815C812D933D9393
:105600004D935C9313978FBF6A960FB6F894DEBFE5
:105610000FBECDBFDF91CF91FF90EF90DF90CF9085
:10562000BF90AF909F908F907F906F905F904F90C2
:10563000089560E070E0CB01F0CE60E070E0CB0157
:105640003DCF60E070E0CB01A3CF8091FB0A8630B4
:10565000D8F496E0899FF0011124E952F54F20918A
:10566000800230918102318320834091490D509115
:105670004A0D60914B0D70914C0D428353836483AE
:1056800075838F5F8093FB0A0895CF92DF92EF922C
:10569000FF920F931F93CF93DF93EC016A017B017D
:1056A00080918002909181028C179D0781F127E4FF
:1056B000C238D207A9F58653924571F40E9420D4CE
:1056C0006E517B4F8F4F9F4F6093D30A7093D40AD4
:1056D0008093D50A9093D60AD0938102C09380021A
:1056E000C092490DD0924A0DE0924B0DF0924C0DB4
:1056F000C653D24521F41092ED0C1092FB0A82E0C1
:105700008093880281E08093E30C1092F30CDF9188
:10571000CF911F910F91FF90EF90DF90CF90089560
:1057200022E5C633D207C1F68258974419F0C6E382
:10573000D2E5D2CF0E9420D40091D30A1091D40A8E
:105740002091D50A3091D60A601B710B820B930B06
:1057500097FFEDCFC2E1DCE2BFCF80E090E0A0E2B6
:10576000B1E48093210B9093220BA093230BB09371
:10577000240B40E050E0BA018091260B9091270B5A
:105780000C94452B80E090E0A0E8BFE38093210BD0
:105790009093220BA093230BB093240B40E050E096
:1057A000BA018091260B9091270B0C94452B8DEC20
:1057B0009CECACECBDE38093210B9093220BA09367
:1057C000230BB093240B40E050E0BA018091260BEC
:1057D0009091270B0C94452B40E050E0BA0188E7EC
:1057E00090E40E94452B1092190B10921A0B109204
:1057F0001B0B10921C0B81E08093ED0C089540E090
:1058000050E0BA0182E790E40E94452B1092190BF8
:1058100010921A0B10921B0B10921C0B81E08093BC
:10582000ED0C089540E050E0BA018CE690E40E944F
:10583000452B1092190B10921A0B10921B0B109201
:105840001C0B81E08093ED0C089540E050E0BA011C
:1058500086E392E50C94452BE091FB0AEE2389F058
:10586000E150E093FB0A86E0E89FF0011124E95241
:10587000F54F4281538164817581808191810C94BF
:10588000452B0C94252CFF920F931F93CF93DF93FE
:105890001092F20C8091490D90914A0DA0914B0D00
:1058A000B0914C0D81309048A105B10540F01092A7
:1058B000490D10924A0D10924B0D10924C0D6091B3
:1058C000490D70914A0D80914B0D90914C0D25E042
:1058D00030E040E050E00E9486FEC22F8091280B0D
:1058E0001816F4F4482F082E000C550B415051099E
:1058F000022E000C330B2417350794F0CFEFC80F9E
:1059000025E0C29FC0011124092E000CAA0BBB0B7D
:105910008093490D90934A0DA0934B0DB0934C0D7D
:105920001092E30C8091E20CC81714F4C093E20CBF
:105930008091E20C082E000C990B04962C2F0C2E53
:10594000000C330B8217930724F48CEF8C0F809399
:10595000E20CD091E20C1D2F05E00D0FFD2EF1940D
:10596000D1111FC080918802882349F081E0C111C4
:1059700080E024E046EF5BE16F2D0E94A4E380917C
:10598000F40C882339F1C11125C00E942C2C809180
:10599000E30C8823F9F0DF91CF911F910F91FF90D5
:1059A0000895D130F1F480918802882359F06D2F49
:1059B000611B81E0C13009F080E023E04EEE5BE145
:1059C0000E94A4E38091F40C882321F082EC9FE2F2
:1059D000C13009F1DF5F0D13C3CF87E08093280B3F
:1059E000DACFD23009F066C080918802882359F05E
:1059F0006D2F611B81E0C23009F080E023E046EEAC
:105A00005BE10E94A4E38091F40C882319F388ECF5
:105A10009FE2C230F9F60E9439E7B9CF809188023F
:105A2000882359F06D2F611B81E0C33009F080E0BD
:105A300023E04EED5BE10E94A4E38091F40C882307
:105A400049F28EEC9FE2C33029F6E5CF80918802BF
:105A5000882359F06D2F611B81E0C43009F080E08C
:105A600023E045ED5BE10E94A4E38091F40C8823E0
:105A700009F4B0CF84ED9FE2C43009F0ABCFCBCFB7
:105A800080918802882359F06D2F611B81E0C53019
:105A900009F080E023E04BEC5BE10E94A4E38091FD
:105AA000F40C882309F496CF8AED9FE2C53009F003
:105AB00091CFB1CFD33009F4B1CFD43039F2D53052
:105AC000F9F2D63009F086CF80918802882359F008
:105AD0006D2F611B81E0C63009F080E023E041ECCE
