:100000000C942D220C946D220C946D220C946D2274
:100010000C946D220C946D220C946D220C946D2224
:100020000C946D220C946D220C946D220C946D2214
:100030000C946D220C9404EC0C946D220C946D22A3
:100040000C946D220C94A99B0C946D220C946D223F
:100050000C946D220C94EC940C946D220C94BAEBDD
:100060000C946D220C94CC6B0C94B86B0C946D2298
:100070000C946D220C946D220C946D220C946D22C4
:100080000C946D220C946D220C946D220C946D22B4
:100090000C946D220C946D220C946D220C946D22A4
:1000A0000C946D220C946D220C946D220C946D2294
:1000B0000C946D220C946D220C946D220C946D2284
:1000C0000C946D220C946D220C946D220C946D2274
:1000D0000C946D220C946D220C948E6B0C94C26B5C
:1000E0000C946D22084AD73B3BCE016E84BCBFFD09
:1000F000C12F3D6C74319ABD56833DDA3D00C77FF8
:1001000011BED9E4BB4C3E916BAAAABE0000008090
:100110003F05A84CCDB2D44EB93836A9020C50B91F
:10012000918688083CA6AAAA2ABE000000803F0744
:10013000634236B79BD8A71A39685618AEBAAB5582
:100140008C1D3CB7CC5763BD6DEDFD753EF6177247
:1001500031BF000000803F08000000BE9224491219
:100160003EABAAAA2ABECDCCCC4C3E00000080BE3D
:10017000ABAAAAAA3E00000000BF000000803F001A
:1001800000000000084178D3BB4387D1133D190E0E
:100190003CC3BD4282AD2B3E68EC8276BED98FE176
:1001A000A93E4C80EFFFBE01C4FF7F3F000000006E
:1001B00000000D94DB060D9407114E414E494E4947
:1001C0005459494E46CDCCCC3D0AD7233C17B7D124
:1001D0003877CC2B329595E6241FB14F0A000020CA
:1001E000410000C84200401C4620BCBE4CCA1B0E49
:1001F0005AAEC59D74434F4D4D554E4943415449E8
:100200004F4E0044525952554E004552524F525390
:1002100000494E464F004543484F001FE020102341
:1002200010249010A011202210241037B008400490
:100230008003001FE0201021102310152011202121
:1002400010211031300840048003001FE03FF03CD3
:10025000F03B701F601EE03DF03BF038700FC007B0
:100260008003001FE03FF03EF03CF01AE01EE03E4D
:10027000F03EF03EF00FC0078003004572726F72CF
:100280002077726974696E6720746F2045455052FB
:100290004F4D210A00506F72206661766F722C20DC
:1002A0007265696E6963696500494D505245534FE7
:1002B000524120444554454E4944410025533A207B
:1002C0002553004D5545525441005072696E746576
:1002D000722068616C7465642E206B696C6C2829CF
:1002E0002063616C6C6564210A00006563686F3A85
:1002F000004572726F723A0020440020204D323067
:100300003020540020204D3230302053002028442B
:10031000697361626C6564293A0046696C616D6558
:100320006E742073657474696E67730020204D329B
:1003300030312058004D617820416363656C6572EF
:100340006174696F6E2028756E6974732F7332291A
:100350000020204D3230332058004D6178206665F2
:10036000656472617465732028756E6974732F7388
:10037000290020520020204D3230342050004163AB
:1003800063656C65726174696F6E2028756E69743F
:10039000732F7332292028503C7072696E742D615E
:1003A0006363656C3E20523C726574726163742DA8
:1003B000616363656C3E20543C74726176656C2D9C
:1003C000616363656C3E29002054002053002020A7
:1003D0004D323035204200416476616E63656420A1
:1003E00028423C6D696E5F7365676D656E745F74FE
:1003F000696D655F75733E20533C6D696E5F666520
:100400006564726174653E20543C6D696E5F747200
:100410006176656C5F66656564726174653E2058DF
:100420003C6D61785F6A65726B3E20593C6D617806
:100430005F6A65726B3E205A3C6D61785F6A6572D7
:100440006B3E20453C6D61785F6A65726B3E2900AA
:1004500020204D32313700546F6F6C2D6368616E10
:1004600067696E670020204D323138205400486F94
:1004700074656E64206F6666736574730020440053
:1004800020490020204D333031205000486F7465E2
:100490006E6420504944002058004F4646004F4E9D
:1004A0000020204D61783A2000200020204D696E08
:1004B0003A2000203B200020204D323131205300D3
:1004C000536F667420656E6473746F7073003B20A5
:1004D0000020496E76616C69642065787472756479
:1004E0006572200047322F473320626164207061BB
:1004F00072616D65746572730A005265706F736F17
:100500002E2E2E0050756C73617220706172612006
:100510005265616E756461720053696E206D6F760D
:10052000696D69656E746F00456E642066696C65FF
:10053000206C6973740A00426567696E2066696C95
:1005400065206C6973740A004E6F206D6564696183
:100550000A00286E6F2066696C6529004375727207
:10056000656E742066696C653A20004E6F74205386
:1005700044207072696E74696E670A00534420707B
:1005800072696E74696E67206279746520002E0A44
:100590000044656C6574696F6E206661696C6564A2
:1005A0002C2046696C653A200046696C65206465BC
:1005B0006C657465643A005072696E742074696D7C
:1005C000653A20000A53746174733A2046696C617D
:1005D0006D656E7420757365643A20002C204C6F35
:1005E0006E67657374206A6F623A2000546F74619D
:1005F0006C2074696D653A200053746174733A20FD
:10060000002C204661696C65643A20002C20466904
:100610006E69736865643A20005072696E74733A4B
:10062000200053746174733A20006F6B006F66662C
:1006300000160211020A020302F501444542554721
:100640003A004D313133205300534952495553201C
:100650003330302049444558204F46462E002F2F36
:10066000004D31343520533C696E6465783E206F0F
:100670007574206F662072616E67652028302D3199
:10068000290A00250A0046523A0020466C6F773A44
:100690002000496E76616C696420657874727564B7
:1006A00065720A0064697300656E0043290A00617F
:1006B000626C656420286D696E2074656D70200021
:1006C000436F6C6420657874727564657320617221
:1006D0006520004F726967656E202573205072692E
:1006E0006D2E00486F6D6520257320466972737406
:1006F00000446573666173652061706C6963616451
:1007000061004D494E2F4D415820546F6F20466176
:100710007200546F6F206661722066726F6D204D9B
:10072000494E2F4D41580A00454550524F4D204FDC
:100730004B0A0073706563696679696E6720445877
:10074000435F4D4952524F5245445F4D4F44452EF1
:100750000A005072696E746572206D757374206240
:100760006520696E204458435F4455504C494341CD
:1007700054494F4E5F4D4F4445207072696F72204F
:10078000746F200A00446F6E65207072696E746920
:100790006E672066696C650A004D3737004D33314E
:1007A000004163746976652045787472756465727A
:1007B0003A200020204D323036205800486F6D65B9
:1007C000206F6666736574004361703A00434F4E54
:1007D0004649475F4558504F5254004D454154508B
:1007E00041434B00434F4F4C45525F54454D50459C
:1007F000524154555245004348414D4245525F5481
:10080000454D50455241545552450042414259537D
:1008100054455050494E470041524353004D4F54A8
:10082000494F4E5F4D4F44455300544845524D414A
:100830004C5F50524F54454354494F4E0045585415
:10084000454E4445445F4D323000435553544F4D5F
:100850005F4649524D574152455F55504C4F4144B8
:10086000004C464E5F5752495445004C4F4E475F2F
:1008700046494C454E414D45004155544F52455017
:100880004F52545F53445F535441545553005344A3
:100890005F575249544500524550454154004D550B
:1008A0004C54495F564F4C554D45005344434152BB
:1008B000440050524F4D50545F535550504F525476
:1008C00000484F53545F414354494F4E5F434F4D8F
:1008D0004D414E445300454D455247454E43595FA7
:1008E00050415253455200434153455F4C4947489C
:1008F000545F4252494748544E45535300544F4762
:10090000474C455F4C494748545300534F46545752
:100910004152455F504F574552004255494C445F44
:1009200050455243454E54004C4556454C494E4760
:100930005F44415441005A5F50524F424500525566
:100940004E4F5554004155544F4C4556454C005060
:1009500052494E545F4A4F420050524F47524553FE
:1009600053004155544F5245504F52545F54454DDA
:1009700050004155544F5245504F52545F504F53C1
:1009800000564F4C554D4554524943004545505231
:100990004F4D0042494E4152595F46494C455F54C4
:1009A00052414E534645520053455249414C5F58BF
:1009B0004F4E5F584F4646004649524D57415245AB
:1009C0005F4E414D453A4D61726C696E20322E3159
:1009D0002E322E38202853657020203320323032BA
:1009E000362032333A35373A33382920534F55526F
:1009F00043455F434F44455F55524C3A67697468BD
:100A000075622E636F6D2F4D61726C696E466972EF
:100A10006D776172652F4D61726C696E2050524F17
:100A2000544F434F4C5F56455253494F4E3A312E27
:100A300030204D414348494E455F545950453A5343
:100A400049524955532033303020494445582045B8
:100A5000585452554445525F434F554E543A3220F4
:100A6000555549443A63656465326132662D3431C7
:100A700061322D343734382D396231322D633535BA
:100A8000633632663336376666006F6B0A0052652E
:100A900073656E643A20002569730025696D202511
:100AA0006973002569682025696D20256973002513
:100AB0006964202569682025696D202569730025F2
:100AC000697920256964202569682025696D2025BC
:100AD00069730020573A00456E667269616E646FF3
:100AE0002E2E2E004525632025530020573A004521
:100AF0006E667269616E646F2043616D612E2E2E89
:100B00000043616C656E74616E646F2043616D615A
:100B10002E2E2E0023646566696E6520444546418D
:100B2000554C545F004B4420004B4920004B502053
:100B3000002066696E6973686564212050757420B1
:100B4000746865206C617374204B702C204B692095
:100B5000616E64204B6420636F6E7374616E747396
:100B60002066726F6D2062656C6F7720696E746F9E
:100B700020436F6E66696775726174696F6E2E6867
:100B80000A00504944204175746F74756E650020E9
:100B90006661696C6564212074696D656F75740A9E
:100BA00000504944204175746F74756E650020666D
:100BB00061696C6564212054656D7065726174753E
:100BC000726520746F6F20686967680A0050494435
:100BD000204175746F74756E6500504944204379E7
:100BE000636C65730025532025692F256900204B10
:100BF000643A2000204B693A2000204B703A2000D4
:100C000020436C617373696320504944200A0020BB
:100C100054753A2000204B753A2000206D61783AD7
:100C20002000206D696E3A200020643A2000206286
:100C30006961733A200043616C656E74616E646F24
:100C40002E2E2E002073746172740A0050494420C5
:100C50004175746F74756E6500206661696C6564BA
:100C6000212054656D706572617475726520746FB2
:100C70006F20686967680A00504944204175746FA5
:100C800074756E6500504944204175746F2D616A1A
:100C900075737465003F28432979636C6573206E12
:100CA0006F7420706C61757369626C6520283E3DBD
:100CB00033292E0A00206661696C65642120426137
:100CC00064206865617465722069640A0050494453
:100CD000204175746F74756E65004572723A2075A7
:100CE00074663820666F6E74206E6F7420696E694A
:100CF0007469616C697A65642E004572723A207578
:100D000074663820666F6E74206E6F7420696E6929
:100D10007469616C697A65642E004572723A207557
:100D200074663820666F6E74206E6F7420696E6909
:100D30007469616C697A65642E00200020002000CF
:100D40003A003A002568753A25303268750025303A
:100D50003268753A2530326875002530326875275B
:100D60002530326875002568756420253032687535
:100D70003A25303268750043616D610052656369E0
:100D80006E746F00450020002500202020202020C8
:100D9000200020202020006572720033021B0263B5
:100DA000024B023FFFF038007030FC3020FC102076
:100DB00078102030102C00D02E31D02F7BD02F7BFC
:100DC000D02E31D02C00D020301020781020FC10F4
:100DD00030FC303800703FFFF03FFFF038007031DA
:100DE00086302387102787902F87D02F03D020307D
:100DF000102078102078102030102F03D02F87D0AB
:100E00002787902387103186303800703FFFF01F0E
:100E1000FFF81FFFF8041040020820020820041009
:100E2000400820801041001041000820800410403C
:100E30000000001FFFF81FFFF8496D7072657369AD
:100E4000C3B36E2063616E63656C616461004D3293
:100E5000350050617573696E672E2E2E004D323449
:100E6000003F0049676E6F7265005265696E696385
:100E700069617200496E696369616C697A617220A7
:100E8000454550524F4D004469C3A16D6574726F62
:100E90002046696C2E202A004469C3A16D657472D6
:100EA0006F2046696C2E004520656E206D6DC2B3C3
:100EB00000200820466163746F72002008204D6195
:100EC00078002008204D696E0041706700456E6310
:100ED0000054656D702E204175746F6D2E0056653F
:100EE0006C2E207669616A65206D696E00566D69A9
:100EF0006E004D6178204020537065656400416349
:100F0000656C2E206D617845004163656C2E206D07
:100F1000617840004163656C2E205669616A650006
:100F20004163656C2E207265747261632E004163AB
:100F3000656C6572616369C3B36E004D6178204072
:100F4000204A65726B0040207061736F732F6D6D66
:100F500000416A7573746573206176616E7A6164AD
:100F60006F73003F0043616E63656C617200496E90
:100F70006963696172004D34323800496E69636992
:100F8000616C697A617220454550524F4D00466947
:100F90006C616D656E746F0054656D70657261741F
:100FA000757261005061736F732F6D6D004A6572C9
:100FB0006B00416363656C6572616369C3B36E0006
:100FC0004D61782056656C6F636964616400416AA5
:100FD0007573746172206465736661736573004331
:100FE0006F6E6669677572616369C3B36E00417540
:100FF0006D656E746172205A0032C2AA2046757304
:101000006F722040004475706C696361746520588C
:101010002D47617000436F6E74726F6C20546F7453
:10102000616C004D36303553300A47323858004332
:101030006F706961205265666C656A616461004D1C
:1010400036303553310A54300A4D36303553320A72
:1010500047323820580A473158300A4D3630355318
:1010600033004D36303553310A54300A4732380A8E
:101070004D36303553320A473238580A47315830E6
:101080000A4D3630355333004475706C69636172B4
:10109000004D36303553310A54300A4D3630355311
:1010A000320A473238580A47315830004D36303509
:1010B00053310A54300A4732380A4D3630355332EC
:1010C0000A473238580A47315830004175746F2D3D
:1010D000417061726361646F004D36303553310A7F
:1010E000473238580A473158300043616D61004239
:1010F0006F7175696C6C610056656E74696C6164C2
:101100006F7200436F6E6669677572616369C3B31E
:101110006E00526573742E2066C3A16272696361AA
:101120000043617267617220454550524F4D004740
:1011300075617264617220454550524F4D00507286
:101140006563616C2E202420416A757374650043C9
:10115000616D626961722048657272616D69656E68
:101160007461004D6F646F204944455800446573B5
:10117000666173652048657272616D69656E746140
:1011800000416A7573746573206176616E7A61647B
:101190006F73004D656EC3BA207072696E636970BB
:1011A000616C003E2000256C642E25696D00546F33
:1011B00074616C20457874727569646F003E20001C
:1011C000496D7072657369C3B36E206DC3A17320DE
:1011D0006C61726761003E20005469656D706F201C
:1011E000746F74616C20646520696D702E00436FAC
:1011F0006D706C657461646173003A2000436F6EBA
:10120000742E20646520696D7072657369C3B36E56
:10121000003A20003132300035004245443A204542
:1012200050434F53203130304B00323530003500C1
:1012300045323A204154432031303447542D320056
:101240005669672E20467567612054C3A9726D2EBA
:101250003A204F4E0054656D702E204DC3A1786921
:101260006D61003235300054656D702E204DC3AD78
:101270006E696D6100350045313A2041544320319B
:10128000303447542D320000091200FC0A01E803F3
:10129000D720FFFD0EFD0BFD00000009000E010B25
:1012A0000B090400808080808080800000808004A2
:1012B000040409030790909090080A0A090000248A
:1012C0002424FF2424FF242424070B0B0901FF10EE
:1012D0007C929050381412927C10070A0A0901007F
:1012E00042A4A4481010244A4A84070A0A090100AB
:1012F00060909090606294889462010404090407ED
:1013000080808080030C0C0903FF20404080808097
:10131000808080404020030C0C0903FF8040402067
:101320002020202020404080070707090103109259
:101330005438549210070707090101101010FE10CD
:1013400010100204040904FEC0C040800701010916
:101350000104FE020202090400C0C0070A0A0901D2
:101360000002040408101020404080070A0A090106
:101370000038448282828282824438070A0A090144
:1013800000103050901010101010FE070A0A0901CA
:1013900000384482020408102040FE070A0A0901AE
:1013A00000FE020408180402028478070A0A0901F0
:1013B00000040C14244484FE040404070A0A0901EE
:1013C00000FE808080F80402028478070A0A09017E
:1013D000003C408080B8C482824438070A0A090170
:1013E00000FE020404080810101010070A0A090180
:1013F0000038448244384482824438070A0A09018A
:101400000038448282463A0202047802070709043F
:1014100000C0C0000000C0C00209090904FEC0C02D
:10142000000000C0C0408005090909020008102022
:10143000408040201008070404090102FE0000FE5D
:10144000050909090200804020100810204080078B
:101450000A0A09010038448202040810100010072B
:101460000A0A09010038449AAAAAAAAA9C403C0781
:101470000A0A09010010282828447C448282820735
:101480000A0A090100F8848284F884828284F807B9
:101490000A0A0901003C42808080808080423C072B
:1014A0000A0A090100F88482828282828284F80713
:1014B0000A0A090100FE808080F880808080FE0793
:1014C0000A0A090100FE808080F880808080800701
:1014D0000A0A09010038448280808E8282443807DB
:1014E0000A0A09010082828282FE82828282820549
:1014F0000A0A090200F82020202020202020F807D6
:101500000A0A0901003E08080808080888887007C8
:101510000A0A09010082848890A0D0888482820708
:101520000A0A090100808080808080808080FE0718
:101530000A0A0901008282C6AA92828282828207F6
:101540000A0A0901008282C2A2928A8682828207E6
:101550000A0A0901007C82828282828282827C075E
:101560000A0A090100F884828284F8808080800859
:101570000B0B0901FF384482828282828A443A013D
:10158000070A0A090100F884828284F8908884821C
:10159000070A0A0901007C8280807C020202827CA8
:1015A000070A0A090100FE10101010101010101088
:1015B000070A0A090100828282828282828244387A
:1015C000070A0A090100828282444444282828101C
:1015D000070A0A0901008282828292929292AA44A8
:1015E000070A0A09010082824428101028448282D6
:1015F000070A0A09010082824428101010101010F6
:10160000070A0A090100FE0204081020408080FE3B
:10161000040C0C0903FFF080808080808080808033
:1016200080F0070A0A0901008040402010100804D9
:101630000402040C0C0902FFF0101010101010101E
:10164000101010F007040409010610284482080154
:10165000010900FFFF03030309030A804020070775
:10166000070901007C02027E82867A070A0A0901C4
:1016700000808080BCC2828282C2BC070707090149
:10168000007C82808080827C070A0A0901000202B5
:10169000027A86828282867A0707070901007C82A5
:1016A00082FE80827C070A0A0901001C2222202077
:1016B000F820202020070A0A0901FD7A8484847812
:1016C000807C82827C070A0A090100808080BCC27B
:1016D0008282828282050A0A090200600000E020FC
:1016E00020202020F8050D0D0902FD180000380803
:1016F0000808080808888870070A0A09010080801D
:1017000080848890B0C88482050A0A090200E0201B
:1017100020202020202020F8070707090100EC9254
:101720009292929282070707090100BCC2828282CC
:1017300082820707070901007C82828282827C07FD
:101740000A0A0901FDB8C4828282C4B88080800779
:101750000A0A0901FD3A46828282463A02020207DB
:1017600007070901009C6242404040400707070903
:1017700001007C82807C02827C070909090100202B
:1017800020FC20202020221C07070709010082825C
:10179000828282867A0707070901008282444428F0
:1017A00028100707070901008282929292AA440733
:1017B000070709010082442810284482070A0A0901
:1017C00001FD4242242424181810906007070709DD
:1017D0000100FE0408102040FE060B0B0902001C4D
:1017E00020202020C0202020201C010C0C0904FFF8
:1017F000808080808080808080808080060B0B09C4
:101800000100E0101010100C10101010E00703037E
:1018100009010762928CFFFFFFFFFFFFFFFFFFFF41
:10182000FFFFFFFFFFFFFFFFFFFFFFFFFFFFFFFFC8
:10183000FFFFFFFFFFFFFF00000009000E010B0B81
:1018400009040080800000808080808080800608FD
:101850000809010008789490A0A47840070A0A09B2
:1018600001001C222020F8202060A25C0706060947
:101870000103827C44447C82070A0A0901008282B7
:1018800044287C107C101010010B0B0904FF808091
:10189000808080008080808080040B0B0902FF60C4
:1018A0009080609090906010906003020209030B9A
:1018B000A0A00809090900013C4299A5A1A59942E7
:1018C0003C050707090103609070907800F807084D
:1018D00008090101122448909048241206040409C2
:1018E0000102FC040404050101090204F8080909C5
:1018F0000900013C42B9A5BDA9A5423C0601010968
:101900000109FC04040409030660909060070909BA
:10191000090101101010FE10101000FE0406060947
:1019200001046090106080F00406060901046090D4
:101930002010906003030309030A2040800709096F
:101940000901FE8282828282C6BA8080070A0A0961
:1019500001007E8A8A8A7A0A0A0A0A0A02020209AF
:101960000404C0C00403030902FD209060030606BE
:1019700009010440C0404040E0050606090104702A
:1019800088887000F807080809010190482412129D
:10199000244890070A0A09010040C0404042E60A74
:1019A000121A06070A0A09010040C040404CF20220
:1019B0000C101E070A0A0901006090201092660AA6
:1019C000121A06070A0A09010010001010204080B0
:1019D00082827C070E0E09010020100800102828C2
:1019E00028447C44828282070E0E090100081020E0
:1019F0000010282828447C44828282070E0E0901A8
:101A0000001028440010282828447C448282820741
:101A10000D0D09010034580010282828447C448208
:101A20008282070D0D09010028280010282828446B
:101A30007C44828282070E0E0901001028281010B3
:101A4000282828447C44828282070A0A0901001E51
:101A50002828284E784888888E070D0D0901FD3CFE
:101A600042808080808080423C082418070E0E0946
:101A7000010020100800FE808080F880808080FEB9
:101A8000070E0E09010008102000FE808080F880FB
:101A9000808080FE070E0E09010010284400FE80A1
:101AA0008080F880808080FE070D0D0901002828C5
:101AB00000FE808080F880808080FE050E0E090286
:101AC0000040201000F82020202020202020F805B1
:101AD0000E0E09020010204000F8202020202020B7
:101AE0002020F8050E0E09020020508800F8202062
:101AF000202020202020F8050D0D09020050500064
:101B0000F82020202020202020F8070A0A090100C0
:101B100078444242F24242424478070D0D090100E6
:101B20003458008282C2A2928A86828282070E0E76
:101B3000090100201008007C8282828282828282D7
:101B40007C070E0E090100081020007C8282828230
:101B5000828282827C070E0E090100102844007CDC
:101B600082828282828282827C070D0D090100348A
:101B700058007C82828282828282827C070D0D09DB
:101B800001002828007C82828282828282827C07F5
:101B9000070709010182442810284482070C0C0918
:101BA00001FF027C868A8A9292A2A2C27C80070EE2
:101BB0000E090100201008008282828282828282C5
:101BC0004438070E0E09010008102000828282822C
:101BD000828282824438070E0E09010010284400D8
:101BE00082828282828282824438070D0D0901003E
:101BF00028280082828282828282824438070E0EE6
:101C000009010008102000828244281010101010D2
:101C100010070A0A0901008080FC828282FC808011
:101C200080060A0A09010038444448D04844444424
:101C300058070B0B090100201008007C02027E826D
:101C4000867A070B0B090100081020007C02027E37
:101C500082867A070B0B090100102844007C0202DF
:101C60007E82867A070A0A0901003458007C020243
:101C70007E82867A070A0A0901002828007C02026F
:101C80007E82867A070C0C09010010282810007C3F
:101C900002027E82867A0707070901006C12127E13
:101CA00090926C070A0A0901FD7C82808080827C08
:101CB000104830070B0B090100201008007C8282BD
:101CC000FE80827C070B0B090100081020007C823B
:101CD00082FE80827C070B0B090100102844007CE7
:101CE0008282FE80827C070A0A0901002828007C83
:101CF0008282FE80827C050C0C090200804020005C
:101D000000E02020202020F8050C0C090200102003
:101D1000400000E02020202020F8050C0C090200E3
:101D20002050880000E02020202020F8050B0B091F
:101D3000020050500000E02020202020F8070B0B6C
:101D4000090100483050083C448282824438070A26
:101D50000A090100345800BCC28282828282070BC9
:101D60000B090100201008007C82828282827C079D
:101D70000B0B090100081020007C82828282827C89
:101D8000070B0B090100102844007C8282828282AA
:101D90007C070A0A0901003458007C828282828210
:101DA0007C070A0A0901002828007C82828282823C
:101DB0007C07090909010010381000FE00103810D6
:101DC0000709090901FF027C8A8A92A2A27C800786
:101DD0000B0B090100402010008282828282867AE9
:101DE000070B0B0901000810200082828282828684
:101DF0007A070B0B0901001028440082828282823C
:101E0000867A070A0A0901002828008282828282D3
:101E1000867A070E0E0901FD0408100042422424B0
:101E2000241818109060070B0B0901FE8080B8C4BD
:101E3000828282C4B88080070D0D0901FD24240030
:101E400042422424241818109060000C0F00FE0752
:101E5000022503BB01FFFE0AFE08FE050808060076
:101E60000040F0C88888987810050808060000C06F
:101E7000F88888888888F80505050600012030F86C
:101E800030200508080600002070F820202020E0FF
:101E90000509090600FF2070A8A8B88888702007E7
:101EA0000505070001D86C366CD80509090600FF46
:101EB000F8A88888888888A8F8050A0A0600FE20FD
:101EC0005050505088A8A8887003030306000340B0
:101ED000A040FFFFFFFFFFFFFFFFFFFFFFFFFFFF30
:101EE000FFFFFFFFFFFFFFFF0000000605FF0107E8
:101EF00007060200808080808000800303030601C3
:101F000005A0A0A005060606000050F85050F850A5
:101F10000509090600FF2070A8A07028A8702005F8
:101F20000707060000C8C810204098980507070654
:101F3000000040A0A040A8906801030306020580AD
:101F400080800309090601FF2040408080804040D6
:101F5000200309090601FF804040202020404080E6
:101F600005070706000020A8702070A820050505B9
:101F70000600012020F820200203030601FFC040D4
:101F800080050101060003F8020202060100C0C03C
:101F900005070706000008101020404080050707CD
:101FA000060000708898A8C888700307070601001B
:101FB00040C040404040E005070706000070880828
:101FC000102040F8050707060000F80810300888C0
:101FD0007005070706000010305090F81010050734
:101FE00007060000F880F00808887005070706005B
:101FF00000304080F0888870050707060000F80868
:1020000010102020200507070600007088887088BF
:10201000887005070706000070888878081060023D
:102020000505060100C0C000C0C00206060601FF8B
:10203000C0C000C04080030505060101204080406B
:1020400020050303060002F800F803050506010158
:10205000804020408005070706000070881020207F
:1020600000200507070600007088B8A8B880700532
:102070000707060000708888F88888880507070623
:102080000000F04848704848F00507070600007057
:10209000888080808870050707060000F04848485F
:1020A0004848F0050707060000F88080F08080F8B7
:1020B000050707060000F88080F08080800507078C
:1020C0000600007088808098887005070706000069
:1020D000888888F8888888030707060100E0404060
:1020E000404040E00507070600003810101010902F
:1020F000600507070600008890A0C0A0908805072B
:1021000007060000808080808080F80507070600B1
:102110000088D8A88888888805070706000088886E
:10212000C8A89888880507070600007088888888EE
:102130008870050707060000F08888F08080800519
:10214000070706000070888888A8906805070706BA
:102150000000F08888F0A09088050707060000704E
:10216000888070088870050707060000F820202086
:102170002020200507070600008888888888887046
:102180000507070600008888888850502005070743
:1021900006000088888888A8A85005070706000060
:1021A00088885020508888050707060000888850D6
:1021B00020202020050707060000F8081020408096
:1021C000F80309090601FFE080808080808080E0BC
:1021D0000507070600008040402010100803090989
:1021E0000601FFE020202020202020E00503030638
:1021F00000052050880501010600FEF803030306D0
:1022000001058040200505050600007008788878E3
:102210000507070600008080F0888888F00505051E
:102220000600007080808870050707060000080817
:1022300078888888780505050600007088F0807029
:10224000050707060000304840E04040400507070A
:102250000600FE7088888878087005070706000069
:102260008080F0888888880307070601004000C046
:10227000404040E00409090601FE10003010101033
:1022800010906005070706000080808890E0908825
:10229000030707060100C04040404040E005050537
:1022A000060000D0A8A8A8A8050505060000B0C82B
:1022B00088888805050506000070888888700507ED
:1022C000070600FEF0888888F08080050707060072
:1022D000FE78888888780808050505060000B0C8DB
:1022E00080808005050506000078807008F00507ED
:1022F000070600002020F82020201805050506000C
:102300000088888898680505050600008888885038
:10231000200505050600008888A8A85005050506C3
:10232000000088502050880507070600FE8888882E
:1023300050204080050505060000F8102040F803F5
:1023400009090601FF20404040804040402001092B
:10235000090602FF808080808080808080030909D8
:102360000601FF80404040204040408005030306B6
:10237000000248A890FFFFFFFFFFFFFFFFFFFFFFE6
:10238000FFFFFFFFFFFFFFFFFFFFFFFFFFFFFFFF5D
:10239000FFFFFFFFFFFF0000000605FF0107070624
:1023A0000200800080808080800507070600FF20F3
:1023B00070A8A0A87020050707060000304840E07C
:1023C0004048B0050505060000A8508850A805073C
:1023D000070600008850F820F820200107070602B1
:1023E00000808080008080800408080601007080E2
:1023F0006090906010E0030101060107A006070746
:102400000600007884B4A4B48478030505060104AA
:1024100060A06000E00505050600002850A05028D7
:10242000050303060001F80808030101060103E0A3
:102430000607070600007884B4A4A4847805010187
:10244000060007F804040406010560909060050783
:10245000070600002020F8202000F80305050601EB
:102460000440A02040E0030505060104C0204020F0
:10247000C00303030601052040800507070600FE90
:1024800088888898E8808005080806000078E8E8D1
:10249000E868282828020202060203C0C0030202DC
:1024A0000601FE20C003050506010440C04040E0CF
:1024B00003050506010540A04000E00505050600EE
:1024C00000A0502850A0050A0A06000040C048504D
:1024D0006050B0507810050A0A06000040C048500D
:1024E0006050A8081038050A0A060000C0204830CD
:1024F000E050B050781005070706000020002020AB
:10250000408870050A0A060000402000708888F89C
:10251000888888050A0A060000102000708888F85C
:10252000888888050A0A060000205000708888F80C
:10253000888888050A0A06000068B000708888F854
:102540008888880509090600005000708888F88886
:102550008888050A0A060000205020708888F888BC
:10256000888805070706000078A0A0F0A0A0B8059D
:1025700009090600FE708880808088701060050A56
:102580000A060000402000F88080F08080F8050AEC
:102590000A060000102000F88080F08080F8050A0C
:1025A0000A060000205000F88080F08080F80509BD
:1025B000090600005000F88080F08080F8030A0AC5
:1025C000060100804000E04040404040E0030A0A2D
:1025D000060100204000E04040404040E0030A0A7D
:1025E00006010040A000E04040404040E0030909EF
:1025F000060100A000E04040404040E0050707061B
:102600000000704848E8484870050A0A060000685B
:10261000B0008888C8A8988888050A0A0600004083
:10262000200070888888888870050A0A06000010D3
:10263000200070888888888870050A0A06000020B3
:10264000500070888888888870050A0A060000682B
:10265000B0007088888888887005090906000050D5
:1026600000708888888888700505050600018850F4
:102670002050880509090600FF087098A8A8A8C876
:102680007080050A0A060000402000888888888833
:102690008870050A0A06000010200088888888884B
:1026A0008870050A0A0600002050008888888888FB
:1026B0008870050909060000500088888888888885
:1026C00070050A0A0600001020008888502020208B
:1026D0002004070706010080E0909090E080050745
:1026E00007060000708890A09088B00508080600D2
:1026F000004020007008788878050808060000105F
:10270000200070087888780508080600002050002E
:10271000700878887805080806000068B00070081E
:1027200078887805070706000050007008788878D8
:1027300005080806000020502070087888780505F4
:1027400005060000702870A0780507070600FE70D7
:10275000888088701060050808060000402000701E
:1027600088F080700508080600001020007088F0CE
:1027700080700508080600002050007088F0807006
:1027800005070706000050007088F08070030808F5
:10279000060100804000C0404040E00308080601F8
:1027A00000204000C0404040E0030808060100400F
:1027B000A000C0404040E0030707060100A000C0A1
:1027C000404040E005090906000050205008788884
:1027D00088887005080806000068B000B0C88888BE
:1027E0008805080806000040200070888888700569
:1027F0000808060000102000708888887005080806
:1028000006000020500070888888700508080600BF
:102810000068B000708888887005070706000050BF
:102820000070888888700505050600012000F80002
:10283000200505050600007898A8C8F005080806D8
:10284000000040200088888888700508080600007D
:10285000102000888888887005080806000020502D
:10286000008888888870050707060000500088885F
:10287000888870050A0A0600FE10200088888850A3
:102880002040800509090600FE8080F0888888F0D5
:1028900080800509090600FE500088888850204085
:1028A0008041425300504C41004572723A204545E8
:1028B00050524F4D20436F727275707400457272A2
:1028C0003A20454550524F4D2043524300457272C5
:1028D0003A20454550524F4D2054616D61C3B16F50
:1028E000004572723A205665727369C3B36E204513
:1028F0004550524F4D00462E20416C696D656E74F7
:102900002E0047656E657269630050726F746F6365
:102910006F6C6F00312E300042617564696F730017
:102920003131353230300052756D62610045787456
:102930007275736F7265730032006D61726C696ECF
:1029400066772E6F726700534952495553203330D2
:1029500030204944455800323032362D30362D3241
:102960003400322E312E322E38004D61726C696E79
:10297000004573746164C3AD737469636173204906
:102980006D702E005465726D6973746F726573009B
:10299000496E666F2E20436F6E74726F6C61646F48
:1029A0007200496E666F2E20496D707265736F728A
:1029B00061004D656EC3BA207072696E63697061A3
:1029C0006C003F00417472C3A17300506172617268
:1029D0000053442F4644206E6F2070726573656EFD
:1029E000746500496D7072696D2E2064657364654D
:1029F0002053442F46440043616D62696172205345
:102A0000442F4644004D323100496E666F2E2049F6
:102A10006D707265736F726100436F6E6669677582
:102A200072616369C3B36E0054656D7065726174E1
:102A3000757261004D6F76696D69656E746F0052D5
:102A400065616E7564617220696D7072657369C3CA
:102A5000B36E00416A757374617200446574656E8B
:102A6000657220696D7072657369C3B36E005061E1
:102A70007573617220696D7072657369C3B36E009E
:102A800050616E74616C6C6120646520496E662EC5
:102A9000003F00496E696369617220696D707265FB
:102AA0007369C3B36E0043616E63656C6172004904
:102AB0006D7072696D69720043616E6E6F7420652E
:102AC0006E746572207375626469723A2000022028
:102AD0002E2E004D656EC3BA207072696E636970E8
:102AE000616C004D6F76657220246D6D00302E3064
:102AF0003235004D6F76657220302E316D6D004D90
:102B00006F76657220316D6D004D6F766572203184
:102B1000306D6D002100486F74656E64206D7579AD
:102B2000206672696F00417472C3A1730050726FA6
:102B30006365646572004578747275736F72202ADC
:102B4000004578747275736F720053656C656363CA
:102B5000696F6E6172202A005431005430004D6F4D
:102B60007665722040004D6F76696D69656E746F91
:102B700000417061676172206D6F746F72657300E0
:102B80004D3834004732385A004732385900486FC0
:102B90006D6520400047323858004C6C6576617294
:102BA00020616C206F726967656E00473238004D96
:102BB0006F76657220656A6573004D656EC3BA20D5
:102BC0007072696E636970616C0050726563616CEC
:102BD0002E20242043616D610050726563616C2E6C
:102BE000202420546F646F0050726563616C2E2046
:102BF00024204675736F72207E0050726563616C8D
:102C00002E2024207E0054656D706572617475728B
:102C10006100A528A128456E667269617200507234
:102C20006563616C2E20240056656E74696C616466
:102C30006F720043616D6100426F7175696C6C6108
:102C4000207E004D656EC3BA207072696E63697034
:102C5000616C004D6963726F7061736F2058004D35
:102C60006963726F7061736F2059004D6963726F91
:102C70007061736F205A004D6963726F7061736F7A
:102C8000204000466C756A6F207E00466C756A6F46
:102C90000056656E74696C61646F720043616D61AA
:102CA00000426F7175696C6C61207E0056656C6FB7
:102CB0006369646164004D656EC3BA207072696EA9
:102CC000636970616C0049722061206F7269676589
:102CD0006E2046616C6C61646F006F70656E0054AD
:102CE0005249474745524544003A20007A5F6D6992
:102CF0006E00795F6D696E00785F6D617800785F56
:102D00006D696E005265706F7274696E6720656ED2
:102D10006473746F70207374617475730A00207427
:102D20006F6F206C6F6E6720657874727573696F52
:102D30006E2070726576656E7465640A0020636F3C
:102D40006C6420657874727573696F6E207072653B
:102D500076656E7465640A00000040C2000040C1E0
:102D6000000000005761726E696E673A20486F6D0F
:102D7000696E672042756D702044697669736F7261
:102D8000203C20310A000404020080AB43008099FB
:102D900043008089430000404000004040000000A4
:102DA0004020746F6F206C6F6E6720657874727549
:102DB00073696F6E2070726576656E7465640A0063
:102DC00020636F6C6420657874727573696F6E2010
:102DD00070726576656E7465640A00536574746913
:102DE0006E67732053746F72656400290A00206255
:102DF000797465733B206372632000536574746952
:102E00006E67732053746F72656420280048617286
:102E100064636F6465642044656661756C742053F7
:102E2000657474696E6773204C6F6164656400201B
:102E3000286D6D29002046002042002048002020F7
:102E40004D3134352053004D6174657269616C20D9
:102E500068656174757020706172616D657465720A
:102E6000730020204D3134392043203B20556E69BA
:102E7000747320696E2043656C736975730A00541E
:102E8000656D706572617475726520556E697473D5
:102E9000002020473231203B004C696E6561722072
:102EA000556E69747300454550524F4D20646174EE
:102EB0006173697A65206572726F722E0A0020282C
:102EC00063616C63756C6174656429210A0020215B
:102ED0003D2000454550524F4D20435243206D69DF
:102EE000736D61746368202D202873746F7265643C
:102EF000292000454550524F4D20436F7272757026
:102F0000740A002053697A653A2000496E64657836
:102F10003A2000290A002062797465733B206372AD
:102F20006320002073746F72656420736574746924
:102F30006E67732072657472696576656420280017
:102F400000007A4300001643000070410000A042D8
:102F50004861A0424861A0420000C8430000C0424E
:102F6000D007000084030000640000001027000068
:102F7000204D61726C696E3D563838290A0045450E
:102F800050524F4D2076657273696F6E206D697374
:102F90006D617463682028454550524F4D3D0020B7
:102FA000436F756E7420583A00000145320043614A
:102FB0006D61004531004500626564002C20737925
:102FC0007374656D2073746F70706564212048653B
:102FD000617465725F49443A20004572723A544503
:102FE0004D502E204DC38158004D415854454D50F1
:102FF000207472696767657265640043616C656E11
:10300000742E2066616C6C69646F00486561746938
:103010006E67206661696C656400200140013001C3
:103020003B01400136016001310170012C0190012A
:103030002701B0012201C0011D01F0011801100299
:10304000130130020E016002090190020401C00266
:10305000FF000003FA004003F5008003F000D003F6
:10306000EB002004E6007004E100E004DC00400511
:10307000D700C005D2004006CD00D006C8008007AA
:10308000C3003008BE00F008B900C009B400B00A9F
:10309000AF00B00BAA00D00CA500000EA000500F8E
:1030A0009B00C01096005012910000148C00C015B7
:1030B0008700B0178200B0197D00D01B7800001E79
:1030C000730040206E0090226900F02464004027C5
:1030D0005F0090295A00E02B5500102E5000203040
:1030E0004B0010324600E033410090353C00103771
:1030F000370070383200A0392D00B03A2800A03BCC
:103100002300603C1E00103D1900903D1400103E4D
:103110000F00703E0A00C03E0500003F0000403F27
:10312000FBFF803FF6FFC03FF1FF4572723A544506
:103130004D502E204D494E004D494E54454D502086
:10314000747269676765726564004655474120542B
:10315000C389524D49434100546865726D616C20CA
:1031600052756E6177617900202F00204000204267
:10317000403A0020403A00496E76616C69642065EF
:10318000787472756465720A0041637469766520AB
:1031900045787472756465723A20000009121B2428
:1031A0002D363F48415A536C657E7719100B023D0E
:1031B000342F265158434A757C676E323B202916BE
:1031C0001F040D7A7368615E574C452B2239300F0E
:1031D000061D14636A7178474E555C646D767F40B6
:1031E00049525B2C253E3708011A137D746F6659CE
:1031F000504B42353C272E1118030A565F444D723E
:103200007B60691E170C053A3328214F465D546BCD
:10321000627970070E151C232A31384148535A65CC
:103220006C777E09001B122D243F3658514A437C8F
:10323000756E671019020B343D262F737A6168573B
:103240005E454C3B3229201F160D046A6378714E8F
:10325000475C55222B3039060F141D252C373E01B3
:1032600008131A6D647F7649405B523C352E27184F
:10327000110A03747D666F5059424B171E050C33BB
:103280003A21285F564D447B7269600E071C152A4F
:10329000233831464F545D626B7079000021104233
:1032A0002063308440A550C660E770088129914AA8
:1032B000A16BB18CC1ADD1CEE1EFF131121002732F
:1032C000325222B5529442F772D662399318837BF8
:1032D000B35AA3BDD39CC3FFF3DEE362244334207F
:1032E000040114E664C774A44485546AA54BB52848
:1032F000850995EEE5CFF5ACC58DD553367226110F
:10330000163006D776F6669556B4465BB77AA71997
:10331000973887DFF7FEE79DD7BCC7C448E55886D6
:1033200068A7784008611802282338CCC9EDD98EE7
:10333000E9AFF9488969990AA92BB9F55AD44AB76E
:103340007A966A711A500A333A122AFDDBDCCBBF37
:10335000FB9EEB799B588B3BBB1AABA66C877CE43E
:103360004CC55C222C033C600C411CAEED8FFDEC87
:10337000CDCDDD2AAD0BBD688D499D977EB66ED54E
:103380005EF44E133E322E511E700E9FFFBEEFDDD7
:10339000DFFCCF1BBF3AAF599F788F8891A981CAB4
:1033A000B1EBA10CD12DC14EF16FE18010A100C293
:1033B00030E3200450254046706760B9839893FB42
:1033C000A3DAB33DC31CD37FE35EF3B1029012F3E3
:1033D00022D2323542145277625672EAB5CBA5A892
:1033E0009589856EF54FE52CD50DC5E234C324A033
:1033F0001481046674476424540544DBA7FAB79922
:1034000087B8975FE77EF71DC73CD7D326F2369182
:1034100006B01657667676154634564CD96DC90EE9
:10342000F92FE9C899E9898AB9ABA94458654806D2
:10343000782768C018E1088238A3287DCB5CDB3F81
:10344000EB1EFBF98BD89BBBAB9ABB754A545A3722
:103450006A167AF10AD01AB32A923A2EFD0FED6C51
:10346000DD4DCDAABD8BADE89DC98D267C076C6472
:103470005C454CA23C832CE01CC10C1FEF3EFF5D61
:10348000CF7CDF9BAFBABFD98FF89F176E367E55C2
:103490004E745E932EB23ED10EF01E7C3C3E5E2BEF
:1034A0003D3F2F5B5D3B2C2A225C0046616C6C6FBC
:1034B00020616C20696E69636961722053442F46F4
:1034C000440053442063617264206F6B0A006F7084
:1034D000656E526F6F74206661696C65640A007670
:1034E0006F6C756D652E696E6974206661696C65B7
:1034F000640A004E6F20534420636172640A0053D3
:103500004420636172642072656C65617365640A4E
:10351000000A4D3234004D3233202573002E0A004C
:103520006F70656E206661696C65642C2046696CFD
:10353000653A200046696C652073656C6563746547
:10354000640A002053697A653A200046696C652058
:103550006F70656E65643A2000454E4420535542B5
:10356000524F5554494E450A002220706F73002275
:1035700020706172656E743A2200535542524F5565
:1035800054494E452043414C4C2074617267657428
:103590003A2200446573626F7264616D69656E748E
:1035A0006F206465207375626C6C616D616461008D
:1035B0004578636565646564206D61782053554284
:1035C000524F5554494E452064657074683A00570F
:1035D000726974696E6720746F2066696C653A2041
:1035E00000667265736800646F696E6700206669C3
:1035F0006C653A20004E6F7720002F6175746F253F
:10360000632E6700026D61726C696E66772E6F7251
:103610006700322E312E322E38001FFFFFFFFFFFD2
:10362000FF600000000001FF400000000000FF807C
:1036300000000000007F83CF00000C303F87FF8038
:10364000000C301F867980000C000F8C30C7838CF3
:1036500030E78C30CFC7CC31F38C30DCECEC33B9B5
:103660008C30D86C6C33198C30D06C0C33198C3096
:10367000D86C0C33198C30DC6C0E3B198C30CF7C41
:10368000079F198C30C77C038F1940000000000091
:1036900002600000000000061FFFFFFFFFFFF810A0
:1036A00000C90210012C014001220170011801B073
:1036B000010E01F00104015002FA00B002F00030E6
:1036C00003E600D003DC009004D2007005C800A01F
:1036D00006BE000008B400B009AA00D00BA000602C
:1036E0000E960060118C000015820020197800C031
:1036F0001D6E00A0226400B0275A00902C500000DC
:10370000314600E0343C0010383200903A28006026
:103710003C1E00A03D1400803E0A00203F00002017
:1037200020506C616E6E6572427566666572427994
:103730007465733A20002046726565204D656D6F93
:1037400072793A200020436F6D70696C65643A208D
:1037500053657020203320323032360A00204C610D
:10376000737420557064617465643A203230323667
:103770002D30362D3234207C20417574686F723ABA
:10378000205349524955532033303078333030205C
:1037900049444558202D206F646F736C66202D209E
:1037A0004D61726C696E20322E312E322E380A0035
:1037B0004D61726C696E20322E312E322E380A0025
:1037C00020536F6674776172652052657365740A61
:1037D00000205761746368646F6720526573657475
:1037E0000A002042726F776E206F757420526573E5
:1037F00065740A002045787465726E616C205265AC
:103800007365740A00506F77657255700A0073749F
:103810006172740A004D31303031006572726F721E
:103820002077726974696E6720746F2066696C65B1
:103830000A00446F6E6520736176696E6720666961
:103840006C652E0A00456E6473746F7073002553A7
:1038500020256320256320256320256300656E6491
:1038600073746F7073206869743A200000000A0B4B
:1038700002090C0D0E0807030401000000000000FF
:103880000000000000000000000000000000000038
:1038900000000000000000001211100000000000F5
:1038A0000000000000000000000000000000000018
:1038B000000024F404D9201BC40C5C0E9804C40935
:1038C0005F0265077101F405F900FB04B3004804C9
:1038D0008700C10369005803550003034500BE0279
:1038E0003A008402310053022A0029022500040212
:1038F0002000E4011C00C8011900AF011700980165
:1039000014008401130071011000610110005101C5
:103910000E0043010D0036010B002B010B002001AE
:103920000B00150109000C01090003010800FB0050
:103930000800F3000800EB000700E4000600DE00CA
:103940000600D8000600D2000600CC000500C70023
:103950000500C2000500BD000400B9000400B50068
:103960000400B1000400AD000400A9000400A5009B
:103970000300A20003009F0004009B0003009800C6
:1039800003009500020093000300900003008D00E7
:1039900002008B0003008800020086000200840001
:1039A0000300810002007F0002007D0002007B0016
:1039B0000200790002007700010076000200740026
:1039C000020072000100710002006F0002006D0031
:1039D00001006C0002006A0001006900020067003B
:1039E0000100660001006500010064000200620041
:1039F000010061000100600001005F0002005D0045
:103A000001005C0001005B0001005A000100590048
:103A10000100580001005700010056000100550048
:103A20000100540001005300000053000100520047
:103A3000010051000100500001004F0001004E0044
:103A400000004E0001004D0001004C0001004B0041
:103A500000004B0001004A0001004900010048003D
:103A60000000480001004700010046000000460039
:103A70000100450000004500010044000100430032
:103A8000000043000100420000004200010041002C
:103A9000000041000100400001003F0000003F0025
:103AA00001003E0000003E0001003D0000003D001E
:103AB00001003C0000003C0000003C0001003B0015
:103AC00000003B0001003A0000003A00010039000C
:103AD0000000390001003800000038000000380004
:103AE00001003700000037000100360000003600FA
:103AF00000003600010035000000350000003500F0
:103B000001003400000034000000340001003300E4
:103B100000003300000033000100320000003200DA
:103B200000003200010031000000310000003100CF
:103B300001003000000030000000300001002F00C4
:103B400000002F0000002F0000002F0001002E00B9
:103B500000002E0000002E0001002D0000002D00AE
:103B600000002D0000002D0001002C0000002C00A2
:103B700000002C0000002C0001002B0000002B0096
:103B800000002B0000002B0001002A0000002A008A
:103B900000002A0000002A0001002900000029007E
:103BA0000000290000002900000029000100280071
:103BB0000000280000002800000028000000280065
:103BC0000100270000002700000027000000270058
:103BD000000027000100260000002600000026004B
:103BE000000026000000260001002500000025003E
:103BF0000000250000002500000025000000250031
:103C00000100240000002400000024000000240023
:103C10000000240001002300000023000000230016
:103C20000000230000002300000023000000230008
:103C300001002200000022000000220000002200FB
:103C400000002200000022000100210000002100ED
:103C500000002100000021000000210000002100E0
:103C600000002100010020000000200000002000D2
:103C700000002000000020000000200000002000C4
:103C80000000200001001F0000001F0000001F00B6
:103C900000001F0000001F0000001F0000001F00A8
:103CA00001001E0000001E0000001E0000001E009B
:103CB000000024F4D43050C38E20C2A24017828B5F
:103CC0007011127A910D816CD90AA861E108C75868
:103CD0006607615143061E4B5D05C145A7041A41A5
:103CE0001104093D9803713931034036DB02653315
:103CF0009102D4305402802E1D02632CEE01752AED
:103D0000C501B028A001102781018F2564012B2453
:103D10004B01E0223401AC211F018D200D01801FD9
:103D2000FC00841EED00971DDF00B81CD200E61BCE
:103D3000C600201BBC00641AB200B219A8000A1900
:103D4000A0006A189900D117910040178B00B51692
:103D5000840031167E00B31579003A157300C7143C
:103D60006F0058146A00EE13660088136300251371
:103D70005E00C7125B006C12570015125400C1118F
:103D8000510070114F0021114B00D61049008D10C9
:103D900047004610440002104200C00F4000800F50
:103DA0003E00420F3C00060F3B00CB0E3800930E46
:103DB00037005C0E3500270E3400F30D3200C10DC4
:103DC0003100900D3000600D2E00320D2D00050DDC
:103DD0002C00D90C2B00AE0C2900850C29005C0CA2
:103DE0002700350C27000E0C2600E80B2400C40B1E
:103DF0002400A00B23007D0B23005A0B2100390B5C
:103E00002100180B2000F80A1F00D90A1E00BB0A67
:103E10001E009D0A1D00800A1D00630A1C00470A3F
:103E20001B002C0A1B00110A1A00F7091A00DD09F1
:103E30001900C4091900AB091900920917007B0980
:103E40001800630917004C091600360916002009EE
:103E500016000A091500F5081500E0081400CC0842
:103E60001400B8081400A4081400900813007D087A
:103E700012006B081300580812004608120034089C
:103E80001100230811001208110001081100F007A9
:103E90001000E0071000D0071000C0071000B007A6
:103EA0000F00A107100091070E0083070F00740791
:103EB0000F0065070E0057070E0049070E003B076D
:103EC0000D002E070E0020070D0013070D0006073A
:103ED0000D00F9060C00ED060D00E0060C00D406FE
:103EE0000C00C8060C00BC060C00B0060C00A406B2
:103EF0000B0099060C008D060B0082060B0077065E
:103F00000B006C060B0061060A0057060B004C06FE
:103F10000A0042060A0038060A002E060A00240695
:103F20000A001A060A001006090007060A00FD0525
:103F30000900F4050900EB050900E2050900D905AF
:103F40000900D0050900C7050900BE050900B5052F
:103F50000800AD050800A50509009C0508009405AA
:103F600008008C050800840508007C05080074051D
:103F700008006C050700650508005D05070056058B
:103F800008004E05070047050700400508003805F2
:103F90000700310507002A050700230507001C0557
:103FA0000600160507000F050700080506000205B4
:103FB0000700FB040600F5040700EE040600E80411
:103FC0000600E2040700DB040600D5040600CF0467
:103FD0000600C9040600C3040600BD040600B704B9
:103FE0000600B1040500AC040600A6040600A00407
:103FF00005009B04060095040500900406008A0451
:10400000050085040500800406007A040500750497
:104010000500700405006B040500660405006104DA
:1040200005005C04050057040500520405004D041A
:10403000050048040500430405003E0404003A045A
:10404000050035040500300404002C040500270495
:104050000400230405001E0404001A0404001604CE
:104060000500110404000D04040009040500040403
:10407000040000040400FC030400F8030400F4033B
:104080000400F0030400EC030400E8030400E4036C
:104090000400E0030400DC030400D8030400D4039C
:1040A0000400D0030400CC030400C8030300C503CC
:1040B00003005D2E00006E23000013180000AF0EF9
:1040C00000003D08000063040000450200002701D5
:1040D0000000200020002000FFFFFF43616E6E6F94
:1040E00074206F70656E207375626469722000229F
:1040F0000A00556E6B6E6F776E20636F6D6D616E2B
:10410000643A2022006F6B00204500205A0020599D
:104110000020204D39322058005374657073207090
:10412000657220756E697400627573793A207061EA
:104130007573656420666F7220696E7075740A000D
:10414000627573793A2070617573656420666F7269
:1041500020757365720A00627573793A2070726F08
:1041600063657373696E670A0053442F4644207277
:104170006574697261646F0053442F464420696E10
:104180007365727461646F004D313132205368750C
:1041900074646F776E00444554454E494441005065
:1041A00072696E7465722073746F707065642064D8
:1041B000756520746F206572726F72732E20466968
:1041C0007820746865206572726F7220616E642059
:1041D000757365204D39393920746F207265737499
:1041E0006172742E202854656D70657261747572E9
:1041F000652069732072657365742E205365742081
:10420000697420616674657220726573746172747A
:10421000696E67290A004E6F20436865636B73758A
:104220006D2077697468206C696E65206E756D62AB
:1042300065722C204C617374204C696E653A2000C5
:104240004D3239004E6F20436865636B73756D2086
:1042500077697468206C696E65206E756D62657231
:104260002C204C617374204C696E653A20006368A1
:1042700065636B73756D206D69736D617463682C14
:10428000204C617374204C696E653A20004C696E55
:1042900065204E756D626572206973206E6F7420A3
:1042A0004C617374204C696E65204E756D62657249
:1042B0002B312C204C617374204C696E653A2000C0
:1042C0004D3131300053657269616C2073746174D3
:1042D0007573206D69736D617463680A00534420BF
:1042E00072656164206572726F720A004B494C4CB2
:1042F00020627574746F6E2F70696E0A0021212020
:104300004B494C4C206361757365642062792000D1
:10431000746F6F206D75636820696E616374697670
:10432000652074696D65202D2063757272656E74E9
:1043300020636F6D6D616E643A20002121204B492E
:104340004C4C206361757365642062792000000025
:104350002200250028002B002E003100340002012D
:104360000000050108010B010000210024002700C6
:104370002A002D0030003300010100000401070174
:104380000A010505050507050808080802020202DA
:104390000A0A0808040404040101010101010101E1
:1043A0000303030303030303040707070C0C0C0CAC
:1043B0000C0C0C0C02020202060606060606060695
:1043C0000B0B0B0B0B0B0B0B010210202008081022
:1043D0002040102040800201020108040201010275
:1043E000040810204080804020100804020180044E
:1043F00002018040201008040201080402010102A9
:10440000040810204080010204081020408020454C
:104410003A00205A3A0020593A00583A005349527B
:10442000495553203330302049444558204C697356
:10443000746100496D7072696D69656E646F2E2ECE
:104440002E00496D7072657369C3B36E205061753B
:10445000736164610000D900DB0011241FBECFEF3F
:10446000D1E2DEBFCDBF00E00CBF84B78093E6157C
:1044700014BE0FB6F894A89580916000886180936F
:104480006000109260000FBE15E0A0E0B2E0EEEE1A
:10449000FCE302E00BBF02C007900D92A232B1070D
:1044A000D9F725E1A2E2B5E001C01D92A63EB20710
:1044B000E1F712E2CCE2D2E200E006C02197010966
:1044C000802FFE010F94EB19CB32D10780E0080753
:1044D000A9F70F945F080D94661E0C940000CF930B
:1044E000DF93EC01642F70E090E080E00F9486157C
:1044F00029EC38EC48EC5EE30F94DC1A20E030E065
:1045000040E05FE30F94001A0F94491B6883DF912A
:10451000CF910895E0918B0886E0E802F001112424
:10452000EC5DF84F80916D0890E095838483089549
:1045300080910D09882369F080915B08877087302E
:1045400041F48BEA9BE290936A0880936908109289
:104550000D090895CF93DF93EC01CB01BA010F94BD
:10456000861520E030E048EC52E40F94DC1A2FE688
:1045700032E143E85AE30F94001A688379838A830F
:104580009B83DF91CF910895CF93DF93EC01CB0113
:10459000BA010F94861520E030E048EC52E40F9405
:1045A000DC1A2FE632E143E85AE30F94001A6883DD
:1045B00079838A839B83DF91CF910895CF93DF9393
:1045C000EC01CB01BA010F948615688379838A8345
:1045D0009B83DF91CF910895CF93DF93EC01CB01C3
:1045E000BA010F948615688379838A839B83DF9150
:1045F000CF910895CF93DF93EC01CB01BA010F94D3
:10460000861520E030E048EC52E40F94DC1A2FE6E7
:1046100032E143E85AE30F94001A688379838A836E
:104620009B83DF91CF910895CF93DF93EC01CB0172
:10463000BA010F9484152AE037ED43E25DE30F944D
:10464000DC1A0F94491B688379838A839B83DF91EB
:10465000CF910895CF93DF93EC01CB01BA010F9472
:1046600086152AE037ED43E25DE30F94DC1A688398
:1046700079838A839B83DF91CF910895FC015183D5
:1046800040830895CF93DF93EC01CB01BA010F94DF
:10469000861520E030E04AE754E40F94DC1A27E165
:1046A00037EB41ED58E30F94001A688379838A83CE
:1046B0009B83DF91CF910895FC01A081B1811C9271
:1046C000A281B3818C918F5F8C930280F381E02D66
:1046D00090818CE0989F800D1124E2E3F1E113AE0C
:1046E00084AF08955B9800C090910B0187FD909571
:1046F0009078909309015B9A00C000C05B9800C05D
:1047000090910B0186FD90959078909309015B9AAA
:1047100000C000C05B9800C090910B0185FD909592
:104720009078909309015B9A00C000C05B9800C02C
:1047300090910B0184FD90959078909309015B9A7C
:1047400000C000C05B9800C090910B0183FD909564
:104750009078909309015B9A00C000C05B9800C0FC
:1047600090910B0182FD90959078909309015B9A4E
:1047700000C000C05B9800C090910B0181FD909536
:104780009078909309015B9A00C000C05B9800C0CC
:1047900080910B018078809309015B9A00C000C072
:1047A000089590E080E00895CF93DF93C09167076C
:1047B000D091680781E0CE31D105E4F020E030E00F
:1047C00040E05FE360916307709164078091650743
:1047D000909166070F94001A0F94441B6C1B7D0B7D
:1047E00077FF03C071956195710981E063307105B0
:1047F0000CF080E0DF91CF91089590E080E0089583
:1048000020917011833021F425FD0CC024FD0CC0D3
:1048100030E0A90102C0559547958A95E2F7CA0193
:104820008170089581E0089580E0089580914A069E
:1048300084FD0BC080914C0687FD07C090914D060A
:10484000937081E019F480E0089581E008952FEBE2
:10485000280F2A3108F047C0E22FF0E080914A0685
:1048600090914B06A0914C06B0914D0604C0B695B0
:10487000A795979587952A95D2F780FD02C08170FC
:104880000895E05DF94FE081EE2341F18091F30955
:104890009091F409E80FF92FF11D808190ED980FA8
:1048A0009A3030F08E3251F4818180538A3098F4FE
:1048B000F0932F06E0932E0681E008958D3211F0DB
:1048C0008B3249F4818190ED980F9A3088F38E32C3
:1048D00011F48281EACFF0E0E0E0EACF10922F06F7
:1048E00010922E06E9CF80E00895B1DF882341F0D1
:1048F00081E020912E0630912F06232B09F480E0D1
:1049000008952F923F924F925F926F927F928F9273
:104910009F92AF92BF92CF92DF92EF92FF920F934E
:104920001F93CF93DF93D62FC72FFC0180809180F8
:10493000A280B380C501B40120E831E541E050E038
:104940000F945A19C9016DE671E00F94C4196B01F7
:104950007C01C501B40120E13EE040E050E00F944D
:104960005A19CA01B90128E130E040E050E00F9443
:104970005A19362E272E062F172F8CE3482E512C2E
:10498000612C712CC501B401A30192010F945A1935
:10499000B62EA72ECA01B901A30192010F945A198C
:1049A000CB01C114D10479F1AF92BF927F936F9381
:1049B0002F923F92FF92EF92DF92CF928FEB9AE08D
:1049C0009F938F93CF93DF930F9419158DB79EB755
:1049D0000E960FB6F8949EBF0FBE8DBF8D2F9C2FE5
:1049E000DF91CF911F910F91FF90EF90DF90CF90CB
:1049F000BF90AF909F908F907F906F905F904F90FF
:104A00003F902F900895E114F104C9F0AF92BF9246
:104A10007F936F932F923F92FF92EF928FEA9AE0EB
:104A20009F938F93CF93DF930F941915EDB7FEB734
:104A30003C960FB6F894FEBF0FBEEDBFCFCF012B53
:104A4000B9F0AF92BF927F936F932F923F9283EA18
:104A50009AE09F938F93CF93DF930F9419158DB79F
:104A60009EB70A960FB6F8949EBF0FBE8DBFB6CF05
:104A7000892BA9F0AF92BF927F936F938BE99AE055
:104A80009F938F93CF93DF930F941915EDB7FEB7D4
:104A900038960FB6F894FEBF0FBEEDBF9FCFAF9212
:104AA000BF9287E99AE09F938F93CF93DF930F9400
:104AB00019150F900F900F900F900F900F908ECFB1
:104AC0008F929F92AF92BF92CF92DF92EF92FF921E
:104AD000CF936B017C0120E030E0A9010F94801599
:104AE00087FF8BC06DEB77E386E095EBA70196011E
:104AF0000F94001A4B015C0142E050E00E94EAC4AE
:104B00006B017C0120E030E040E251ECC501B401D2
:104B10000F948015181654F420E030E048EC52E46D
:104B2000C501B4010F94261C87FD6CC0C701B601F6
:104B300020E137E240E050E00F947C19CA01B9014E
:104B40002AE030E040E050E00F947C19605DF7FE11
:104B500009C0F094E094D094C094C11CD11CE11C15
:104B6000F11C6DE26093E706C701B60128EE33E061
:104B700040E050E00F947C199AE0892E912CA12CF2
:104B8000B12CCA01B901A50194010F947C19605D93
:104B90006093E806C701B60124E630E040E050E04B
:104BA0000F947C19CA01B901A50194010F947C19D5
:104BB000605D6093E9068EE28093EA06C701B60164
:104BC000A50194010F947C19C62FCA01B901A50152
:104BD00094010F947C19605D6093EB06C05DC093F7
:104BE000EC0687EE96E0CF91FF90EF90DF90CF90AC
:104BF000BF90AF909F908F9008956DEB77E386E024
:104C000095E374CF20E030E0A901C501B4010F9411
:104C1000261C87FD0BC020E030E040E251E4C501D6
:104C2000B4010F94801560E287FD1CC0C701B60176
:104C300028EE33E040E050E00F947C19CA01B9013E
:104C40002AE030E040E050E00F947C19605DF7FE10
:104C500009C0F094E094D094C094C11CD11CE11C14
:104C6000F11C6DE26093E806C701B60124E630E06E
:104C700040E050E00F947C198AE0882E912CA12C02
:104C8000B12CCA01B901A50194010F947C19605D92
:104C90006093E9068EE28093EA06C701B601A5019A
:104CA00094010F947C19C62FCA01B901A501940182
:104CB0000F947C19605D6093EB06C05DC093EC06B9
:104CC00088EE96E090CF0F94861520E030E048EC17
:104CD00052E40F94DC1A2FE632E143E85AE30F94D2
:104CE000001AEECE8F929F92AF92BF92CF92DF9238
:104CF000EF92FF92CF936B017C0120E030E0A9019D
:104D00000F94801587FDC3C06DEB77E386E095E3D4
:104D1000A70196010F94001A6B017C0120E030E09E
:104D2000A9010F94801587FF04C0F7FAF094F7F8F3
:104D3000F09442E050E0C701B6010E94EAC46B0162
:104D40007C0160E280E4C81682E4D8068FE0E806C1
:104D5000F1048CF0C701B60120E432E44FE050E0EA
:104D60000F947C19CA01B9012AE030E040E050E01C
:104D70000F947C19605D6093E50660E280EAC816D6
:104D800086E8D80681E0E806F1048CF0C701B60198
:104D900020EA36E841E050E00F947C19CA01B901DD
:104DA0002AE030E040E050E00F947C19605D6093B1
:104DB000E60660E280E1C81687E2D806E104F10465
:104DC0008CF0C701B60120E137E240E050E00F94DB
:104DD0007C19CA01B9012AE030E040E050E00F94AC
:104DE0007C19605D6093E70660E288EEC81683E098
:104DF000D806E104F1048CF0C701B60128EE33E0D7
:104E000040E050E00F947C19CA01B9012AE030E07B
:104E100040E050E00F947C19605D6093E806C701A4
:104E2000B60124E630E040E050E00F947C198AE0BF
:104E3000882E912CA12CB12CCA01B901A501940195
:104E40000F947C19605D6093E9068EE28093EA0618
:104E5000C701B601A50194010F947C19C62FCA01A0
:104E6000B901A50194010F947C19605D6093EB0674
:104E7000C05DC093EC0685EE96E0CF91FF90EF9079
:104E8000DF90CF90BF90AF909F908F9008956DEB83
:104E900077E386E095EB3CCF0F94861520E030E079
:104EA00048EC52E40F94DC1A2FE632E143E85AE36F
:104EB0000F94001A17CF8F929F92AF92BF92CF920A
:104EC000DF92EF92FF92CF936B017C0120E030E004
:104ED000A9010F94801587FD6AC06DEB77E386E02A
:104EE00095E3A70196010F94001A43E050E00E9459
:104EF000EAC46B017C01C114D104E104F10409F49A
:104F00005BC0F7FE59C0F094E094D094C094C11CEB
:104F1000D11CE11CF11C8DE28093E706C701B601AC
:104F200028EE33E040E050E00F947C198AE0882EB0
:104F3000912CA12CB12CCA01B901A50194010F94A7
:104F40007C19605D6093E8068EE28093E906C701F4
:104F5000B60124E630E040E050E00F947C19CA012D
:104F6000B901A50194010F947C19605D6093EA0674
:104F7000C701B601A50194010F947C19C62FCA017F
:104F8000B901A50194010F947C19605D6093EB0653
:104F9000C05DC093EC0687EE96E0CF91FF90EF9056
:104FA000DF90CF90BF90AF909F908F9008956DEB62
:104FB00077E386E095EB95CF80E2AECF0F94861530
:104FC00020E030E04AE754E40F94DC1A27E137EBA5
:104FD00041ED58E30F94001A6ECFCF92DF92EF921B
:104FE000FF926B017C0120E030E0A9010F94801555
:104FF00087FD26C06DEB77E386E095E3A701960178
:105000000F94001A6B017C0120E030E0A9010F949D
:10501000801520E030E040E05FE387FF04C020E03F
:1050200030E040E05FEBC701B6010F94001A0F9427
:10503000441BCB01FF90EF90DF90CF900C9482C483
:105040006DEB77E386E095EBD9CF0F948615C5CF4E
:10505000CB010C9482C470E090E080E00F94861540
:1050600029EC38EC48EC5EE30F94DC1A20E030E0E9
:1050700040E05FE30F94001A0F94491B862F0C94B5
:10508000B6C4CF93DF9300D01F92CDB7DEB70F9495
:10509000841569837A838B839C83CE0101960E9459
:1050A000B3C50F900F900F900F90DF91CF9108959F
:1050B0000F9484152AE037ED43E25DE30F94DC1A88
:1050C0000F94491BDECFCF92DF92EF92FF92CF93E6
:1050D000DF9300D01F92CDB7DEB76B017C0120E0DB
:1050E00030E0A9010F94801587FD1BC06DEB77E3BD
:1050F00086E095E3A70196010F94001A69837A83ED
:105100008B839C83CE0101960E94B3C50F900F90B4
:105110000F900F90DF91CF91FF90EF90DF90CF90A5
:1051200008956DEB77E386E095EBE4CF0F94861559
:105130002AE037ED43E25DE30F94DC1AC4CF0F940D
:105140008615C1CFCF92DF92EF92FF92CF93DF937C
:1051500000D01F92CDB7DEB70F94861520E030E067
:1051600048EC52E40F94DC1A2FE632E143E85AE3AC
:105170000F94001A6B017C0120E030E0A9010F942C
:1051800080152DEB37E346E055E387FF04C02DEB98
:1051900037E346E055EBC701B6010F94001A698367
:1051A0007A838B839C83CE0101960E9438C50F9031
:1051B0000F900F900F90DF91CF91FF90EF90DF90C5
:1051C000CF9008950C942CB80C942CB80C94EDA0AE
:1051D0000C94EDA00C94EDA00C94EDA0CF92DF9276
:1051E000EF92FF920F931F930E948EEB00915A064D
:1051F00010915B0620915C0630915D066B017C018D
:10520000C01AD10AE20AF30A9701860137FD11C0DC
:10521000209159062095209359066A547C4F8F4F50
:105220009F4F60935A0670935B0680935C06909341
:105230005D0681E090915906911101C080E01F91B7
:105240000F91FF90EF90DF90CF900895CF93DF9371
:10525000C0916707D0916807209729F16091630793
:105260007091640780916507909166070F94441BC5
:105270006E5F7F4F24976C177D07ACF470934207E5
:10528000609341070E948EEB605A75418F4F9F4F8C
:1052900060934307709344078093450790934607B4
:1052A000DF91CF9108951092430710924407109216
:1052B000450710924607F4CF63E972E084E690E078
:1052C0000E94F2CD70E060E08AE090E00E94F2CDB2
:1052D0006AEB72E084E690E00C94F2CD0E94C0C1CB
:1052E000EBCF8111E9CF68E270E080E991E00C94A6
:1052F000F2CD0E94729DF5CF0E949DDFF2CFBF924A
:10530000CF92DF92EF92FF920F931F93CF93DF9391
:105310006B01E9014A3009F4D6C0453109F081C07A
:10532000DB011296ED91FC911281C681D7815A9AC8
:1053300000C0000086E290E00197F0F7012F02958F
:10534000007F20E1B22EB10E88EFCCD900C0000062
:1053500086E290E00197F0F7103208F0A1C0812FAB
:1053600080778068BFD9802FBDD900C0000086E259
:1053700090E00197F0F780E8B5D980E0B3D900C09C
:10538000000086E290E00197F0F78AEFABD900C009
:10539000000086E290E00197F0F77E01B0E1EB0EAD
:1053A000F11C8881807F9ED989918295807F9AD9CE
:1053B000CE15DF05B1F700C0000086E290E001974E
:1053C000F0F71F5F005F1B11BFCF5A98D6011296EE
:1053D000ED91FC9180819281980F928321819217A7
:1053E00008F0DFC194819F5F94839381890F8217B6
:1053F00010F08FEF820F8383458150E0440F551FDB
:1054000070E060E0868197810F94121E81E0DF9149
:10541000CF911F910F91FF90EF90DF90CF90BF90B1
:105420000895FB0102811381423309F4BCC108F4E1
:10543000C4C1463409F4B1C1473409F4B9C14B338E
:1054400029F789812B81D80112966C9112971396B6
:105450004C91213009F4F6C1233009F0D7C138EF5F
:10546000380F582F91E0431708F490E041E05317AC
:1054700008F040E031E0561708F430E0592F542B83
:10548000352319F4942309F4C1CFFA8030E0F901EF
:10549000EA5AFB4FD0802E5A3B4FF901E080CFC132
:1054A00080EE810F8068807F1DD9812F8295807F5B
:1054B00019D900C0000086E290E00197F0F780E87B
:1054C00011D980E85BCF529A5A9880910A0180687E
:1054D00080930A0180910B01807880930901539A8F
:1054E0005B9A5A9A00C0000086E290E00197F0F7BC
:1054F00088E790E0CEE9DFE0FE013197F1F7019710
:10550000D9F788EFEFD800C0000086E290E001975D
:10551000F0F780E2E7D880E0E5D800C0000086E23E
:1055200090E00197F0F780E0DDD880E8DBD800C09C
:10553000000086E290E00197F0F780E0D3D880E1A8
:10554000D1D800C0000086E290E00197F0F7CE01CC
:105550000197F1F7CE010197F1F7CE010197F1F72D
:10556000CE010197F1F7CE010197F1F7CE01019736
:10557000F1F7CE010197F1F7CE010197F1F7CE01D6
:105580000197F1F7CE010197F1F7CE010197F1F7FD
:10559000CE010197F1F7CE010197F1F7CE01019706
:1055A000F1F72197F1F780E29DD880E49BD800C005
:1055B000000086E290E00197F0F780E293D880E661
:1055C00091D800C0000086E290E00197F0F7D0E0AB
:1055D000C0E08C2F8077806885D88D2F83D800C05D
:1055E000000086E290E00197F0F780E87BD880E049
:1055F00079D800C0000086E290E00197F0F78AEFCA
:1056000071D800C0000086E290E00197F0F790E2C8
:105610005B9800C080910B018078809309015B9AB0
:1056200000C000C05B9800C080910B01807880931F
:1056300009015B9A00C000C05B9800C080910B011B
:105640008078809309015B9A00C000C05B9800C01D
:1056500080910B018078809309015B9A00C000C0A3
:105660005B9800C080910B018078809309015B9A60
:1056700000C000C05B9800C080910B0180788093CF
:1056800009015B9A00C000C05B9800C080910B01CB
:105690008078809309015B9A00C000C05B9800C0CD
:1056A00080910B018078809309015B9A00C000C053
:1056B0005B9800C080910B018078809309015B9A10
:1056C00000C000C05B9800C080910B01807880937F
:1056D00009015B9A00C000C05B9800C080910B017B
:1056E0008078809309015B9A00C000C05B9800C07D
:1056F00080910B018078809309015B9A00C000C003
:105700005B9800C080910B018078809309015B9ABF
:1057100000C000C05B9800C080910B01807880932E
:1057200009015B9A00C000C05B9800C080910B012A
:105730008078809309015B9A00C000C05B9800C02C
:1057400080910B018078809309015B9A00C000C0B2
:1057500000C00000E6E2F0E03197F0F7915009F068
:1057600057CF88EF0E94722300C0000086E290E0CD
:105770000197F0F7CF5FD05FC03209F02ACF80E009
:105780000E94722380EC0E94722300C0000086E217
:1057900090E00197F0F75A9839CEF8018581888317
:1057A00035CE80E034CEB901C8010E94A2EC2ECEE5
:1057B000D80111968C91888329CE443191F04731DC
:1057C00009F024CE1882D80112968C911297898301
:1057D00015968C91159781508A8313968C918B83A3
:1057E00015CED80115964C91159750E0440F551FD2
:1057F00070E060E016968D919C910F94121EF80156
:105800001282808181508383148200CE481708F46D
:10581000FDCD861708F4FACDFA80E12CD12C243086
:1058200070F434CEBE01C8010E94A2EC8981988137
:105830009D0D98838E0D8983FF0C09F4E7CDF7FE4B
:10584000F6CFF0CF58E0580F382F0CCEEF92FF92E2
:105850000F931F93CF93DF93EC018B017A018A851D
:105860009B858617970731F0888199810E94D4EE35
:105870001B870A87B701888199810E94E0E72E8102
:105880003F81820F932F911D9F838E8390E080E054
:10589000DF91CF911F910F91FF90EF9008959F920C
:1058A000AF92BF92CF92DF92EF92FF920F931F932E
:1058B000CF93DF93EC018B01942EA52E8A859B85D7
:1058C0008617970731F0888199810E94D4EE1B8753
:1058D0000A8788859985019649F5BC800A818E8161
:1058E000080FC880D980D6015596ED91FC91C6016C
:1058F0001995B80EE92CFA2C10E0F70121917F01DF
:10590000211127C08E819F81810F911D9F838E83DE
:1059100090E080E0DF91CF911F910F91FF90EF9089
:10592000DF90CF90BF90AF909F9008950E811F8120
:10593000692D7A2D888199810E94E0E7800F912F4F
:10594000911D288539852817390738F681E090E0C0
:10595000E1CF4B2D602FC6010E942CEF080F180FCE
:10596000CCCFDF92EF92FF920F931F93CF93DF93F1
:10597000EC01D62E1CAD0BAD7C0184E0E80EF11CD1
:10598000E98DFA8DC7011995412F480F2D2D602FF4
:10599000C7010E942CEF9BAD890F8BAF81E090E097
:1059A000DF91CF911F910F91FF90EF90DF900895BD
:1059B000CF93C0916E06CC23C9F14CE050E060E279
:1059C00070E080E696E00F94121E2C2F30E060E22B
:1059D000C43630F0C90164E670E00F94D819605DF8
:1059E0006093EA0680E2CA3058F0EAE0F0E0C901CC
:1059F000BF010F94D819CB01BF010F94D819805D56
:105A00008093EB06C9016AE070E00F94D819805DBD
:105A10008093EC0683E0EAEEF6E0A4E6B6E00190BF
:105A20000D928A95E1F785E280936706CF910895FC
:105A3000CF92DF92EF92FF920F931F93CF93DF935A
:105A4000CDB7DEB72C970FB6F894DEBF0FBECDBF33
:105A5000F0906D11E0906E112091580621111DC03B
:105A60004AEF5CE06E2D8F2D0E9497EF90E080E072
:105A7000F80EF0926D11E0926E1199272C960FB6E8
:105A8000F894DEBF0FBECDBFDF91CF911F910F9174
:105A9000FF90EF90DF90CF900895C0903A11D09092
:105AA0003B1126E331E13A8329832F2D30E03C83FB
:105AB0002B832E2D30E03E832D8318861F827A871C
:105AC00069871C861B860FE41CE29E012F5F3F4FF7
:105AD00047E557E8BC01C6010E9496E3B60186E39C
