:100000000C942D220C946D220C946D220C946D2274
:100010000C946D220C946D220C946D220C946D2224
:100020000C946D220C946D220C946D220C946D2214
:100030000C946D220C9492E90C946D220C946D2218
:100040000C946D220C942E990C946D220C946D22BC
:100050000C946D220C9471920C946D220C9448E9CE
:100060000C946D220C94C36A0C94B96A0C946D22A2
:100070000C946D220C946D220C946D220C946D22C4
:100080000C946D220C946D220C946D220C946D22B4
:100090000C946D220C946D220C946D220C946D22A4
:1000A0000C946D220C946D220C946D220C946D2294
:1000B0000C946D220C946D220C946D220C946D2284
:1000C0000C946D220C946D220C946D220C946D2274
:1000D0000C946D220C946D220C946D220C946D2264
:1000E0000C946D22084AD73B3BCE016E84BCBFFD09
:1000F000C12F3D6C74319ABD56833DDA3D00C77FF8
:1001000011BED9E4BB4C3E916BAAAABE0000008090
:100110003F05A84CCDB2D44EB93836A9020C50B91F
:10012000918688083CA6AAAA2ABE000000803F0744
:10013000634236B79BD8A71A39685618AEBAAB5582
:100140008C1D3CB7CC5763BD6DEDFD753EF6177247
:1001500031BF000000803F08000000BE9224491219
:100160003EABAAAA2ABECDCCCC4C3E00000080BE3D
:10017000ABAAAAAA3E00000000BF000000803F001A
:1001800000000000084178D3BB4387D1133D190E0E
:100190003CC3BD4282AD2B3E68EC8276BED98FE176
:1001A000A93E4C80EFFFBE01C4FF7F3F000000006E
:1001B00000000D94250F0D9434054E414E494E49D3
:1001C0005459494E46CDCCCC3D0AD7233C17B7D124
:1001D0003877CC2B329595E6241FB14F0A000020CA
:1001E000410000C84200401C4620BCBE4CCA1B0E49
:1001F0005AAEC59D74434F4D4D554E4943415449E8
:100200004F4E0044525952554E004552524F525390
:1002100000494E464F004543484F001FE020102341
:1002200010249010A011202210241037B008400490
:100230008003001FE0201021102310152011202121
:1002400010211031300840048003001FE03FF03CD3
:10025000F03B701F601EE03DF03BF038700FC007B0
:100260008003001FE03FF03EF03CF01AE01EE03E4D
:10027000F03EF03EF00FC0078003004572726F72CF
:100280002077726974696E6720746F2045455052FB
:100290004F4D210A00506F72206661766F722C20DC
:1002A0007265696E6963696500494D505245534FE7
:1002B000524120444554454E4944410025533A207B
:1002C0002553004D5545525441005072696E746576
:1002D000722068616C7465642E206B696C6C2829CF
:1002E0002063616C6C6564210A00006563686F3A85
:1002F000004572726F723A0020440020204D323067
:100300003020540020204D3230302053002028442B
:10031000697361626C6564293A0046696C616D6558
:100320006E742073657474696E67730020204D329B
:1003300030312058004D617820416363656C6572EF
:100340006174696F6E2028756E6974732F7332291A
:100350000020204D3230332058004D6178206665F2
:10036000656472617465732028756E6974732F7388
:10037000290020520020204D3230342050004163AB
:1003800063656C65726174696F6E2028756E69743F
:10039000732F7332292028503C7072696E742D615E
:1003A0006363656C3E20523C726574726163742DA8
:1003B000616363656C3E20543C74726176656C2D9C
:1003C000616363656C3E29002054002053002020A7
:1003D0004D323035204200416476616E63656420A1
:1003E00028423C6D696E5F7365676D656E745F74FE
:1003F000696D655F75733E20533C6D696E5F666520
:100400006564726174653E20543C6D696E5F747200
:100410006176656C5F66656564726174653E2058DF
:100420003C6D61785F6A65726B3E20593C6D617806
:100430005F6A65726B3E205A3C6D61785F6A6572D7
:100440006B3E20453C6D61785F6A65726B3E2900AA
:1004500020204D32313700546F6F6C2D6368616E10
:1004600067696E670020204D323138205400486F94
:1004700074656E64206F6666736574730020440053
:1004800020490020204D333031205000486F7465E2
:100490006E6420504944002058004F4646004F4E9D
:1004A0000020204D61783A2000200020204D696E08
:1004B0003A2000203B200020204D323131205300D3
:1004C000536F667420656E6473746F7073003B20A5
:1004D0000020496E76616C69642065787472756479
:1004E0006572200047322F473320626164207061BB
:1004F00072616D65746572730A005265706F736F17
:100500002E2E2E0050756C73617220706172612006
:100510005265616E756461720053696E206D6F760D
:10052000696D69656E746F00456E642066696C65FF
:10053000206C6973740A00426567696E2066696C95
:1005400065206C6973740A004E6F206D6564696183
:100550000A00286E6F2066696C6529004375727207
:10056000656E742066696C653A20004E6F74205386
:1005700044207072696E74696E670A00534420707B
:1005800072696E74696E67206279746520002E0A44
:100590000044656C6574696F6E206661696C6564A2
:1005A0002C2046696C653A200046696C65206465BC
:1005B0006C657465643A005072696E742074696D7C
:1005C000653A20000A53746174733A2046696C617D
:1005D0006D656E7420757365643A20002C204C6F35
:1005E0006E67657374206A6F623A2000546F74619D
:1005F0006C2074696D653A200053746174733A20FD
:10060000002C204661696C65643A20002C20466904
:100610006E69736865643A20005072696E74733A4B
:10062000200053746174733A20006F6B006F66662C
:1006300000160211020A020302F501444542554721
:100640003A004D313133205300534952495553201C
:100650003330302049444558204F46462E002F2F36
:10066000004D31343520533C696E6465783E206F0F
:100670007574206F662072616E67652028302D3199
:10068000290A00250A0046523A0020466C6F773A44
:100690002000496E76616C696420657874727564B7
:1006A00065720A0064697300656E0043290A00617F
:1006B000626C656420286D696E2074656D70200021
:1006C000436F6C6420657874727564657320617221
:1006D0006520004F726967656E202573205072692E
:1006E0006D2E00486F6D6520257320466972737406
:1006F00000446573666173652061706C6963616451
:1007000061004D494E2F4D415820546F6F20466176
:100710007200546F6F206661722066726F6D204D9B
:10072000494E2F4D41580A00454550524F4D204FDC
:100730004B0A0073706563696679696E6720445877
:10074000435F4D4952524F5245445F4D4F44452EF1
:100750000A005072696E746572206D757374206240
:100760006520696E204458435F4455504C494341CD
:1007700054494F4E5F4D4F4445207072696F72204F
:10078000746F200A00446F6E65207072696E746920
:100790006E672066696C650A004D3737004D33314E
:1007A000004163746976652045787472756465727A
:1007B0003A200020204D323036205800486F6D65B9
:1007C000206F6666736574004361703A00434F4E54
:1007D0004649475F4558504F5254004D454154508B
:1007E00041434B00434F4F4C45525F54454D50459C
:1007F000524154555245004348414D4245525F5481
:10080000454D50455241545552450042414259537D
:1008100054455050494E470041524353004D4F54A8
:10082000494F4E5F4D4F44455300544845524D414A
:100830004C5F50524F54454354494F4E0045585415
:10084000454E4445445F4D323000435553544F4D5F
:100850005F4649524D574152455F55504C4F4144B8
:10086000004C464E5F5752495445004C4F4E475F2F
:1008700046494C454E414D45004155544F52455017
:100880004F52545F53445F535441545553005344A3
:100890005F575249544500524550454154004D550B
:1008A0004C54495F564F4C554D45005344434152BB
:1008B000440050524F4D50545F535550504F525476
:1008C00000484F53545F414354494F4E5F434F4D8F
:1008D0004D414E445300454D455247454E43595FA7
:1008E00050415253455200434153455F4C4947489C
:1008F000545F4252494748544E45535300544F4762
:10090000474C455F4C494748545300534F46545752
:100910004152455F504F574552004255494C445F44
:1009200050455243454E54004C4556454C494E4760
:100930005F44415441005A5F50524F424500525566
:100940004E4F5554004155544F4C4556454C005060
:1009500052494E545F4A4F420050524F47524553FE
:1009600053004155544F5245504F52545F54454DDA
:1009700050004155544F5245504F52545F504F53C1
:1009800000564F4C554D4554524943004545505231
:100990004F4D0042494E4152595F46494C455F54C4
:1009A00052414E534645520053455249414C5F58BF
:1009B0004F4E5F584F4646004649524D57415245AB
:1009C0005F4E414D453A4D61726C696E20322E3159
:1009D0002E322E38202853657020203320323032BA
:1009E000362032333A34353A34352920534F555274
:1009F00043455F434F44455F55524C3A67697468BD
:100A000075622E636F6D2F4D61726C696E466972EF
:100A10006D776172652F4D61726C696E2050524F17
:100A2000544F434F4C5F56455253494F4E3A312E27
:100A300030204D414348494E455F545950453A5343
:100A400049524955532033303020494445582045B8
:100A5000585452554445525F434F554E543A3220F4
:100A6000555549443A63656465326132662D3431C7
:100A700061322D343734382D396231322D633535BA
:100A8000633632663336376666002569730025693A
:100A90006D20256973002569682025696D20256909
:100AA0007300256964202569682025696D20256902
:100AB00073002569792025696420256968202569E6
:100AC0006D202569730020573A00456E6672696192
:100AD0006E646F2E2E2E004525632025530020576F
:100AE0003A00456E667269616E646F2043616D61A4
:100AF0002E2E2E0043616C656E74616E646F204310
:100B0000616D612E2E2E0023646566696E6520443A
:100B1000454641554C545F004B4420004B49200052
:100B20004B5020002066696E69736865642120500F
:100B3000757420746865206C617374204B702C2070
:100B40004B6920616E64204B6420636F6E73746127
:100B50006E74732066726F6D2062656C6F772069AA
:100B60006E746F20436F6E66696775726174696F2A
:100B70006E2E680A00504944204175746F74756E7A
:100B80006500206661696C6564212074696D656F1C
:100B900075740A00504944204175746F74756E6510
:100BA00000206661696C6564212054656D70657212
:100BB000617475726520746F6F20686967680A00D8
:100BC000504944204175746F74756E6500504944F6
:100BD000204379636C65730025532025692F2569AF
:100BE00000204B643A2000204B693A2000204B70D3
:100BF0003A200020436C617373696320504944209C
:100C00000A002054753A2000204B753A2000206DD0
:100C100061783A2000206D696E3A200020643A2005
:100C20000020626961733A200043616C656E7461F3
:100C30006E646F2E2E2E002073746172740A005041
:100C40004944204175746F74756E65002066616952
:100C50006C6564212054656D706572617475726590
:100C600020746F6F20686967680A0050494420410A
:100C700075746F74756E6500504944204175746FCA
:100C80002D616A75737465003F28432979636C652B
:100C900073206E6F7420706C61757369626C65206F
:100CA000283E3D33292E0A00206661696C65642167
:100CB00020426164206865617465722069640A007D
:100CC000504944204175746F74756E6500457272A9
:100CD0003A207574663820666F6E74206E6F7420CB
:100CE000696E697469616C697A65642E0045727217
:100CF0003A207574663820666F6E74206E6F7420AB
:100D0000696E697469616C697A65642E00457272F6
:100D10003A207574663820666F6E74206E6F74208A
:100D2000696E697469616C697A65642E00200020BF
:100D30000020003A003A002568753A25303268757F
:100D40000025303268753A2530326875002530321A
:100D50006875272530326875002568756420253050
:100D60003268753A25303268750043616D61005212
:100D70006563696E746F0045002000250020202007
:100D800020202020002020202000657272003302E5
:100D90001B0263024B023FFFF038007030FC302032
:100DA000FC102078102030102C00D02E31D02F7B5A
:100DB000D02F7BD02E31D02C00D0203010207810B6
:100DC00020FC1030FC303800703FFFF03FFFF0385F
:100DD00000703186302387102787902F87D02F030C
:100DE000D02030102078102078102030102F03D021
:100DF0002F87D02787902387103186303800703FA7
:100E0000FFF01FFFF81FFFF804104002082002083F
:100E1000200410400820801041001041000820806C
:100E20000410400000001FFFF81FFFF8496D7072AA
:100E3000657369C3B36E2063616E63656C616461E1
:100E4000004D32350050617573696E672E2E2E008D
:100E50004D3234003F0049676E6F7265005265691C
:100E60006E696369617200496E696369616C697A70
:100E7000617220454550524F4D004469C3A16D65D4
:100E800074726F2046696C2E202A004469C3A16DDC
:100E90006574726F2046696C2E004520656E206D6A
:100EA0006DC2B300200820466163746F7200200891
:100EB000204D6178002008204D696E004170670068
:100EC000456E630054656D702E204175746F6D2EF4
:100ED0000056656C2E207669616A65206D696E002A
:100EE000566D696E004D61782040205370656564D1
:100EF000004163656C2E206D617845004163656C2F
:100F00002E206D617840004163656C2E205669612A
:100F10006A65004163656C2E207265747261632E90
:100F2000004163656C6572616369C3B36E004D61B6
:100F3000782040204A65726B0040207061736F73A7
:100F40002F6D6D00416A7573746573206176616EF3
:100F50007A61646F73003F0043616E63656C617218
:100F600000496E6963696172004D34323800496E20
:100F7000696369616C697A617220454550524F4DD1
:100F80000046696C616D656E746F0054656D7065C7
:100F9000726174757261005061736F732F6D6D00B3
:100FA0004A65726B00416363656C6572616369C316
:100FB000B36E004D61782056656C6F63696461643F
:100FC00000416A757374617220646573666173654C
:100FD0007300436F6E6669677572616369C3B36E50
:100FE0000041756D656E746172205A0032C2AA208C
:100FF0004675736F722040004475706C696361744C
:101000006520582D47617000436F6E74726F6C20BD
:10101000546F74616C004D36303553300A473238A6
:101020005800436F706961205265666C656A61643F
:1010300061004D36303553310A54300A4D36303563
:1010400053320A47323820580A473158300A4D3651
:1010500030355333004D36303553310A54300A475A
:1010600032380A4D36303553320A473238580A473B
:101070003158300A4D3630355333004475706C6941
:10108000636172004D36303553310A54300A4D36A3
:10109000303553320A473238580A47315830004DFC
:1010A00036303553310A54300A4732380A4D36301B
:1010B0003553320A473238580A47315830004175A3
:1010C000746F2D417061726361646F004D3630350D
:1010D00053310A473238580A473158300043616D5E
:1010E0006100426F7175696C6C610056656E746960
:1010F0006C61646F7200436F6E66696775726163DD
:1011000069C3B36E00526573742E2066C3A1627208
:101110006963610043617267617220454550524FB7
:101120004D004775617264617220454550524F4DC4
:101130000050726563616C2E202420416A757374BF
:10114000650043616D626961722048657272616D0C
:1011500069656E7461004D6F646F204944455800A5
:10116000446573666173652048657272616D696577
:101170006E746100416A7573746573206176616E87
:101180007A61646F73004D656EC3BA207072696EC8
:10119000636970616C003E2000256C642E25696DCA
:1011A00000546F74616C20457874727569646F00C7
:1011B0003E2000496D7072657369C3B36E206DC3C4
:1011C000A173206C61726761003E20005469656DF7
:1011D000706F20746F74616C20646520696D702E6F
:1011E00000436F6D706C657461646173003A200038
:1011F000436F6E742E20646520696D70726573692B
:10120000C3B36E003A20003132300035004245440D
:101210003A204550434F53203130304B0032353067
:1012200000350045323A2041544320313034475490
:101230002D32005669672E20467567612054C3A978
:10124000726D2E3A204F4E0054656D702E204DC3A6
:10125000A178696D61003235300054656D702E20C3
:101260004DC3AD6E696D6100350045313A20415482
:10127000432031303447542D320000091200FC0A5B
:1012800001E803D720FFFD0EFD0BFD000000090063
:101290000E010B0B0904008080808080808000009C
:1012A000808004040409030790909090080A0A09BA
:1012B0000000242424FF2424FF242424070B0B09EA
:1012C00001FF107C929050381412927C10070A0A89
:1012D00009010042A4A4481010244A4A84070A0ABB
:1012E0000901006090909060629488946201040407
:1012F00009040780808080030C0C0903FF20404014
:10130000808080808080404020030C0C0903FF8097
:10131000404020202020202040408007070709016E
:101320000310925438549210070707090101101056
:1013300010FE1010100204040904FEC0C040800713
:101340000101090104FE020202090400C0C0070AEB
:101350000A09010002040408101020404080070A16
:101360000A09010038448282828282824438070A54
:101370000A090100103050901010101010FE070ADA
:101380000A090100384482020408102040FE070ABE
:101390000A090100FE020408180402028478070A00
:1013A0000A090100040C14244484FE040404070AFE
:1013B0000A090100FE808080F80402028478070A8E
:1013C0000A0901003C408080B8C482824438070A80
:1013D0000A090100FE020404080810101010070A90
:1013E0000A09010038448244384482824438070A9A
:1013F0000A09010038448282463A02020478020750
:1014000007090400C0C0000000C0C00209090904A7
:10141000FEC0C0000000C0C04080050909090200EC
:10142000081020408040201008070404090102FE33
:101430000000FE0509090902008040201008102064
:101440004080070A0A09010038448202040810108B
:101450000010070A0A09010038449AAAAAAAAA9CFD
:10146000403C070A0A09010010282828447C4482CD
:101470008282070A0A090100F8848284F884828241
:1014800084F8070A0A0901003C428080808080803D
:10149000423C070A0A090100F88482828282828221
:1014A00084F8070A0A090100FE808080F8808080A5
:1014B00080FE070A0A090100FE808080F880808093
:1014C0008080070A0A09010038448280808E828267
:1014D0004438070A0A09010082828282FE828282DF
:1014E0008282050A0A090200F820202020202020FC
:1014F00020F8070A0A0901003E08080808080888B9
:101500008870070A0A09010082848890A0D0888424
:101510008282070A0A0901008080808080808080A2
:1015200080FE070A0A0901008282C6AA928282828C
:101530008282070A0A0901008282C2A2928A8682F6
:101540008282070A0A0901007C8282828282828268
:10155000827C070A0A090100F884828284F880806C
:101560008080080B0B0901FF384482828282828AC4
:10157000443A01070A0A090100F884828284F8903B
:10158000888482070A0A0901007C8280807C02022A
:1015900002827C070A0A090100FE101010101010C8
:1015A000101010070A0A0901008282828282828258
:1015B000824438070A0A090100828282444444288E
:1015C000282810070A0A09010082828282929292D8
:1015D00092AA44070A0A09010082824428101028AE
:1015E000448282070A0A09010082824428101010EE
:1015F000101010070A0A090100FE0204081020401A
:101600008080FE040C0C0903FFF0808080808080C5
:1016100080808080F0070A0A090100804040201085
:101620001008040402040C0C0902FFF01010101042
:10163000101010101010F0070404090106102844BF
:10164000820801010900FFFF03030309030A804028
:10165000200707070901007C02027E82867A070ABA
:101660000A090100808080BCC2828282C2BC070756
:10167000070901007C82808080827C070A0A0901B8
:10168000000202027A86828282867A0707070901AF
:10169000007C8282FE80827C070A0A0901001C22EB
:1016A000222020F820202020070A0A0901FD7A8440
:1016B000848478807C82827C070A0A090100808009
:1016C00080BCC28282828282050A0A09020060000E
:1016D00000E02020202020F8050D0D0902FD180053
:1016E0000038080808080808888870070A0A0901ED
:1016F00000808080848890B0C88482050A0A09022C
:1017000000E02020202020202020F80707070901E2
:1017100000EC929292929282070707090100BCC2E4
:1017200082828282820707070901007C828282828C
:10173000827C070A0A0901FDB8C4828282C4B8808B
:101740008080070A0A0901FD3A46828282463A02EF
:1017500002020707070901009C624240404040071F
:1017600007070901007C82807C02827C0709090945
:1017700001002020FC20202020221C07070709014F
:10178000008282828282867A0707070901008282AC
:101790004444282810070707090100828292929288
:1017A000AA44070707090100824428102844820739
:1017B0000A0A0901FD4242242424181810906007E7
:1017C0000707090100FE0408102040FE060B0B0964
:1017D00002001C20202020C0202020201C010C0CF6
:1017E0000904FF80808080808080808080808006E7
:1017F0000B0B090100E0101010100C10101010E07D
:1018000007030309010762928CFFFFFFFFFFFFFF41
:10181000FFFFFFFFFFFFFFFFFFFFFFFFFFFFFFFFD8
:10182000FFFFFFFFFFFFFFFFFFFF00000009000EAB
:10183000010B0B0904008080000080808080808084
:101840008006080809010008789490A0A478400751
:101850000A0A0901001C222020F8202060A25C074F
:101860000606090103827C44447C82070A0A0901B6
:1018700000828244287C107C101010010B0B09049C
:10188000FF8080808080008080808080040B0B0936
:1018900002FF609080609090906010906003020260
:1018A00009030BA0A00809090900013C4299A5A160
:1018B000A599423C050707090103609070907800E4
:1018C000F8070808090101122448909048241206DC
:1018D0000404090102FC040404050101090204F8DE
:1018E0000809090900013C42B9A5BDA9A5423C0669
:1018F0000101090109FC04040409030660909060D9
:10190000070909090101101010FE10101000FE0453
:1019100006060901046090106080F00406060901C3
:101920000460902010906003030309030A204080A4
:101930000709090901FE8282828282C6BA80800775
:101940000A0A0901007E8A8A8A7A0A0A0A0A0A02AF
:101950000202090404C0C00403030902FD209060D0
:1019600003060609010440C0404040E005060609A0
:1019700001047088887000F8070808090101904880
:10198000241212244890070A0A09010040C040406E
:1019900042E60A121A06070A0A09010040C040403E
:1019A0004CF2020C101E070A0A0901006090201078
:1019B00092660A121A06070A0A090100100010109E
:1019C00020408082827C070E0E0901002010080052
:1019D00010282828447C44828282070E0E090100C8
:1019E0000810200010282828447C44828282070E98
:1019F0000E0901001028440010282828447C448245
:101A00008282070D0D09010034580010282828444F
:101A10007C44828282070D0D0901002828001028CD
:101A20002828447C44828282070E0E090100102877
:101A3000281010282828447C44828282070A0A0938
:101A400001001E2828284E784888888E070D0D0929
:101A500001FD3C42808080808080423C0824180741
:101A60000E0E09010020100800FE808080F88080A2
:101A70008080FE070E0E09010008102000FE808005
:101A800080F880808080FE070E0E09010010284437
:101A900000FE808080F880808080FE070D0D0901A7
:101AA00000282800FE808080F880808080FE050E5F
:101AB0000E09020040201000F820202020202020C5
:101AC00020F8050E0E09020010204000F82020200A
:101AD0002020202020F8050E0E090200205088004A
:101AE000F82020202020202020F8050D0D090200DC
:101AF000505000F82020202020202020F8070A0A3B
:101B000009010078444242F24242424478070D0DF6
:101B10000901003458008282C2A2928A868282829F
:101B2000070E0E090100201008007C82828282824A
:101B30008282827C070E0E090100081020007C8240
:101B4000828282828282827C070E0E090100102826
:101B500044007C82828282828282827C070D0D090F
:101B600001003458007C82828282828282827C07D9
:101B70000D0D0901002828007C82828282828282E7
:101B8000827C070707090101824428102844820744
:101B90000C0C0901FF027C868A8A9292A2A2C27C66
:101BA00080070E0E090100201008008282828282C6
:101BB0008282824438070E0E09010008102000823C
:101BC000828282828282824438070E0E09010010CE
:101BD00028440082828282828282824438070D0DEC
:101BE000090100282800828282828282828244380F
:101BF000070E0E09010008102000828244281010F0
:101C000010101010070A0A0901008080FC828282ED
:101C1000FC808080060A0A09010038444448D04804
:101C200044444458070B0B090100201008007C02B3
:101C3000027E82867A070B0B090100081020007CC7
:101C400002027E82867A070B0B09010010284400ED
:101C50007C02027E82867A070A0A09010034580053
:101C60007C02027E82867A070A0A0901002828007F
:101C70007C02027E82867A070C0C0901001028285B
:101C800010007C02027E82867A0707070901006C39
:101C900012127E90926C070A0A0901FD7C828080F4
:101CA00080827C104830070B0B09010020100800CF
:101CB0007C8282FE80827C070B0B090100081020C9
:101CC000007C8282FE80827C070B0B0901001028B9
:101CD00044007C8282FE80827C070A0A0901002877
:101CE00028007C8282FE80827C050C0C0902008028
:101CF00040200000E02020202020F8050C0C0902E4
:101D0000001020400000E02020202020F8050C0CCE
:101D10000902002050880000E02020202020F80543
:101D20000B0B09020050500000E02020202020F87A
:101D3000070B0B090100483050083C448282824462
:101D400038070A0A090100345800BCC28282828224
:101D500082070B0B090100201008007C828282821E
:101D6000827C070B0B090100081020007C82828214
:101D700082827C070B0B090100102844007C8282C0
:101D80008282827C070A0A0901003458007C828220
:101D90008282827C070A0A0901002828007C82824C
:101DA0008282827C07090909010010381000FE00B8
:101DB0001038100709090901FF027C8A8A92A2A241
:101DC0007C80070B0B090100402010008282828278
:101DD00082867A070B0B090100081020008282829C
:101DE0008282867A070B0B09010010284400828248
:101DF000828282867A070A0A0901002828008282E4
:101E0000828282867A070E0E0901FD0408100042C4
:101E1000422424241818109060070B0B0901FE803F
:101E200080B8C4828282C4B88080070D0D0901FD8C
:101E300024240042422424241818109060000C0F1F
:101E400000FE07022503BB01FFFE0AFE08FE05088F
:101E50000806000040F0C888889878100508080631
:101E60000000C0F88888888888F805050506000104
:101E70002030F830200508080600002070F82020E7
:101E80002020E00509090600FF2070A8A8B888886E
:101E90007020070505070001D86C366CD8050909C4
:101EA0000600FFF8A88888888888A8F8050A0A0626
:101EB00000FE205050505088A8A8887003030306E5
:101EC000000340A040FFFFFFFFFFFFFFFFFFFFFFFA
:101ED000FFFFFFFFFFFFFFFFFFFFFF000000060502
:101EE000FF010707060200808080808000800303D6
:101EF00003060105A0A0A005060606000050F85044
:101F000050F8500509090600FF2070A8A07028A805
:101F10007020050707060000C8C8102040989805E3
:101F2000070706000040A0A040A890680103030630
:101F300002058080800309090601FF20404080805F
:101F4000804040200309090601FF804040202020F6
:101F500040408005070706000020A8702070A820D8
:101F60000505050600012020F820200203030601D4
:101F7000FFC04080050101060003F80202020601CD
:101F800000C0C00507070600000810102040408070
:101F9000050707060000708898A8C888700307071F
:101FA00006010040C040404040E005070706000031
:101FB000708808102040F8050707060000F8081090
:101FC0003008887005070706000010305090F810A0
:101FD00010050707060000F880F00808887005075C
:101FE00007060000304080F088887005070706006B
:101FF00000F8081010202020050707060000708850
:10200000887088887005070706000070888878083F
:102010001060020505060100C0C000C0C00206062F
:102020000601FFC0C000C040800305050601012075
:1020300040804020050303060002F800F803050570
:1020400006010180402040800507070600007088D7
:1020500010202000200507070600007088B8A8B8E7
:102060008070050707060000708888F88888880552
:102070000707060000F04848704848F005070706C3
:10208000000070888080808870050707060000F0D7
:102090004848484848F0050707060000F88080F0E7
:1020A0008080F8050707060000F88080F0808080B7
:1020B000050707060000708880809888700507076C
:1020C000060000888888F8888888030707060100CA
:1020D000E04040404040E00507070600003810108F
:1020E000101090600507070600008890A0C0A0901F
:1020F00088050707060000808080808080F805073B
:102100000706000088D8A888888888050707060081
:10211000008888C8A8988888050707060000708886
:102120008888888870050707060000F08888F08096
:10213000808005070706000070888888A8906805D9
:102140000707060000F08888F0A0908805070706BA
:10215000000070888070088870050707060000F886
:102160002020202020200507070600008888888876
:1021700088887005070706000088888888505020E6
:1021800005070706000088888888A8A85005070763
:102190000600008888502050888805070706000040
:1021A00088885020202020050707060000F8081026
:1021B000204080F80309090601FFE08080808080CC
:1021C0008080E005070706000080404020101008CE
:1021D0000309090601FFE020202020202020E0053F
:1021E00003030600052050880501010600FEF803E0
:1021F0000303060105804020050505060000700860
:102200007888780507070600008080F0888888F0C5
:102210000505050600007080808870050707060028
:102220000008087888888878050505060000708809
:10223000F08070050707060000304840E04040404D
:102240000507070600FE708888887808700507076C
:102250000600008080F08888888803070706010050
:102260004000C0404040E00409090601FE10003073
:1022700010101010906005070706000080808890FD
:10228000E09088030707060100C04040404040E05E
:10229000050505060000D0A8A8A8A80505050600A4
:1022A00000B0C88888880505050600007088888801
:1022B000700507070600FEF0888888F08080050713
:1022C000070600FE78888888780808050505060056
:1022D00000B0C88080800505050600007880700881
:1022E000F00507070600002020F82020201805052B
:1022F000050600008888889868050505060000889E
:10230000888850200505050600008888A8A8500583
:10231000050506000088502050880507070600FEC6
:1023200088888850204080050505060000F81020A8
:1023300040F80309090601FF20404040804040402A
:10234000200109090602FF808080808080808080D3
:102350000309090601FF80404040204040408005BD
:10236000030306000248A890FFFFFFFFFFFFFFFFE7
:10237000FFFFFFFFFFFFFFFFFFFFFFFFFFFFFFFF6D
:10238000FFFFFFFFFFFFFFFFFF0000000605FF014B
:10239000070706020080008080808080050707060E
:1023A00000FF2070A8A0A8702005070706000030D5
:1023B0004840E04048B0050505060000A850885098
:1023C000A80507070600008850F820F8202001071C
:1023D00007060200808080008080800408080601D3
:1023E0000070806090906010E0030101060107A07A
:1023F0000607070600007884B4A4B48478030505B2
:1024000006010460A06000E00505050600002850F4
:10241000A05028050303060001F80808030101067F
:102420000103E00607070600007884B4A4A48478BA
:10243000050101060007F8040404060105609090F8
:10244000600507070600002020F8202000F803059B
:102450000506010440A02040E0030505060104C074
:10246000204020C003030306010520408005070724
:102470000600FE88888898E8808005080806000025
:1024800078E8E8E868282828020202060203C0C0AB
:102490000302020601FE20C003050506010440C038
:1024A0004040E003050506010540A04000E00505A9
:1024B00005060000A0502850A0050A0A06000040AA
:1024C000C048506050B0507810050A0A060000401D
:1024D000C048506050A8081038050A0A060000C01D
:1024E000204830E050B05078100507070600002063
:1024F000002020408870050A0A0600004020007075
:102500008888F8888888050A0A060000102000706C
:102510008888F8888888050A0A060000205000701C
:102520008888F8888888050A0A06000068B0007064
:102530008888F88888880509090600005000708896
:1025400088F8888888050A0A0600002050207088CC
:1025500088F888888805070706000078A0A0F0A002
:10256000A0B80509090600FE708880808088701078
:1025700060050A0A060000402000F88080F0808094
:10258000F8050A0A060000102000F88080F080801C
:10259000F8050A0A060000205000F88080F08080CC
:1025A000F80509090600005000F88080F08080F8E6
:1025B000030A0A060100804000E04040404040E03D
:1025C000030A0A060100204000E04040404040E08D
:1025D000030A0A06010040A000E04040404040E0FD
:1025E000030909060100A000E04040404040E0052A
:1025F0000707060000704848E8484870050A0A06C0
:10260000000068B0008888C8A8988888050A0A066B
:10261000000040200070888888888870050A0A06B3
:10262000000010200070888888888870050A0A06D3
:10263000000020500070888888888870050A0A0683
:10264000000068B0007088888888887005090906CD
:10265000000050007088888888887005050506008D
:102660000188502050880509090600FF087098A8C5
:10267000A8A8C87080050A0A0600004020008888C3
:102680008888888870050A0A06000010200088885B
:102690008888888870050A0A06000020500088880B
:1026A0008888888870050909060000500088888895
:1026B00088888870050A0A06000010200088885063
:1026C0002020202004070706010080E0909090E081
:1026D00080050707060000708890A09088B0050864
:1026E0000806000040200070087888780508080671
:1026F000000010200070087888780508080600009F
:10270000205000700878887805080806000068B036
:1027100000700878887805070706000050007008E8
:10272000788878050808060000205020700878880E
:1027300078050505060000702870A07805070706D3
:1027400000FE708880887010600508080600004050
:1027500020007088F0807005080806000010200036
:102760007088F0807005080806000020500070880E
:10277000F0807005070706000050007088F0807038
:10278000030808060100804000C0404040E0030804
:1027900008060100204000C0404040E00308080651
:1027A000010040A000C0404040E0030707060100D0
:1027B000A000C0404040E00509090600005020503C
:1027C00008788888887005080806000068B000B09E
:1027D000C88888880508080600004020007088889E
:1027E000887005080806000010200070888888702E
:1027F00005080806000020500070888888700508C9
:102800000806000068B00070888888700507070611
:1028100000005000708888887005050506000120BA
:1028200000F800200505050600007898A8C8F00506
:10283000080806000040200088888888700508087D
:1028400006000010200088888888700508080600A7
:10285000002050008888888870050707060000500F
:10286000008888888870050A0A0600FE1020008803
:102870008888502040800509090600FE8080F08885
:102880008888F080800509090600FE500088888845
:102890005020408041425300504C41004572723AF2
:1028A00020454550524F4D20436F72727570740031
:1028B0004572723A20454550524F4D2043524300D5
:1028C0004572723A20454550524F4D2054616D611A
:1028D000C3B16F004572723A205665727369C3B313
:1028E0006E20454550524F4D00462E20416C696D7B
:1028F000656E742E0047656E657269630050726F75
:10290000746F636F6C6F00312E30004261756469C3
:102910006F73003131353230300052756D626100B5
:102920004578747275736F7265730032006D6172F1
:102930006C696E66772E6F72670053495249555322
:1029400020333030204944455800323032362D3063
:10295000362D323400322E312E322E38004D617237
:102960006C696E004573746164C3AD7374696361AF
:102970007320496D702E005465726D6973746F72A7
:10298000657300496E666F2E20436F6E74726F6CB4
:1029900061646F7200496E666F2E20496D707265BA
:1029A000736F7261004D656EC3BA207072696E6399
:1029B0006970616C003F00417472C3A17300506183
:1029C0007261720053442F4644206E6F207072650E
:1029D00073656E746500496D7072696D2E20646553
:1029E0007364652053442F46440043616D626961FE
:1029F000722053442F4644004D323100496E666FB9
:102A00002E20496D707265736F726100436F6E6640
:102A100069677572616369C3B36E0054656D7065F3
:102A2000726174757261004D6F76696D69656E745F
:102A30006F005265616E7564617220696D707265B8
:102A40007369C3B36E00416A757374617200446543
:102A500074656E657220696D7072657369C3B36E5B
:102A60000050617573617220696D7072657369C31E
:102A7000B36E0050616E74616C6C612064652049B6
:102A80006E662E003F00496E696369617220696D50
:102A90007072657369C3B36E0043616E63656C6188
:102AA0007200496D7072696D69720043616E6E6F7C
:102AB0007420656E746572207375626469723A2061
:102AC0000002202E2E004D656EC3BA207072696E12
:102AD000636970616C004D6F76657220246D6D00C6
:102AE000302E303235004D6F76657220302E316DCC
:102AF0006D004D6F76657220316D6D004D6F76659E
:102B0000722031306D6D002100486F74656E642055
:102B10006D7579206672696F00417472C3A173008C
:102B200050726F6365646572004578747275736F77
:102B300072202A004578747275736F720053656C49
:102B4000656363696F6E6172202A005431005430EE
:102B5000004D6F7665722040004D6F76696D696536
:102B60006E746F00417061676172206D6F746F7277
:102B70006573004D3834004732385A0047323859AF
:102B800000486F6D6520400047323858004C6C6536
:102B900076617220616C206F726967656E004732E2
:102BA00038004D6F76657220656A6573004D656EFD
:102BB000C3BA207072696E636970616C005072658F
:102BC00063616C2E20242043616D61005072656347
:102BD000616C2E202420546F646F00507265636115
:102BE0006C2E2024204675736F72207E0050726513
:102BF00063616C2E2024207E0054656D70657261C7
:102C0000747572610098289428456E6672696172C5
:102C10000050726563616C2E20240056656E7469E5
:102C20006C61646F720043616D6100426F71756920
:102C30006C6C61207E004D656EC3BA207072696E47
:102C4000636970616C004D6963726F7061736F20AE
:102C500058004D6963726F7061736F2059004D6940
:102C600063726F7061736F205A004D6963726F7089
:102C700061736F204000466C756A6F207E00466C61
:102C8000756A6F0056656E74696C61646F7200439B
:102C9000616D6100426F7175696C6C61207E0056D8
:102CA000656C6F6369646164004D656EC3BA2070C2
:102CB00072696E636970616C0049722061206F7285
:102CC0006967656E2046616C6C61646F006F70654A
:102CD0006E00545249474745524544003A20007A15
:102CE0005F6D696E00795F6D696E00785F6D617808
:102CF00000785F6D696E005265706F7274696E67FF
:102D000020656E6473746F70207374617475730AD8
:102D10000020746F6F206C6F6E6720657874727519
:102D200073696F6E2070726576656E7465640A00F3
:102D300020636F6C6420657874727573696F6E20A0
:102D400070726576656E7465640A00000040C200AA
:102D50000040C1000000005761726E696E673A2042
:102D6000486F6D696E672042756D702044697669A1
:102D7000736F72203C20310A000404020080AB43D0
:102D8000008099430080894300004040000040409B
:102D90000000004020746F6F206C6F6E67206578B4
:102DA00074727573696F6E2070726576656E746586
:102DB000640A0020636F6C642065787472757369AF
:102DC0006F6E2070726576656E7465640A00536577
:102DD0007474696E67732053746F72656400290A96
:102DE000002062797465733B206372632000536531
:102DF0007474696E67732053746F72656420280061
:102E000048617264636F6465642044656661756CD3
:102E1000742053657474696E6773204C6F616465C8
:102E2000640020286D6D29002046002042002048C3
:102E30000020204D3134352053004D617465726996
:102E4000616C2068656174757020706172616D6578
:102E5000746572730020204D3134392043203B20AB
:102E6000556E69747320696E2043656C7369757360
:102E70000A0054656D706572617475726520556ED7
:102E8000697473002020473231203B004C696E6525
:102E9000617220556E69747300454550524F4D2044
:102EA0006461746173697A65206572726F722E0A4B
:102EB00000202863616C63756C6174656429210A64
:102EC0000020213D2000454550524F4D20435243A4
:102ED000206D69736D61746368202D202873746F91
:102EE000726564292000454550524F4D20436F7252
:102EF000727570740A002053697A653A2000496E31
:102F00006465783A2000290A002062797465733B71
:102F10002063726320002073746F72656420736590
:102F20007474696E6773207265747269657665641E
:102F300020280000007A4300001643000070410082
:102F400000A0424861A0424861A0420000C843007E
:102F500000C042D00700008403000064000000109D
:102F6000270000204D61726C696E3D563838290A81
:102F700000454550524F4D2076657273696F6E2043
:102F80006D69736D617463682028454550524F4DDB
:102F90003D0020436F756E7420583A0000014532A1
:102FA0000043616D61004531004500626564002C9D
:102FB0002073797374656D2073746F70706564210C
:102FC000204865617465725F49443A200045727219
:102FD0003A54454D502E204DC38158004D41585410
:102FE000454D50207472696767657265640043617E
:102FF0006C656E742E2066616C6C69646F00486548
:103000006174696E67206661696C656400200140C7
:103010000130013B01400136016001310170012C9A
:103020000190012701B0012201C0011D01F001182A
:10303000011002130130020E016002090190020426
:1030400001C002FF000003FA004003F5008003F016
:1030500000D003EB002004E6007004E100E004DC93
:10306000004005D700C005D2004006CD00D006C8FC
:10307000008007C3003008BE00F008B900C009B4E2
:1030800000B00AAF00B00BAA00D00CA500000EA043
:1030900000500F9B00C01096005012910000148C3D
:1030A00000C0158700B0178200B0197D00D01B78D2
:1030B00000001E730040206E0090226900F024641E
:1030C0000040275F0090295A00E02B5500102E5039
:1030D0000020304B0010324600E033410090353C78
:1030E000001037370070383200A0392D00B03A2870
:1030F00000A03B2300603C1E00103D1900903D14D1
:1031000000103E0F00703E0A00C03E0500003F0068
:1031100000403FFBFF803FF6FFC03FF1FF4572726A
:103120003A54454D502E204D494E004D494E544580
:103130004D50207472696767657265640046554733
:10314000412054C389524D49434100546865726D12
:10315000616C2052756E6177617900202F002040EC
:10316000002042403A0020403A00496E76616C6986
:10317000642065787472756465720A0041637469CD
:1031800076652045787472756465723A200000098E
:10319000121B242D363F48415A536C657E77191017
:1031A0000B023D342F265158434A757C676E323BE3
:1031B0002029161F040D7A7368615E574C452B2237
:1031C00039300F061D14636A7178474E555C646D83
:1031D000767F4049525B2C253E3708011A137D74D7
:1031E0006F6659504B42353C272E1118030A565F23
:1031F000444D727B60691E170C053A3328214F46F7
:103200005D546B627970070E151C232A31384148D2
:10321000535A656C777E09001B122D243F36585196
:103220004A437C756E671019020B343D262F737A62
:103230006168575E454C3B3229201F160D046A63B6
:1032400078714E475C55222B3039060F141D252C02
:10325000373E0108131A6D647F7649405B523C3556
:103260002E2718110A03747D666F5059424B171EA2
:10327000050C333A21285F564D447B7269600E0776
:103280001C152A233831464F545D626B707900005B
:103290002110422063308440A550C660E770088149
:1032A00029914AA16BB18CC1ADD1CEE1EFF13112C0
:1032B000100273325222B5529442F772D662399399
:1032C00018837BB35AA3BDD39CC3FFF3DEE3622410
:1032D000433420040114E664C774A44485546AA5E9
:1032E0004BB528850995EEE5CFF5ACC58DD55336A0
:1032F000722611163006D776F6669556B4465BB739
:103300007AA719973887DFF7FEE79DD7BCC7C4486F
:10331000E5588668A7784008611802282338CCC988
:10332000EDD98EE9AFF9488969990AA92BB9F55AFF
:10333000D44AB77A966A711A500A333A122AFDDBD8
:10334000DCCBBFFB9EEB799B588B3BBB1AABA66CCF
:10335000877CE44CC55C222C033C600C411CAEED28
:103360008FFDECCDCDDD2AAD0BBD688D499D977EDF
:10337000B66ED55EF44E133E322E511E700E9FFF78
:10338000BEEFDDDFFCCF1BBF3AAF599F788F88912E
:10339000A981CAB1EBA10CD12DC14EF16FE1801012
:1033A000A100C230E3200450254046706760B98315
:1033B0009893FBA3DAB33DC31CD37FE35EF3B10262
:1033C0009012F322D2323542145277625672EAB525
:1033D000CBA5A89589856EF54FE52CD50DC5E234B2
:1033E000C324A01481046674476424540544DBA7F5
:1033F000FAB79987B8975FE77EF71DC73CD7D32602
:10340000F2369106B01657667676154634564CD984
:103410006DC90EF92FE9C899E9898AB9ABA9445851
:10342000654806782768C018E1088238A3287DCB54
:103430005CDB3FEB1EFBF98BD89BBBAB9ABB754AA1
:10344000545A376A167AF10AD01AB32A923A2EFDE4
:103450000FED6CDD4DCDAABD8BADE89DC98D267CF1
:10346000076C645C454CA23C832CE01CC10C1FEF34
:103470003EFF5DCF7CDF9BAFBABFD98FF89F176E41
:10348000367E554E745E932EB23ED10EF01E7C3CBD
:103490003E5E2B3D3F2F5B5D3B2C2A225C0046614C
:1034A0006C6C6F20616C20696E6963696172205376
:1034B000442F46440053442063617264206F6B0ABA
:1034C000006F70656E526F6F74206661696C656421
:1034D0000A00766F6C756D652E696E697420666181
:1034E000696C65640A004E6F205344206361726406
:1034F0000A00534420636172642072656C656173D5
:1035000065640A000A4D3234004D323320257300C1
:103510002E0A006F70656E206661696C65642C20F0
:1035200046696C653A200046696C652073656C6578
:10353000637465640A002053697A653A200046691D
:103540006C65206F70656E65643A2000454E4420BE
:10355000535542524F5554494E450A002220706F30
:1035600073002220706172656E743A2200535542D6
:10357000524F5554494E452043414C4C2074617282
:103580006765743A2200446573626F7264616D69A5
:10359000656E746F206465207375626C6C616D611B
:1035A0006461004578636565646564206D617820B9
:1035B000535542524F5554494E45206465707468C6
:1035C0003A0057726974696E6720746F2066696C7F
:1035D000653A2000667265736800646F696E670003
:1035E0002066696C653A20004E6F7720002F617568
:1035F000746F25632E6700026D61726C696E667769
:103600002E6F726700322E312E322E38001FFFFFD0
:10361000FFFFFFFF600000000001FF40000000000E
:1036200000FF8000000000007F83CF00000C303FCF
:1036300087FF80000C301F867980000C000F8C30D3
:10364000C7838C30E78C30CFC7CC31F38C30DCECC7
:10365000EC33B98C30D86C6C33198C30D06C0C33A3
:10366000198C30D86C0C33198C30DC6C0E3B198CF7
:1036700030CF7C079F198C30C77C038F1940000026
:1036800000000002600000000000061FFFFFFFFFB7
:10369000FFF81000C90210012C0140012201700145
:1036A0001801B0010E01F00104015002FA00B0024D
:1036B000F0003003E600D003DC009004D200700577
:1036C000C800A006BE000008B400B009AA00D00BD4
:1036D000A000600E960060118C0000158200201979
:1036E0007800C01D6E00A0226400B0275A00902C04
:1036F000500000314600E0343C0010383200903A6F
:103700002800603C1E00A03D1400803E0A00203FBF
:1037100000002020506C616E6E65724275666665B1
:103720007242797465733A20002046726565204DB7
:10373000656D6F72793A200020436F6D70696C651A
:10374000643A2053657020203320323032360A002C
:10375000204C61737420557064617465643A203242
:103760003032362D30362D3234207C20417574684D
:103770006F723A20534952495553203330307833D1
:1037800030302049444558202D206F646F736C669B
:10379000202D204D61726C696E20322E312E322E1A
:1037A000380A004D61726C696E20322E312E322E35
:1037B000380A0020536F6674776172652052657312
:1037C00065740A00205761746368646F67205265EE
:1037D0007365740A002042726F776E206F757420D3
:1037E00052657365740A002045787465726E616C69
:1037F0002052657365740A00506F77657255700AC0
:103800000073746172740A004D31303031006F6B97
:10381000006572726F722077726974696E672074C6
:103820006F2066696C650A00446F6E65207361766F
:10383000696E672066696C652E0A00456E64737454
:103840006F70730025532025632025632025632096
:10385000256300656E6473746F7073206869743AD1
:10386000200000000A0B02090C0D0E0807030401DA
:103870000000000000000000000000000000000048
:103880000000000000000000000000000000121115
:103890001000000000000000000000000000000018
:1038A000000000000000000024F404D9201BC40C18
:1038B0005C0E9804C4095F0265077101F405F90004
:1038C000FB04B30048048700C10369005803550096
:1038D00003034500BE023A008402310053022A006D
:1038E0002902250004022000E4011C00C80119007F
:1038F000AF0117009801140084011300710110003A
:103900006101100051010E0043010D0036010B0052
:103910002B010B0020010B00150109000C0109000F
:1039200003010800FB000800F3000800EB0007009B
:10393000E4000600DE000600D8000600D200060003
:10394000CC000500C7000500C2000500BD00040052
:10395000B9000400B5000400B1000400AD0004008B
:10396000A9000400A5000300A20003009F000400BA
:103970009B000300980003009500020093000300E1
:10398000900003008D0002008B00030088000200FD
:103990008600020084000300810002007F00020014
:1039A0007D0002007B000200790002007700010028
:1039B0007600020074000200720001007100020033
:1039C0006F0002006D0001006C0002006A0001003F
:1039D0006900020067000100660001006500010047
:1039E000640002006200010061000100600001004B
:1039F0005F0002005D0001005C0001005B0001004F
:103A00005A00010059000100580001005700010050
:103A10005600010055000100540001005300000051
:103A2000530001005200010051000100500001004C
:103A30004F0001004E0000004E0001004D0001004B
:103A40004C0001004B0000004B0001004A00010047
:103A50004900010048000000480001004700010043
:103A6000460000004600010045000000450001003E
:103A70004400010043000000430001004200000038
:103A8000420001004100000041000100400001002F
:103A90003F0000003F0001003E0000003E0001002A
:103AA0003D0000003D0001003C0000003C00000023
:103AB0003C0001003B0000003B0001003A00000018
:103AC0003A00010039000000390001003800000010
:103AD0003800000038000100370000003700010006
:103AE00036000000360000003600010035000000FE
:103AF00035000000350001003400000034000000F3
:103B000034000100330000003300000033000100E6
:103B100032000000320000003200010031000000DD
:103B200031000000310001003000000030000000D2
:103B3000300001002F0000002F0000002F000000C7
:103B40002F0001002E0000002E0000002E000100BA
:103B50002D0000002D0000002D0000002D000100B0
:103B60002C0000002C0000002C0000002C000100A4
:103B70002B0000002B0000002B0000002B00010098
:103B80002A0000002A0000002A0000002A0001008C
:103B90002900000029000000290000002900000081
:103BA0002900010028000000280000002800000073
:103BB0002800000028000100270000002700000066
:103BC0002700000027000000270001002600000059
:103BD000260000002600000026000000260001004C
:103BE0002500000025000000250000002500000041
:103BF0002500000025000100240000002400000032
:103C00002400000024000000240001002300000024
:103C10002300000023000000230000002300000018
:103C20002300000023000100220000002200000009
:103C300022000000220000002200000022000100FB
:103C400021000000210000002100000021000000F0
:103C500021000000210000002100010020000000E0
:103C600020000000200000002000000020000000D4
:103C70002000000020000000200001001F000000C4
:103C80001F0000001F0000001F0000001F000000B8
:103C90001F0000001F0001001E0000001E000000A9
:103CA0001E0000001E00000024F4D43050C38E20FB
:103CB000C2A24017828B7011127A910D816CD90AC1
:103CC000A861E108C7586607615143061E4B5D05B0
:103CD000C145A7041A411104093D98037139310304
:103CE0004036DB0265339102D4305402802E1D022F
:103CF000632CEE01752AC501B028A00110278101AF
:103D00008F2564012B244B01E0223401AC211F01DB
:103D10008D200D01801FFC00841EED00971DDF002B
:103D2000B81CD200E61BC600201BBC00641AB200FF
:103D3000B219A8000A19A0006A189900D1179100B9
:103D400040178B00B516840031167E00B31579003C
:103D50003A157300C7146F0058146A00EE1366001A
:103D60008813630025135E00C7125B006C125700B6
:103D700015125400C111510070114F0021114B0058
:103D8000D61049008D104700461044000210420032
:103D9000C00F4000800F3E00420F3C00060F3B006A
:103DA000CB0E3800930E37005C0E3500270E340022
:103DB000F30D3200C10D3100900D3000600D2E006A
:103DC000320D2D00050D2C00D90C2B00AE0C290056
:103DD000850C29005C0C2700350C27000E0C2600F2
:103DE000E80B2400C40B2400A00B23007D0B230050
:103DF0005A0B2100390B2100180B2000F80A1F0074
:103E0000D90A1E00BB0A1E009D0A1D00800A1D0063
:103E1000630A1C00470A1B002C0A1B00110A1A0027
:103E2000F7091A00DD091900C4091900AB091900C6
:103E3000920917007B091800630917004C09160046
:103E400036091600200916000A091500F5081500A4
:103E5000E0081400CC081400B8081400A4081400EA
:103E6000900813007D0812006B0813005808120018
:103E7000460812003408110023081100120811002E
:103E800001081100F0071000E0071000D007100033
:103E9000C0071000B0070F00A107100091070E0027
:103EA00083070F0074070F0065070E0057070E0009
:103EB00049070E003B070D002E070E0020070D00DE
:103EC00013070D0006070D00F9060C00ED060D00A6
:103ED000E0060C00D4060C00C8060C00BC060C0062
:103EE000B0060C00A4060B0099060C008D060B0012
:103EF00082060B0077060B006C060B0061060A00B9
:103F000057060B004C060A0042060A0038060A0053
:103F10002E060A0024060A001A060A0010060900E6
:103F200007060A00FD050900F4050900EB05090074
:103F3000E2050900D9050900D0050900C7050900F7
:103F4000BE050900B5050800AD050800A505090076
:103F50009C050800940508008C05080084050800ED
:103F60007C050800740508006C050700650508005D
:103F70005D050700560508004E05070047050700C8
:103F80004005080038050700310507002A0507002D
:103F9000230507001C050600160507000F0507008E
:103FA0000805060002050700FB040600F5040700EB
:103FB000EE040600E8040600E2040700DB04060045
:103FC000D5040600CF040600C9040600C304060099
:103FD000BD040600B7040600B1040500AC040600E9
:103FE000A6040600A00405009B0406009504050035
:103FF000900406008A04050085040500800406007C
:104000007A04050075040500700405006B040500C2
:1040100066040500610405005C0405005704050002
:10402000520405004D040500480405004304050042
:104030003E0404003A040500350405003004040081
:104040002C04050027040400230405001E040400BA
:104050001A04040016040500110404000D040400F1
:10406000090405000404040000040400FC03040027
:10407000F8030400F4030400F0030400EC0304005C
:10408000E8030400E4030400E0030400DC0304008C
:10409000D8030400D4030400D0030400CC030400BC
:1040A000C8030300C50303005D2E00006E2300005B
:1040B00013180000AF0E00003D080000630400006C
:1040C0004502000027010000200020002000FFFF23
:1040D000FF43616E6E6F74206F70656E2073756242
:1040E0006469722000220A00556E6B6E6F776E2035
:1040F000636F6D6D616E643A202200204500205A86
:104100000020590020204D3932205800537465702A
:10411000732070657220756E697400627573793AE8
:104120002070617573656420666F7220696E7075AA
:10413000740A00627573793A207061757365642042
:10414000666F7220757365720A00627573793A2022
:1041500070726F63657373696E670A0053442F460C
:104160004420726574697261646F0053442F464441
:1041700020696E7365727461646F004D3131322055
:1041800053687574646F776E00444554454E4944D6
:1041900041005072696E7465722073746F7070653F
:1041A000642064756520746F206572726F72732E5F
:1041B0002046697820746865206572726F7220618C
:1041C0006E6420757365204D39393920746F207203
:1041D0006573746172742E202854656D7065726108
:1041E000747572652069732072657365742E20532F
:1041F00065742069742061667465722072657374D9
:10420000617274696E67290A004E6F2043686563A6
:104210006B73756D2077697468206C696E65206EAC
:10422000756D6265722C204C617374204C696E65EB
:104230003A20004D3239004E6F20436865636B733E
:10424000756D2077697468206C696E65206E756D78
:104250006265722C204C617374204C696E653A2043
:1042600000636865636B73756D206D69736D617450
:1042700063682C204C617374204C696E653A200091
:104280004C696E65204E756D626572206973206E93
:104290006F74204C617374204C696E65204E756D8F
:1042A0006265722B312C204C617374204C696E65F1
:1042B0003A20004D3131300053657269616C2073D2
:1042C0007461747573206D69736D617463680A003D
:1042D00053442072656164206572726F720A004BEC
:1042E000494C4C20627574746F6E2F70696E0A00B1
:1042F0002121204B494C4C20636175736564206219
:10430000792000746F6F206D75636820696E61633A
:10431000746976652074696D65202D2063757272ED
:10432000656E7420636F6D6D616E643A20002121AB
:10433000204B494C4C206361757365642062792081
:10434000006F6B0A00526573656E643A20000000CE
:104350002200250028002B002E003100340002012D
:104360000000050108010B010000210024002700C6
:104370002A002D0030003300010100000401070174
:104380000A010505050507050808080802020202DA
:104390000A0A0808040404040101010101010101E1
:1043A0000303030303030303040707070C0C0C0CAC
:1043B0000C0C0C0C02020202060606060606060695
:1043C0000B0B0B0B0B0B0B0B010210202008081022
:1043D0002040102040800201020108040201010275
:1043E000040810204080804020100804020180044E
:1043F00002018040201008040201080402010102A9
:10440000040810204080010204081020408020454C
:104410003A00205A3A0020593A00583A005349527B
:10442000495553203330302049444558204C697356
:10443000746100496D7072696D69656E646F2E2ECE
:104440002E00496D7072657369C3B36E205061753B
:10445000736164610000DB00D90011241FBECFEF3F
:10446000D1E2DEBFCDBF00E00CBF84B78093EF1474
:1044700014BE0FB6F894A89580916000886180936F
:104480006000109260000FBE13E0A0E0B2E0EAE22C
:10449000F9E302E00BBF02C007900D92A639B10705
:1044A000D9F724E1A6E9B3E001C01D92AF3EB207FF
:1044B000E1F712E2CCE2D2E200E006C02197010966
:1044C000802FFE010F940918CB32D10780E0080736
:1044D000A9F70F94A6060D94841C0C940000CF93AA
:1044E000DF93EC01642F70E090E080E00F94A41360
:1044F00029EC38EC48EC5EE30F94FA1820E030E049
:1045000040E05FE30F941E180F9467196883DF91F2
:10451000CF910895E091FE0686E0E802F0011124B3
:10452000EB56FA4F8091E00690E0958384830895DE
:1045300080918507882369F08091CD068770873048
:1045400041F48EE99BE29093DD068093DC061092A5
:1045500085070895CF93DF93EC01CB01BA010F9447
:10456000A41320E030E048EC52E40F94FA182FE650
:1045700032E143E85AE30F941E18688379838A83F3
:104580009B83DF91CF910895CF93DF93EC01CB0113
:10459000BA010F94A41320E030E048EC52E40F94E9
:1045A000FA182FE632E143E85AE30F941E186883A5
:1045B00079838A839B83DF91CF910895CF93DF9393
:1045C000EC01CB01BA010F94A413688379838A8329
:1045D0009B83DF91CF910895CF93DF93EC01CB01C3
:1045E000BA010F94A413688379838A839B83DF9134
:1045F000CF910895CF93DF93EC01CB01BA010F94D3
:10460000A41320E030E048EC52E40F94FA182FE6AF
:1046100032E143E85AE30F941E18688379838A8352
:104620009B83DF91CF910895CF93DF93EC01CB0172
:10463000BA010F94A2132AE037ED43E25DE30F9431
:10464000FA180F946719688379838A839B83DF91B3
:10465000CF910895CF93DF93EC01CB01BA010F9472
:10466000A4132AE037ED43E25DE30F94FA18688360
:1046700079838A839B83DF91CF910895FC015183D5
:1046800040830895CF93DF93EC01CB01BA010F94DF
:10469000A41320E030E04AE754E40F94FA1827E12D
:1046A00037EB41ED58E30F941E18688379838A83B2
:1046B0009B83DF91CF910895FC01A081B1811C9271
:1046C000A281B3818C918F5F8C930280F381E02D66
:1046D00090818CE0989F800D1124E2E4F0E113AE0C
:1046E00084AF08955B9800C090910B0187FD909571
:1046F0009078909309015B9A00C000C05B9800C05D
:1047000090910B0186FD90959078909309015B9AAA
:1047100000C000C05B9800C090910B0185FD909592
:104720009078909309015B9A00C000C05B9800C02C
:1047300090910B0184FD90959078909309015B9A7C
:1047400000C000C05B9800C090910B0183FD909564
:104750009078909309015B9A00C000C05B9800C0FC
:1047600090910B0182FD90959078909309015B9A4E
:1047700000C000C05B9800C090910B0181FD909536
:104780009078909309015B9A00C000C05B9800C0CC
:1047900080910B018078809309015B9A00C000C072
:1047A000089590E080E00895CF93DF93C091D805FD
:1047B000D091D90581E0CE31D105E4F020E030E0A0
:1047C00040E05FE36091D4057091D5058091D605F6
:1047D0009091D7050F941E180F9462196C1B7D0BD6
:1047E00077FF03C071956195710981E063307105B0
:1047F0000CF080E0DF91CF91089590E080E0089583
:1048000020918010833021F425FD0CC024FD0CC0C4
:1048100030E0A90102C0559547958A95E2F7CA0193
:104820008170089581E0089580E008958091BB042F
:1048300084FD0BC08091BD0487FD07C09091BE042C
:10484000937081E019F480E0089581E008952FEBE2
:10485000280F2A3108F047C0E22FF0E08091BB0416
:104860009091BC04A091BD04B091BE0404C0B69563
:10487000A795979587952A95D2F780FD02C08170FC
:104880000895EF55FB4FE081EE2341F180919D07A4
:1048900090919E07E80FF92FF11D808190ED980F00
:1048A0009A3030F08E3251F4818180538A3098F4FE
:1048B000F093A004E0939F0481E008958D3211F0FD
:1048C0008B3249F4818190ED980F9A3088F38E32C3
:1048D00011F48281EACFF0E0E0E0EACF1092A00488
:1048E00010929F04E9CF80E00895B1DF882341F062
:1048F00081E020919F043091A004232B09F480E0F3
:1049000008952F923F924F925F926F927F928F9273
:104910009F92AF92BF92CF92DF92EF92FF920F934E
:104920001F93CF93DF93D62FC72FFC0180809180F8
:10493000A280B380C501B40120E831E541E050E038
:104940000F947817C9016DE671E00F94E2176B01BF
:104950007C01C501B40120E13EE040E050E00F944D
:104960007817CA01B90128E130E040E050E00F9427
:104970007817362E272E062F172F8CE3482E512C12
:10498000612C712CC501B401A30192010F94781719
:10499000B62EA72ECA01B901A30192010F94781770
:1049A000CB01C114D10479F1AF92BF927F936F9381
:1049B0002F923F92FF92EF92DF92CF9282EB9AE09A
:1049C0009F938F93CF93DF930F9437138DB79EB739
:1049D0000E960FB6F8949EBF0FBE8DBF8D2F9C2FE5
:1049E000DF91CF911F910F91FF90EF90DF90CF90CB
:1049F000BF90AF909F908F907F906F905F904F90FF
:104A00003F902F900895E114F104C9F0AF92BF9246
:104A10007F936F932F923F92FF92EF9282EA9AE0F8
:104A20009F938F93CF93DF930F943713EDB7FEB718
:104A30003C960FB6F894FEBF0FBEEDBFCFCF012B53
:104A4000B9F0AF92BF927F936F932F923F9286E916
:104A50009AE09F938F93CF93DF930F9437138DB783
:104A60009EB70A960FB6F8949EBF0FBE8DBFB6CF05
:104A7000892BA9F0AF92BF927F936F938EE89AE053
:104A80009F938F93CF93DF930F943713EDB7FEB7B8
:104A900038960FB6F894FEBF0FBEEDBF9FCFAF9212
:104AA000BF928AE89AE09F938F93CF93DF930F94FE
:104AB00037130F900F900F900F900F900F908ECF95
:104AC0008F929F92AF92BF92CF92DF92EF92FF921E
:104AD000CF936B017C0120E030E0A9010F949E137D
:104AE00087FF8BC06DEB77E386E095EBA70196011E
:104AF0000F941E184B015C0142E050E00E94AFC6CB
:104B00006B017C0120E030E040E251ECC501B401D2
:104B10000F949E13181654F420E030E048EC52E451
:104B2000C501B4010F94441A87FD6CC0C701B601DA
:104B300020E137E240E050E00F949A17CA01B90132
:104B40002AE030E040E050E00F949A17605DF7FEF5
:104B500009C0F094E094D094C094C11CD11CE11C15
:104B6000F11C6DE260935805C701B60128EE33E0F1
:104B700040E050E00F949A179AE0892E912CA12CD6
:104B8000B12CCA01B901A50194010F949A17605D77
:104B900060935905C701B60124E630E040E050E0DB
:104BA0000F949A17CA01B901A50194010F949A179D
:104BB000605D60935A058EE280935B05C701B60184
:104BC000A50194010F949A17C62FCA01B901A50136
:104BD00094010F949A17605D60935C05C05DC0936B
:104BE0005D0588E595E0CF91FF90EF90DF90CF9045
:104BF000BF90AF909F908F9008956DEB77E386E024
:104C000095E374CF20E030E0A901C501B4010F9411
:104C1000441A87FD0BC020E030E040E251E4C501BA
:104C2000B4010F949E1360E287FD1CC0C701B6015A
:104C300028EE33E040E050E00F949A17CA01B90122
:104C40002AE030E040E050E00F949A17605DF7FEF4
:104C500009C0F094E094D094C094C11CD11CE11C14
:104C6000F11C6DE260935905C701B60124E630E0FE
:104C700040E050E00F949A178AE0882E912CA12CE6
:104C8000B12CCA01B901A50194010F949A17605D76
:104C900060935A058EE280935B05C701B601A501BA
:104CA00094010F949A17C62FCA01B901A501940166
:104CB0000F949A17605D60935C05C05DC0935D05BD
:104CC00089E595E090CF0F94A41320E030E048EC04
:104CD00052E40F94FA182FE632E143E85AE30F94B6
:104CE0001E18EECE8F929F92AF92BF92CF92DF921C
:104CF000EF92FF92CF936B017C0120E030E0A9019D
:104D00000F949E1387FDC3C06DEB77E386E095E3B8
:104D1000A70196010F941E186B017C0120E030E082
:104D2000A9010F949E1387FF04C0F7FAF094F7F8D7
:104D3000F09442E050E0C701B6010E94AFC66B019B
:104D40007C0160E280E4C81682E4D8068FE0E806C1
:104D5000F1048CF0C701B60120E432E44FE050E0EA
:104D60000F949A17CA01B9012AE030E040E050E000
:104D70000F949A17605D6093560560E280EAC8164A
:104D800086E8D80681E0E806F1048CF0C701B60198
:104D900020EA36E841E050E00F949A17CA01B901C1
:104DA0002AE030E040E050E00F949A17605D609395
:104DB000570560E280E1C81687E2D806E104F104F5
:104DC0008CF0C701B60120E137E240E050E00F94DB
:104DD0009A17CA01B9012AE030E040E050E00F9490
:104DE0009A17605D6093580560E288EEC81683E00C
:104DF000D806E104F1048CF0C701B60128EE33E0D7
:104E000040E050E00F949A17CA01B9012AE030E05F
:104E100040E050E00F949A17605D60935905C70118
:104E2000B60124E630E040E050E00F949A178AE0A3
:104E3000882E912CA12CB12CCA01B901A501940195
:104E40000F949A17605D60935A058EE280935B051C
:104E5000C701B601A50194010F949A17C62FCA0184
:104E6000B901A50194010F949A17605D60935C05E8
:104E7000C05DC0935D0586E595E0CF91FF90EF9012
:104E8000DF90CF90BF90AF909F908F9008956DEB83
:104E900077E386E095EB3CCF0F94A41320E030E05D
:104EA00048EC52E40F94FA182FE632E143E85AE353
:104EB0000F941E1817CF8F929F92AF92BF92CF92EE
:104EC000DF92EF92FF92CF936B017C0120E030E004
:104ED000A9010F949E1387FD6AC06DEB77E386E00E
:104EE00095E3A70196010F941E1843E050E00E943D
:104EF000AFC66B017C01C114D104E104F10409F4D3
:104F00005BC0F7FE59C0F094E094D094C094C11CEB
:104F1000D11CE11CF11C8DE280935805C701B6013C
:104F200028EE33E040E050E00F949A178AE0882E94
:104F3000912CA12CB12CCA01B901A50194010F94A7
:104F40009A17605D609359058EE280935A05C701F8
:104F5000B60124E630E040E050E00F949A17CA0111
:104F6000B901A50194010F949A17605D60935B05E8
:104F7000C701B601A50194010F949A17C62FCA0163
:104F8000B901A50194010F949A17605D60935C05C7
:104F9000C05DC0935D0588E595E0CF91FF90EF90EF
:104FA000DF90CF90BF90AF909F908F9008956DEB62
:104FB00077E386E095EB95CF80E2AECF0F94A41314
:104FC00020E030E04AE754E40F94FA1827E137EB89
:104FD00041ED58E30F941E186ECFCF92DF92EF92FF
:104FE000FF926B017C0120E030E0A9010F949E1339
:104FF00087FD26C06DEB77E386E095E3A701960178
:105000000F941E186B017C0120E030E0A9010F9481
:105010009E1320E030E040E05FE387FF04C020E023
:1050200030E040E05FEBC701B6010F941E180F940B
:105030006219CB01FF90EF90DF90CF900C9447C6A0
:105040006DEB77E386E095EBD9CF0F94A413C5CF32
:10505000CB010C9447C670E090E080E00F94A4135D
:1050600029EC38EC48EC5EE30F94FA1820E030E0CD
:1050700040E05FE30F941E180F946719862F0C947D
:105080007BC6CF93DF9300D01F92CDB7DEB70F94CE
:10509000A21369837A838B839C83CE0101960E943D
:1050A00078C70F900F900F900F90DF91CF910895D8
:1050B0000F94A2132AE037ED43E25DE30F94FA1850
:1050C0000F946719DECFCF92DF92EF92FF92CF93CA
:1050D000DF9300D01F92CDB7DEB76B017C0120E0DB
:1050E00030E0A9010F949E1387FD1BC06DEB77E3A1
:1050F00086E095E3A70196010F941E1869837A83D1
:105100008B839C83CE0101960E9478C70F900F90ED
:105110000F900F90DF91CF91FF90EF90DF90CF90A5
:1051200008956DEB77E386E095EBE4CF0F94A4133D
:105130002AE037ED43E25DE30F94FA18C4CF0F94F1
:10514000A413C1CFCF92DF92EF92FF92CF93DF9360
:1051500000D01F92CDB7DEB70F94A41320E030E04B
:1051600048EC52E40F94FA182FE632E143E85AE390
:105170000F941E186B017C0120E030E0A9010F9410
:105180009E132DEB37E346E055E387FF04C02DEB7C
:1051900037E346E055EBC701B6010F941E1869834B
:1051A0007A838B839C83CE0101960E94FDC60F906B
:1051B0000F900F900F90DF91CF91FF90EF90DF90C5
:1051C000CF9008950C94B1B50C94B1B50C94729E27
:1051D0000C94729E0C94729E0C94729ECF92DF92ED
:1051E000EF92FF920F931F930E9401E90091CB046D
:1051F0001091CC042091CD043091CE046B017C0140
:10520000C01AD10AE20AF30A9701860137FD11C0DC
:105210002091CA0420952093CA046A547C4F8F4F72
:105220009F4F6093CB047093CC048093CD049093F4
:10523000CE0481E09091CA04911101C080E01F91D9
:105240000F91FF90EF90DF90CF900895CF93DF9371
:10525000C091D805D091D905209729F16091D40546
:105260007091D5058091D6059091D7050F9462195C
:105270006E5F7F4F24976C177D07ACF47093B30576
:105280006093B2050E9401E9605A75418F4F9F4FAC
:105290006093B4057093B5058093B6059093B705F8
:1052A000DF91CF9108951092B4051092B505109238
:1052B000B6051092B705F4CF63E972E084E690E09A
:1052C0000E94B7CF70E060E08AE090E00E94B7CF24
:1052D0006AEB72E084E690E00C94B7CF0E9477C34B
:1052E000EBCF8111E9CF68E270E080E991E00C94A6
:1052F000B7CF0E94F79AF5CF0E94ECC4F2CFBF92CD
:10530000CF92DF92EF92FF920F931F93CF93DF9391
:105310006B01E9014A3009F4D6C0453109F081C07A
:10532000DB011296ED91FC911281C681D7815A9AC8
:1053300000C0000086E290E00197F0F7012F02958F
:10534000007F20E1B22EB10E88EFCCD900C0000062
:1053500086E290E00197F0F7103208F0A1C0812FAB
:1053600080778068BFD9802FBDD900C0000086E259
:1053700090E00197F0F780E8B5D980E0B3D900C09C
:10538000000086E290E00197F0F78AEFABD900C009
:10539000000086E290E00197F0F77E01B0E1EB0EAD
:1053A000F11C8881807F9ED989918295807F9AD9CE
:1053B000CE15DF05B1F700C0000086E290E001974E
:1053C000F0F71F5F005F1B11BFCF5A98D6011296EE
:1053D000ED91FC9180819281980F928321819217A7
:1053E00008F0DFC194819F5F94839381890F8217B6
:1053F00010F08FEF820F8383458150E0440F551FDB
:1054000070E060E0868197810F94301C81E0DF912D
:10541000CF911F910F91FF90EF90DF90CF90BF90B1
:105420000895FB0102811381423309F4BCC108F4E1
:10543000C4C1463409F4B1C1473409F4B9C14B338E
:1054400029F789812B81D80112966C9112971396B6
:105450004C91213009F4F6C1233009F0D7C138EF5F
:10546000380F582F91E0431708F490E041E05317AC
:1054700008F040E031E0561708F430E0592F542B83
:10548000352319F4942309F4C1CFFA8030E0F901EF
:10549000E553FD4FD08029533D4FF901E080CFC146
:1054A00080EE810F8068807F1DD9812F8295807F5B
:1054B00019D900C0000086E290E00197F0F780E87B
:1054C00011D980E85BCF529A5A9880910A0180687E
:1054D00080930A0180910B01807880930901539A8F
:1054E0005B9A5A9A00C0000086E290E00197F0F7BC
:1054F00088E790E0CEE9DFE0FE013197F1F7019710
:10550000D9F788EFEFD800C0000086E290E001975D
:10551000F0F780E2E7D880E0E5D800C0000086E23E
:1055200090E00197F0F780E0DDD880E8DBD800C09C
:10553000000086E290E00197F0F780E0D3D880E1A8
:10554000D1D800C0000086E290E00197F0F7CE01CC
:105550000197F1F7CE010197F1F7CE010197F1F72D
:10556000CE010197F1F7CE010197F1F7CE01019736
:10557000F1F7CE010197F1F7CE010197F1F7CE01D6
:105580000197F1F7CE010197F1F7CE010197F1F7FD
:10559000CE010197F1F7CE010197F1F7CE01019706
:1055A000F1F72197F1F780E29DD880E49BD800C005
:1055B000000086E290E00197F0F780E293D880E661
:1055C00091D800C0000086E290E00197F0F7D0E0AB
:1055D000C0E08C2F8077806885D88D2F83D800C05D
:1055E000000086E290E00197F0F780E87BD880E049
:1055F00079D800C0000086E290E00197F0F78AEFCA
:1056000071D800C0000086E290E00197F0F790E2C8
:105610005B9800C080910B018078809309015B9AB0
:1056200000C000C05B9800C080910B01807880931F
:1056300009015B9A00C000C05B9800C080910B011B
:105640008078809309015B9A00C000C05B9800C01D
:1056500080910B018078809309015B9A00C000C0A3
:105660005B9800C080910B018078809309015B9A60
:1056700000C000C05B9800C080910B0180788093CF
:1056800009015B9A00C000C05B9800C080910B01CB
:105690008078809309015B9A00C000C05B9800C0CD
:1056A00080910B018078809309015B9A00C000C053
:1056B0005B9800C080910B018078809309015B9A10
:1056C00000C000C05B9800C080910B01807880937F
:1056D00009015B9A00C000C05B9800C080910B017B
:1056E0008078809309015B9A00C000C05B9800C07D
:1056F00080910B018078809309015B9A00C000C003
:105700005B9800C080910B018078809309015B9ABF
:1057100000C000C05B9800C080910B01807880932E
:1057200009015B9A00C000C05B9800C080910B012A
:105730008078809309015B9A00C000C05B9800C02C
:1057400080910B018078809309015B9A00C000C0B2
:1057500000C00000E6E2F0E03197F0F7915009F068
:1057600057CF88EF0E94722300C0000086E290E0CD
:105770000197F0F7CF5FD05FC03209F02ACF80E009
:105780000E94722380EC0E94722300C0000086E217
:1057900090E00197F0F75A9839CEF8018581888317
:1057A00035CE80E034CEB901C8010E9430EA2ECE59
:1057B000D80111968C91888329CE443191F04731DC
:1057C00009F024CE1882D80112968C911297898301
:1057D00015968C91159781508A8313968C918B83A3
:1057E00015CED80115964C91159750E0440F551FD2
:1057F00070E060E016968D919C910F94301CF8013A
:105800001282808181508383148200CE481708F46D
:10581000FDCD861708F4FACDFA80E12CD12C243086
:1058200070F434CEBE01C8010E9430EA89819881AB
:105830009D0D98838E0D8983FF0C09F4E7CDF7FE4B
:10584000F6CFF0CF58E0580F382F0CCEEF92FF92E2
:105850000F931F93CF93DF93EC018B017A018A851D
:105860009B858617970731F0888199810E9462ECA9
:105870001B870A87B701888199810E9453E52E8191
:105880003F81820F932F911D9F838E8390E080E054
:10589000DF91CF911F910F91FF90EF9008959F920C
:1058A000AF92BF92CF92DF92EF92FF920F931F932E
:1058B000CF93DF93EC018B01942EA52E8A859B85D7
:1058C0008617970731F0888199810E9462EC1B87C7
:1058D0000A8788859985019649F5BC800A818E8161
:1058E000080FC880D980D6015596ED91FC91C6016C
:1058F0001995B80EE92CFA2C10E0F70121917F01DF
:10590000211127C08E819F81810F911D9F838E83DE
:1059100090E080E0DF91CF911F910F91FF90EF9089
:10592000DF90CF90BF90AF909F9008950E811F8120
:10593000692D7A2D888199810E9453E5800F912FDE
:10594000911D288539852817390738F681E090E0C0
:10595000E1CF4B2D602FC6010E94BAEC080F180F43
:10596000CCCFDF92EF92FF920F931F93CF93DF93F1
:10597000EC01D62E1CAD0BAD7C0184E0E80EF11CD1
:10598000E98DFA8DC7011995412F480F2D2D602FF4
:10599000C7010E94BAEC9BAD890F8BAF81E090E00C
:1059A000DF91CF911F910F91FF90EF90DF900895BD
:1059B000CF93C091DF04CC23C9F14CE050E060E20A
:1059C00070E081ED94E00F94301C2C2F30E060E209
:1059D000C43630F0C90164E670E00F94F617605DDC
:1059E00060935B0580E2CA3058F0EAE0F0E0C9015C
:1059F000BF010F94F617CB01BF010F94F617805D1E
:105A000080935C05C9016AE070E00F94F617805D31
:105A100080935D0583E0EBE5F5E0A5EDB4E0019052
:105A20000D928A95E1F785E28093D804CF9108958D
:105A3000CF92DF92EF92FF920F931F93CF93DF935A
:105A4000CDB7DEB72C970FB6F894DEBF0FBECDBF33
:105A5000F0907D10E0907E102091C90421111DC0AE
:105A60004DEE5CE06E2D8F2D0E9425ED90E080E0E4
:105A7000F80EF0927D10E0927E1099272C960FB6CA
:105A8000F894DEBF0FBECDBFDF91CF911F910F9174
:105A9000FF90EF90DF90CF900895C0904A10D09083
:105AA0004B1026E430E13A8329832F2D30E03C83EC
:105AB0002B832E2D30E03E832D8318861F827A871C
:105AC00069871C861B860FE41CE29E012F5F3F4FF7
:105AD0004AEF55E8BC01C6010E9455E1B60186E4D3
