:100000000C94C9190C94091A0C94091A0C94091A25
:100010000C94091A0C94091A0C94091A0C94091AD4
:100020000C94091A0C94091A0C94091A0C94091AC4
:100030000C94091A0C94091A0C94091A0C94091AB4
:100040000C94091A0C9440810C94091A0C94091A06
:100050000C94091A0C94837A0C94091A0C94E8D322
:100060000C94091A0C9472530C9468530C94091A4A
:100070000C94091A0C94091A0C94091A0C94091A74
:100080000C94091A0C94091A0C94091A0C94091A64
:100090000C94091A0C94091A0C94091A0C94091A54
:1000A0000C94091A0C94091A0C94091A0C94091A44
:1000B0000C94091A0C94091A0C94091A0C94091A34
:1000C0000C94091A0C94091A0C94091A0C94091A24
:1000D0000C94091A0C94091A0C94091A0C94091A14
:1000E0000C94091A084AD73B3BCE016E84BCBFFD75
:1000F000C12F3D6C74319ABD56833DDA3D00C77FF8
:1001000011BED9E4BB4C3E916BAAAABE0000008090
:100110003F05A84CCDB2D44EB93836A9020C50B91F
:10012000918688083CA6AAAA2ABE000000803F0744
:10013000634236B79BD8A71A39685618AEBAAB5582
:100140008C1D3CB7CC5763BD6DEDFD753EF6177247
:1001500031BF000000803F08000000BE9224491219
:100160003EABAAAA2ABECDCCCC4C3E00000080BE3D
:10017000ABAAAAAA3E00000000BF000000803F001A
:1001800000000000084178D3BB4387D1133D190E0E
:100190003CC3BD4282AD2B3E68EC8276BED98FE176
:1001A000A93E4C80EFFFBE01C4FF7F3F000000006E
:1001B00000004E414E494E495459494E46CDCCCC93
:1001C0003D0AD7233C17B7D13877CC2B329595E62B
:1001D000241FB14F0A000020410000C84200401C0B
:1001E0004620BCBE4CCA1B0E5AAEC59D74434F4D33
:1001F0004D554E49434154494F4E00445259525572
:100200004E004552524F525300494E464F0045430F
:10021000484F001FE020102310249010A01120222E
:1002200010241037B00840048003001FE020102184
:100230001023101520112021102110313008400406
:100240008003001FE03FF03CF03B701F601EE03D6C
:10025000F03BF038700FC0078003001FE03FF03E16
:10026000F03CF01AE01EE03EF03EF03EF00FC0071A
:100270008003004572726F722077726974696E67CD
:1002800020746F20454550524F4D210A00506F7227
:10029000206661766F722C207265696E696369658C
:1002A00000494D505245534F524120444554454E0C
:1002B0004944410025533A202553004D5545525499
:1002C00041005072696E7465722068616C74656477
:1002D0002E206B696C6C28292063616C6C6564212D
:1002E0000A00006563686F3A004572726F723A00E7
:1002F00020440020204D32303020540020204D3248
:100300003030205300202844697361626C65642991
:100310003A0046696C616D656E742073657474692A
:100320006E67730020204D3230312058004D6178C7
:1003300020416363656C65726174696F6E20287516
:100340006E6974732F7332290020204D32303320B0
:1003500058004D617820666565647261746573202C
:1003600028756E6974732F73290020520020204D68
:10037000323034205000416363656C65726174698A
:100380006F6E2028756E6974732F73322920285080
:100390003C7072696E742D616363656C3E20523CE3
:1003A000726574726163742D616363656C3E205481
:1003B0003C74726176656C2D616363656C3E2900E7
:1003C00020540020530020204D323035204200417F
:1003D0006476616E6365642028423C6D696E5F736C
:1003E00065676D656E745F74696D655F75733E20DA
:1003F000533C6D696E5F66656564726174653E202D
:10040000543C6D696E5F74726176656C5F6665659C
:1004100064726174653E20583C6D61785F6A6572F4
:100420006B3E20593C6D61785F6A65726B3E205A65
:100430003C6D61785F6A65726B3E20453C6D61780A
:100440005F6A65726B3E290020204D3231370054BF
:100450006F6F6C2D6368616E67696E670020204D59
:10046000323138205400486F74656E64206F6666C0
:10047000736574730020440020490020204D333000
:1004800031205000486F74656E6420504944003B31
:10049000200020496E76616C6964206578747275FD
:1004A000646572200047322F4733206261642070F8
:1004B0006172616D65746572730A005265706F7365
:1004C0006F2E2E2E0050756C7361722070617261F8
:1004D000205265616E756461720053696E206D6FA4
:1004E00076696D69656E746F00456E642066696C2F
:1004F00065206C6973740A00426567696E206669DD
:100500006C65206C6973740A004E6F206D656469B8
:10051000610A00286E6F2066696C65290043757258
:1005200072656E742066696C653A20004E6F7420A7
:100530005344207072696E74696E670A00534420D8
:100540007072696E74696E67206279746520002E1E
:100550000A0044656C6574696F6E206661696C653C
:10056000642C2046696C653A200046696C652064FD
:10057000656C657465643A005072696E74207469C4
:100580006D653A20000A53746174733A2046696CB1
:10059000616D656E7420757365643A20002C204C83
:1005A0006F6E67657374206A6F623A2000546F74CF
:1005B000616C2074696D653A200053746174733AFC
:1005C00020002C204661696C65643A20002C20468E
:1005D000696E69736865643A20005072696E74735D
:1005E0003A200053746174733A20006F6B006F6699
:1005F00066000E0209020202FB01ED01444542556C
:10060000473A004D31313320530053495249555335
:10061000203330302049444558204F46462E002F85
:100620002F004D31343520533C696E6465783E208F
:100630006F7574206F662072616E67652028302D9B
:1006400031290A002058004F4646004F4E00202016
:100650004D61783A2000200020204D696E3A20003C
:10066000203B200020204D323131205300536F6653
:100670007420656E6473746F707300250A004652AF
:100680003A0020466C6F773A2000496E76616C69BB
:10069000642065787472756465720A006469730019
:1006A000656E0043290A0061626C656420286D69EB
:1006B0006E2074656D702000436F6C6420657874E3
:1006C00072756465732061726520004F7269676599
:1006D0006E202573205072696D2E00486F6D652065
:1006E000257320466972737400446573666173658F
:1006F0002061706C6963616461004D494E2F4D410A
:100700005820546F6F2046617200546F6F206661ED
:10071000722066726F6D204D494E2F4D41580A0070
:10072000454550524F4D204F4B0A00737065636929
:100730006679696E67204458435F4D4952524F5263
:1007400045445F4D4F44452E0A005072696E7465F2
:1007500072206D75737420626520696E2044584361
:100760005F4455504C49434154494F4E5F4D4F44AF
:1007700045207072696F7220746F200A004D383402
:1007800000446F6E65207072696E74696E672066D2
:10079000696C650A004D3737004D33310041637491
:1007A0006976652045787472756465723A20002018
:1007B000204D323036205800486F6D65206F6666D8
:1007C000736574004361703A00434F4E4649475F7A
:1007D0004558504F5254004D4541545041434B00F1
:1007E000434F4F4C45525F54454D5045524154552F
:1007F0005245004348414D4245525F54454D504596
:10080000524154555245004241425953544550506B
:10081000494E470041524353004D4F54494F4E5F9C
:100820004D4F44455300544845524D414C5F505242
:100830004F54454354494F4E00455854454E444546
:10084000445F4D323000435553544F4D5F4649523B
:100850004D574152455F55504C4F4144004C464E18
:100860005F5752495445004C4F4E475F46494C45EF
:100870004E414D45004155544F5245504F52545FE3
:1008800053445F5354415455530053445F575249A6
:10089000544500524550454154004D554C54495F14
:1008A000564F4C554D45005344434152440050521D
:1008B0004F4D50545F535550504F525400484F5372
:1008C000545F414354494F4E5F434F4D4D414E4459
:1008D0005300454D455247454E43595F5041525391
:1008E000455200434153455F4C494748545F42528B
:1008F000494748544E45535300544F47474C455F72
:100900004C494748545300534F4654574152455F52
:10091000504F574552004255494C445F5045524351
:10092000454E54004C4556454C494E475F44415452
:1009300041005A5F50524F42450052554E4F555458
:10094000004155544F4C4556454C005052494E5469
:100950005F4A4F420050524F475245535300415552
:10096000544F5245504F52545F54454D50004155DD
:10097000544F5245504F52545F504F5300564F4CB6
:10098000554D455452494300454550524F4D004244
:10099000494E4152595F46494C455F5452414E536E
:1009A0004645520053455249414C5F584F4E5F589F
:1009B0004F4646004649524D574152455F4E414DC4
:1009C000453A4D61726C696E20322E312E322E38CE
:1009D00020285365702020312032303236203131CA
:1009E0003A30313A33342920534F555243455F430F
:1009F0004F44455F55524C3A6769746875622E637F
:100A00006F6D2F4D61726C696E4669726D776172A0
:100A1000652F4D61726C696E2050524F544F434F99
:100A20004C5F56455253494F4E3A312E30204D417E
:100A30004348494E455F545950453A5349524955E8
:100A4000532033303020494445582045585452559E
:100A50004445525F434F554E543A32205555494410
:100A60003A63656465326132662D343161322D340A
:100A70003734382D396231322D633535633632667D
:100A80003336376666002569730025696D20256950
:100A900073002569682025696D2025697300256923
:100AA00064202569682025696D2025697300256902
:100AB0007920256964202569682025696D202569CC
:100AC000730020573A00456E667269616E646F2E3E
:100AD0002E2E004525632025530020573A00456EF1
:100AE000667269616E646F2043616D612E2E2E0007
:100AF00043616C656E74616E646F2043616D612E3D
:100B00002E2E0023646566696E6520444546415576
:100B10004C545F004B4420004B4920004B502000B8
:100B20002066696E6973686564212050757420744D
:100B30006865206C617374204B702C204B692061B8
:100B40006E64204B6420636F6E7374616E747320E7
:100B500066726F6D2062656C6F7720696E746F20AE
:100B6000436F6E66696775726174696F6E2E680A8D
:100B700000504944204175746F74756E650020669D
:100B800061696C6564212074696D656F75740A0014
:100B9000504944204175746F74756E65002066611C
:100BA000696C6564212054656D706572617475723D
:100BB0006520746F6F20686967680A005049442097
:100BC0004175746F74756E650050494420437963B4
:100BD0006C65730025532025692F256900204B641F
:100BE0003A2000204B693A2000204B703A20002028
:100BF000436C617373696320504944200A00205498
:100C0000753A2000204B753A2000206D61783A201B
:100C100000206D696E3A200020643A20002062694D
:100C200061733A200043616C656E74616E646F2E6F
:100C30002E2E002073746172740A005049442041C2
:100C400075746F74756E6500206661696C656421EA
:100C50002054656D706572617475726520746F6F74
:100C600020686967680A00504944204175746F74B0
:100C7000756E6500504944204175746F2D616A7529
:100C8000737465003F28432979636C6573206E6F28
:100C90007420706C61757369626C6520283E3D3309
:100CA000292E0A00206661696C6564212042616416
:100CB000206865617465722069640A0050494420A7
:100CC0004175746F74756E65004572723A20757463
:100CD000663820666F6E74206E6F7420696E69745A
:100CE00069616C697A65642E004572723A20757488
:100CF000663820666F6E74206E6F7420696E69743A
:100D000069616C697A65642E004572723A20757467
:100D1000663820666F6E74206E6F7420696E697419
:100D200069616C697A65642E0020003A003A0025FA
:100D300068753A25303268750025303268753A2575
:100D40003032687500253032687527253032687575
:100D500000256875642025303268753A2530326880
:100D6000750043616D6100526563696E746F004583
:100D700000200025002020202020202000202020EE
:100D80002000657272002B0213025B0243023FFFD8
:100D9000F038007030FC3020FC102078102030102B
:100DA0002C00D02E31D02F7BD02F7BD02E31D02CC9
:100DB00000D020301020781020FC1030FC3038009B
:100DC000703FFFF03FFFF03800703186302387100E
:100DD0002787902F87D02F03D02030102078102025
:100DE00078102030102F03D02F87D02787902387AB
:100DF000103186303800703FFFF01FFFF81FFFF8FA
:100E0000041040020820020820041040082080102E
:100E100041001041000820800410400000001FFF26
:100E2000F81FFFF8496D7072657369C3B36E206374
:100E3000616E63656C616461004D323500506175AF
:100E400073696E672E2E2E004D3234003F004967C5
:100E50006E6F7265005265696E69636961720049FF
:100E60006E696369616C697A617220454550524FC1
:100E70004D004469C3A16D6574726F2046696C2E84
:100E8000202A004469C3A16D6574726F2046696CA5
:100E90002E004520656E206D6DC2B30020082046EF
:100EA0006163746F72002008204D61780020082073
:100EB0004D696E0041706700456E630054656D704A
:100EC0002E204175746F6D2E0056656C2E2076694C
:100ED000616A65206D696E00566D696E004D6178BE
:100EE0002040205370656564004163656C2E206D61
:100EF000617845004163656C2E206D61784000414A
:100F000063656C2E205669616A65004163656C2ECD
:100F1000207265747261632E004163656C65726155
:100F20006369C3B36E004D61782040204A65726BDF
:100F30000040207061736F732F6D6D00416A75738F
:100F4000746573206176616E7A61646F73003F002F
:100F500043616E63656C617200496E6963696172B9
:100F6000004D34323800496E696369616C697A6199
:100F70007220454550524F4D0046696C616D656E5B
:100F8000746F0054656D70657261747572610050A4
:100F900061736F732F6D6D004A65726B00416363FF
:100FA000656C6572616369C3B36E004D61782056EC
:100FB000656C6F636964616400416A757374617222
:100FC00020646573666173657300436F6E6669675D
:100FD0007572616369C3B36E00000C0F00FE0702F7
:100FE0002503BB01FFFE0AFE08FE050808060000F7
:100FF00040F0C88888987810050808060000C0F8F6
:101000008888888888F80505050600012030F830B2
:10101000200508080600002070F820202020E005A8
:1010200009090600FF2070A8A8B888887020070565
:1010300005070001D86C366CD80509090600FFF8D1
:10104000A88888888888A8F8050A0A0600FE205023
:1010500050505088A8A8887003030306000340A0DE
:1010600040FFFFFFFFFFFFFFFFFFFFFFFFFFFFFF4F
:10107000FFFFFFFFFFFFFF0000000605FF0107075E
:101080000602008080808080008003030306010543
:10109000A0A0A005060606000050F85050F8500524
:1010A00009090600FF2070A8A07028A87020050775
:1010B00007060000C8C810204098980507070600DA
:1010C0000040A0A040A890680103030602058080AC
:1010D000800309090601FF204040808080404020B5
:1010E0000309090601FF8040402020204040800580
:1010F000070706000020A8702070A8200505050637
:1011000000012020F820200203030601FFC04080D8
:10111000050101060003F8020202060100C0C00535
:10112000070706000008101020404080050707064A
:101130000000708898A8C88870030707060100405F
:10114000C040404040E005070706000070880810D6
:101150002040F8050707060000F8081030088870DE
:1011600005070706000010305090F810100507071B
:10117000060000F880F008088870050707060000E0
:10118000304080F0888870050707060000F80810D6
:1011900010202020050707060000708888708888C6
:1011A000700507070600007088887808106002053F
:1011B00005060100C0C000C0C00206060601FFC04F
:1011C000C000C0408003050506010120408040208A
:1011D000050303060002F800F80305050601018077
:1011E000402040800507070600007088102020007E
:1011F000200507070600007088B8A8B880700507AA
:1012000007060000708888F88888880507070600A8
:1012100000F04848704848F005070706000070884D
:101220008080808870050707060000F0484848481D
:1012300048F0050707060000F88080F08080F80578
:101240000707060000F88080F08080800507070609
:101250000000708880809888700507070600008865
:101260008888F8888888030707060100E040404026
:101270004040E0050707060000381010101090608D
:101280000507070600008890A0C0A0908805070702
:10129000060000808080808080F805070706000037
:1012A00088D8A8888888880507070600008888C825
:1012B000A8988888050707060000708888888888AD
:1012C00070050707060000F08888F0808080050719
:1012D0000706000070888888A89068050707060040
:1012E00000F08888F0A09088050707060000708845
:1012F0008070088870050707060000F8202020206D
:1013000020200507070600008888888888887005DF
:1013100007070600008888888850502005070706C0
:10132000000088888888A8A850050707060000885C
:1013300088502050888805070706000088885020BC
:10134000202020050707060000F80810204080F83C
:101350000309090601FFE080808080808080E0052D
:101360000707060000804040201010080309090606
:1013700001FFE020202020202020E00503030600BC
:10138000052050880501010600FEF803030306014D
:10139000058040200505050600007008788878055E
:1013A00007070600008080F0888888F0050505069C
:1013B0000000708080887005070706000008087824
:1013C000888888780505050600007088F08070051B
:1013D0000707060000304840E04040400507070688
:1013E00000FE70888888780870050707060000806E
:1013F00080F0888888880307070601004000C04005
:101400004040E00409090601FE10003010101010E1
:10141000906005070706000080808890E0908803B0
:101420000707060100C04040404040E005050506B2
:101430000000D0A8A8A8A8050505060000B0C88827
:1014400088880505050600007088888870050707EC
:101450000600FEF0888888F080800507070600FEF9
:1014600078888888780808050505060000B0C880D7
:10147000808005050506000078807008F0050707E4
:101480000600002020F82020201805050506000091
:101490008888889868050505060000888888502097
:1014A0000505050600008888A8A850050505060062
:1014B0000088502050880507070600FE888888505D
:1014C000204080050505060000F8102040F80309BB
:1014D000090601FF204040408040404020010909AA
:1014E0000602FF808080808080808080030909065A
:1014F00001FF80404040204040408005030306003B
:101500000248A890FFFFFFFFFFFFFFFFFFFFFFFF65
:10151000FFFFFFFFFFFFFFFFFFFFFFFFFFFFFFFFDB
:10152000FFFFFFFFFF0000000605FF01070706029F
:1015300000800080808080800507070600FF207003
:10154000A8A0A87020050707060000304840E0402A
:1015500048B0050505060000A8508850A8050707F3
:101560000600008850F820F8202001070706020036
:101570008080800080808004080806010070806000
:1015800090906010E0030101060107A0060707061E
:1015900000007884B4A4B4847803050506010460CF
:1015A000A06000E00505050600002850A0502805B1
:1015B0000303060001F80808030101060103E00621
:1015C00007070600007884B4A4A484780501010606
:1015D0000007F80404040601056090906005070701
:1015E0000600002020F8202000F80305050601046D
:1015F00040A02040E0030505060104C0204020C0B3
:101600000303030601052040800507070600FE8846
:10161000888898E8808005080806000078E8E8E8EF
:1016200068282828020202060203C0C0030202063C
:1016300001FE20C003050506010440C04040E00350
:10164000050506010540A04000E00505050600006F
:10165000A0502850A0050A0A06000040C04850606B
:1016600050B0507810050A0A06000040C04850608B
:1016700050A8081038050A0A060000C0204830E0CB
:1016800050B05078100507070600002000202040C9
:101690008870050A0A060000402000708888F888D3
:1016A0008888050A0A060000102000708888F888DB
:1016B0008888050A0A060000205000708888F8888B
:1016C0008888050A0A06000068B000708888F888D3
:1016D00088880509090600005000708888F8888805
:1016E00088050A0A060000205020708888F888883B
:1016F0008805070706000078A0A0F0A0A0B805099B
:10170000090600FE708880808088701060050A0AD3
:10171000060000402000F88080F08080F8050A0A6A
:10172000060000102000F88080F08080F8050A0A8A
:10173000060000205000F88080F08080F80509093C
:101740000600005000F88080F08080F8030A0A0646
:101750000100804000E04040404040E0030A0A06AB
:101760000100204000E04040404040E0030A0A06FB
:10177000010040A000E04040404040E0030909066D
:101780000100A000E04040404040E005070706009F
:1017900000704848E8484870050A0A06000068B02A
:1017A000008888C8A8988888050A0A060000402092
:1017B0000070888888888870050A0A060000102052
:1017C0000070888888888870050A0A060000205002
:1017D0000070888888888870050A0A06000068B04A
:1017E0000070888888888870050909060000500004
:1017F0007088888888887005050506000188502053
:1018000050880509090600FF087098A8A8A8C870A4
:1018100080050A0A06000040200088888888888899
:1018200070050A0A060000102000888888888888C9
:1018300070050A0A06000020500088888888888879
:10184000700509090600005000888888888888701B
:10185000050A0A0600001020008888502020202059
:1018600004070706010080E0909090E080050707DC
:10187000060000708890A09088B005080806000057
:1018800040200070087888780508080600001020BD
:10189000007008788878050808060000205000705D
:1018A0000878887805080806000068B00070087895
:1018B00088780507070600005000700878887805CA
:1018C0000808060000205020700878887805050573
:1018D000060000702870A0780507070600FE7088D3
:1018E000808870106005080806000040200070889D
:1018F000F080700508080600001020007088F08055
:10190000700508080600002050007088F0807005FF
:10191000070706000050007088F080700308080672
:101920000100804000C0404040E00308080601007C
:10193000204000C0404040E003080806010040A0ED
:1019400000C0404040E0030707060100A000C0407F
:101950004040E005090906000050205008788888BA
:10196000887005080806000068B000B0C88888883C
:101970000508080600004020007088888870050867
:101980000806000010200070888888700508080686
:101990000000205000708888887005080806000044
:1019A00068B000708888887005070706000050003E
:1019B00070888888700505050600012000F8002061
:1019C0000505050600007898A8C8F0050808060077
:1019D00000402000888888887005080806000010EC
:1019E00020008888888870050808060000205000BC
:1019F0008888888870050707060000500088888856
:101A00008870050A0A0600FE102000888888502089
:101A100040800509090600FE8080F0888888F080F3
:101A2000800509090600FE50008888885020408003
:101A300041425300504C41004572723A2045455096
:101A4000524F4D20436F7272757074004572723A36
:101A500020454550524F4D20435243004572723A43
:101A600020454550524F4D2054616D61C3B16F0008
:101A70004572723A205665727369C3B36E2045454C
:101A800050524F4D0041756D656E746172205A0061
:101A900032C2AA204675736F722040004475706C84
:101AA000696361746520582D47617000436F6E74DF
:101AB000726F6C20546F74616C004D36303553304A
:101AC0000A4732385800436F706961205265666C6E
:101AD000656A616461004D36303553310A54300A0D
:101AE0004D36303553320A47323820580A4731587C
:101AF000300A4D3630355333004D36303553310AC8
:101B000054300A4732380A4D36303553320A47329C
:101B100038580A473158300A4D363035533300446F
:101B200075706C69636172004D36303553310A54FB
:101B3000300A4D36303553320A473238580A473169
:101B40005830004D36303553310A54300A47323858
:101B50000A4D36303553320A473238580A47315821
:101B600030004175746F2D417061726361646F0064
:101B70004D36303553310A473238580A47315830DC
:101B80000043616D6100426F7175696C6C61005654
:101B9000656E74696C61646F7200436F6E6669672D
:101BA0007572616369C3B36E00526573742E2066EB
:101BB000C3A162726963610043617267617220450B
:101BC0004550524F4D004775617264617220454522
:101BD00050524F4D0050726563616C2E202420419D
:101BE0006A757374650043616D626961722048654E
:101BF0007272616D69656E7461004D6F646F20492A
:101C00004445580044657366617365204865727287
:101C1000616D69656E746100416A757374657320E6
:101C20006176616E7A61646F73004D656EC3BA2030
:101C30007072696E636970616C003F00417472C3B9
:101C4000A1730050617261720053442F4644206EAC
:101C50006F2070726573656E746500496D7072698E
:101C60006D2E2064657364652053442F4644004301
:101C7000616D626961722053442F4644004D3231D8
:101C800000436F6E6669677572616369C3B36E0006
:101C900054656D7065726174757261004D6F76691F
:101CA0006D69656E746F005265616E756461722056
:101CB000696D7072657369C3B36E00416A75737440
:101CC000617200446574656E657220696D7072653D
:101CD0007369C3B36E0050617573617220696D7072
:101CE00072657369C3B36E0050616E74616C6C6130
:101CF00020646520496E662E003F00496E69636965
:101D0000617220696D7072657369C3B36E0043615F
:101D10006E63656C617200496D7072696D69720005
:101D200043616E6E6F7420656E74657220737562A8
:101D30006469723A200002202E2E004D656EC3BAEF
:101D4000207072696E636970616C004D6F766572A8
:101D500020246D6D00302E303235004D6F76657267
:101D600020302E316D6D004D6F76657220316D6DB6
:101D7000004D6F7665722031306D6D002100486F27
:101D800074656E64206D7579206672696F004174A8
:101D900072C3A1730050726F636564657200457809
:101DA000747275736F72202A004578747275736F40
:101DB000720053656C656363696F6E6172202A00FF
:101DC0005431005430004D6F7665722040004D6FE5
:101DD00076696D69656E746F00417061676172202C
:101DE0006D6F746F726573004D3834004C6C65769E
:101DF000617220616C206F726967656E00473238CE
:101E0000004D6F76657220656A6573004D656EC31F
:101E1000BA207072696E636970616C00507265639C
:101E2000616C2E20242043616D61005072656361F6
:101E30006C2E202420546F646F0050726563616CB7
:101E40002E2024204675736F72207E0050726563C9
:101E5000616C2E2024207E0054656D706572617463
:101E600075726100341A301A456E667269617200CB
:101E700050726563616C2E20240056656E74696C27
:101E800061646F720043616D6100426F7175696CCE
:101E90006C61207E004D656EC3BA207072696E63FE
:101EA0006970616C00466C756A6F207E00466C75C7
:101EB0006A6F0056656E74696C61646F720043618D
:101EC0006D6100426F7175696C6C61207E005665B2
:101ED0006C6F6369646164004D656EC3BA20707293
:101EE000696E636970616C0049722061206F72696C
:101EF00067656E2046616C6C61646F006F70656E23
:101F000000545249474745524544003A20007A5F01
:101F10006D696E00795F6D696E00785F6D61780044
:101F2000785F6D696E005265706F7274696E6720BC
:101F3000656E6473746F70207374617475730A00D6
:101F400020746F6F206C6F6E672065787472757384
:101F5000696F6E2070726576656E7465640A002024
:101F6000636F6C6420657874727573696F6E20702E
:101F7000726576656E7465640A00000040C20000F8
:101F800040C1000000005761726E696E673A2048D8
:101F90006F6D696E672042756D7020446976697354
:101FA0006F72203C20310A000404020080AB430021
:101FB0008099430080894300004040000040400079
:101FC00000004020746F6F206C6F6E67206578741E
:101FD000727573696F6E2070726576656E74656474
:101FE0000A0020636F6C6420657874727573696F82
:101FF0006E2070726576656E7465640A0053657450
:1020000074696E67732053746F72656400290A00E7
:102010002062797465733B2063726320005365749A
:1020200074696E67732053746F726564202800486A
:10203000617264636F6465642044656661756C7485
:102040002053657474696E6773204C6F61646564B6
:102050000020286D6D290020460020420020480005
:1020600020204D3134352053004D61746572696113
:102070006C2068656174757020706172616D657443
:102080006572730020204D3134392043203B2055A8
:102090006E69747320696E2043656C736975730A89
:1020A0000054656D706572617475726520556E6956
:1020B0007473002020473231203B004C696E65610B
:1020C0007220556E69747300454550524F4D20641F
:1020D00061746173697A65206572726F722E0A008D
:1020E000202863616C63756C6174656429210A0042
:1020F00020213D2000454550524F4D204352432062
:102100006D69736D61746368202D202873746F721C
:102110006564292000454550524F4D20436F72722F
:102120007570740A002053697A653A2000496E641C
:1021300065783A2000290A002062797465733B2093
:1021400063726320002073746F726564207365741A
:1021500074696E6773207265747269657665642050
:10216000280000007A430000164300007041000080
:10217000A0424861A0424861A0420000C84300005C
:10218000C042D00700008403000064000000102754
:102190000000204D61726C696E3D563838290A0086
:1021A000454550524F4D2076657273696F6E206DB4
:1021B00069736D617463682028454550524F4D3DE9
:1021C0000020436F756E7420583A000001453200BC
:1021D00043616D61004531004500626564002C205B
:1021E00073797374656D2073746F707065642120EA
:1021F0004865617465725F49443A20004572723ADD
:1022000054454D502E204DC38158004D41585445E2
:102210004D50207472696767657265640043616C34
:10222000656E742E2066616C6C69646F0048656130
:1022300074696E67206661696C6564002001400105
:1022400030013B01400136016001310170012C0178
:1022500090012701B0012201C0011D01F001180108
:102260001002130130020E01600209019002040104
:10227000C002FF000003FA004003F5008003F000F5
:10228000D003EB002004E6007004E100E004DC0071
:102290004005D700C005D2004006CD00D006C800DA
:1022A0008007C3003008BE00F008B900C009B400C0
:1022B000B00AAF00B00BAA00D00CA500000EA00021
:1022C000500F9B00C01096005012910000148C001B
:1022D000C0158700B0178200B0197D00D01B7800B0
:1022E000001E730040206E0090226900F0246400FC
:1022F00040275F0090295A00E02B5500102E500017
:1023000020304B0010324600E033410090353C0055
:102310001037370070383200A0392D00B03A28004D
:10232000A03B2300603C1E00103D1900903D1400AE
:10233000103E0F00703E0A00C03E0500003F000046
:10234000403FFBFF803FF6FFC03FF1FF4572723A0E
:1023500054454D502E204D494E004D494E54454D4B
:10236000502074726967676572656400465547411D
:102370002054C389524D49434100546865726D61D0
:102380006C2052756E6177617900202F002040002B
:102390002042403A0020403A00496E76616C696400
:1023A0002065787472756465720A00416374697699
:1023B000652045787472756465723A2000000021CA
:1023C00000240027002A002D003000330001010006
:1023D00000040107010A017C3C3E5E2B3D3F2F5B60
:1023E0005D3B2C2A225C0046616C6C6F20616C2086
:1023F000696E69636961722053442F4644005344F7
:102400002063617264206F6B0A006F70656E526F9B
:102410006F74206661696C65640A00766F6C756D17
:10242000652E696E6974206661696C65640A004E88
:102430006F20534420636172640A00534420636137
:1024400072642072656C65617365640A000A4D32BE
:1024500034004D3233202573002E0A006F70656EF4
:10246000206661696C65642C2046696C653A2000C1
:1024700046696C652073656C65637465640A002049
:1024800053697A653A200046696C65206F70656E05
:1024900065643A2000454E4420535542524F5554EE
:1024A000494E450A002220706F730022207061722D
:1024B000656E743A2200535542524F5554494E4569
:1024C0002043414C4C207461726765743A22004489
:1024D0006573626F7264616D69656E746F206465A7
:1024E000207375626C6C616D616461004578636531
:1024F00065646564206D617820535542524F555490
:10250000494E452064657074683A00577269746971
:102510006E6720746F2066696C653A20006672658C
:10252000736800646F696E67002066696C653A20A5
:10253000004E6F7720002F6175746F25632E670042
:102540006D61726C696E66772E6F726700322E3124
:102550002E322E38001FFFFFFFFFFFFF600000003C
:102560000001FF400000000000FF800000000000AC
:102570007F83CF00000C303F87FF80000C301F8628
:102580007980000C000F8C30C7838C30E78C30CF03
:10259000C7CC31F38C30DCECEC33B98C30D86C6CBC
:1025A00033198C30D06C0C33198C30D86C0C331937
:1025B0008C30DC6C0E3B198C30CF7C079F198C3033
:1025C000C77C038F1940000000000002600000007B
:1025D0000000061FFFFFFFFFFFF81000C9021001F7
:1025E0002C014001220170011801B0010E01F0011F
:1025F00004015002FA00B002F0003003E600D003FC
:10260000DC009004D2007005C800A006BE000008DF
:10261000B400B009AA00D00BA000600E96006011B3
:102620008C000015820020197800C01D6E00A022C9
:102630006400B0275A00902C500000314600E0346E
:102640003C0010383200903A2800603C1E00A03D4B
:102650001400803E0A00203F00002020506C616E74
:102660006E657242756666657242797465733A206A
:10267000002046726565204D656D6F72793A2000C5
:1026800020436F6D70696C65643A2053657020203B
:102690003120323032360A00204C6173742055707C
:1026A00064617465643A20323032362D30362D3212
:1026B00034207C20417574686F723A205349524926
:1026C000555320333030783330302049444558203A
:1026D0002D206F646F736C66202D204D61726C69C4
:1026E0006E20322E312E322E380A004D61726C6906
:1026F0006E20322E312E322E380A0020536F66742F
:10270000776172652052657365740A0020576174A1
:102710006368646F672052657365740A00204272B3
:102720006F776E206F75742052657365740A002090
:1027300045787465726E616C2052657365740A0029
:10274000506F77657255700A0073746172740A0075
:102750004732385859004D31303031006F6B0065C9
:1027600072726F722077726974696E6720746F205D
:1027700066696C650A00446F6E6520736176696EE8
:10278000672066696C652E0A00456E6473746F700D
:1027900073002553202563202563202563202563AE
:1027A00000656E6473746F7073206869743A2000FA
:1027B00000002200250028002B002E0031003400EC
:1027C00002010000050108010B01050505050705CB
:1027D00008080808020202020A0A0808040404049D
:1027E00001010101010101010303030303030303C9
:1027F000040707070C0C0C0C0C0C0C0C0202020258
:1028000006060606060606060B0B0B0B0B0B0B0B40
:1028100001021020200808102040102040800201F2
:1028200002010804020101020408102040808040D7
:1028300020100804020180040201804020100804D6
:102840000201080402010102040810204080010274
:1028500004081020408000000A0B02090C0D0E082D
:102860000703040100000000000000000000000059
:102870000000000000000000000000000000000058
:102880000000121110000000000000000000000015
:1028900000000000000000000000000024F404D943
:1028A000201BC40C5C0E9804C4095F02650771010B
:1028B000F405F900FB04B30048048700C103690074
:1028C0005803550003034500BE023A00840231005C
:1028D00053022A002902250004022000E4011C0002
:1028E000C8011900AF0117009801140084011300FA
:1028F000710110006101100051010E0043010D0033
:1029000036010B002B010B0020010B001501090003
:102910000C01090003010800FB000800F300080097
:10292000EB000700E4000600DE000600D800060009
:10293000D2000600CC000500C7000500C20005005B
:10294000BD000400B9000400B5000400B10004009B
:10295000AD000400A9000400A5000300A2000300CC
:102960009F0004009B0003009800030095000200F4
:1029700093000300900003008D0002008B00030011
:10298000880002008600020084000300810002002B
:102990007F0002007D0002007B000200790002003F
:1029A000770001007600020074000200720001004E
:1029B000710002006F0002006D0001006C00020057
:1029C0006A00010069000200670001006600010062
:1029D0006500010064000200620001006100010066
:1029E000600001005F0002005D0001005C0001006A
:1029F0005B0001005A00010059000100580001006D
:102A0000570001005600010055000100540001006C
:102A1000530000005300010052000100510001006A
:102A2000500001004F0001004E0000004E00010068
:102A30004D0001004C0001004B0000004B00010064
:102A40004A00010049000100480000004800010060
:102A5000470001004600000046000100450000005C
:102A60004500010044000100430000004300010054
:102A7000420000004200010041000000410001004E
:102A8000400001003F0000003F0001003E00000048
:102A90003E0001003D0000003D0001003C00000040
:102AA0003C0000003C0001003B0000003B00010036
:102AB0003A0000003A00010039000000390001002E
:102AC0003800000038000000380001003700000026
:102AD000370001003600000036000000360001001B
:102AE0003500000035000000350001003400000012
:102AF0003400000034000100330000003300000007
:102B000033000100320000003200000032000100FA
:102B100031000000310000003100010030000000F1
:102B200030000000300001002F0000002F000000E6
:102B30002F0000002F0001002E0000002E000000DA
:102B40002E0001002D0000002D0000002D000000CF
:102B50002D0001002C0000002C0000002C000000C3
:102B60002C0001002B0000002B0000002B000000B7
:102B70002B0001002A0000002A0000002A000000AB
:102B80002A0001002900000029000000290000009F
:102B90002900000029000100280000002800000092
:102BA0002800000028000000280001002700000085
:102BB0002700000027000000270000002700010078
:102BC000260000002600000026000000260000006D
:102BD000260001002500000025000000250000005F
:102BE0002500000025000000250001002400000051
:102BF0002400000024000000240000002400010044
:102C00002300000023000000230000002300000038
:102C10002300000023000000230001002200000028
:102C2000220000002200000022000000220000001C
:102C3000220001002100000021000000210000000E
:102C400021000000210000002100000021000100FF
:102C500020000000200000002000000020000000F4
:102C600020000000200000002000000020000100E3
:102C70001F0000001F0000001F0000001F000000D8
:102C80001F0000001F0000001F0001001E000000C8
:102C90001E0000001E0000001E00000024F4D430BE
:102CA00050C38E20C2A24017828B7011127A910DF0
:102CB000816CD90AA861E108C758660761514306CB
:102CC0001E4B5D05C145A7041A411104093D980337
:102CD000713931034036DB0265339102D43054023E
:102CE000802E1D02632CEE01752AC501B028A001BB
:102CF000102781018F2564012B244B01E022340130
:102D0000AC211F018D200D01801FFC00841EED00F1
:102D1000971DDF00B81CD200E61BC600201BBC00BC
:102D2000641AB200B219A8000A19A0006A18990022
:102D3000D117910040178B00B516840031167E0024
:102D4000B31579003A157300C7146F0058146A0060
:102D5000EE1366008813630025135E00C7125B0044
:102D60006C12570015125400C111510070114F0020
:102D700021114B00D61049008D1047004610440029
:102D800002104200C00F4000800F3E00420F3C0086
:102D9000060F3B00CB0E3800930E37005C0E35005B
:102DA000270E3400F30D3200C10D3100900D3000BC
:102DB000600D2E00320D2D00050D2C00D90C2B00BE
:102DC000AE0C2900850C29005C0C2700350C27006F
:102DD0000E0C2600E80B2400C40B2400A00B2300DB
:102DE0007D0B23005A0B2100390B2100180B20000A
:102DF000F80A1F00D90A1E00BB0A1E009D0A1D000A
:102E0000800A1D00630A1C00470A1B002C0A1B00D5
:102E1000110A1A00F7091A00DD091900C40919007E
:102E2000AB091900920917007B0918006309170004
:102E30004C09160036091600200916000A0915006B
:102E4000F5081500E0081400CC081400B8081400B8
:102E5000A4081400900813007D0812006B081300EA
:102E60005808120046081200340811002308110007
:102E70001208110001081100F0071000E00710000F
:102E8000D0071000C0071000B0070F00A107100006
:102E900091070E0083070F0074070F0065070E00EF
:102EA00057070E0049070E003B070D002E070E00C6
:102EB00020070D0013070D0006070D00F9060C0092
:102EC000ED060D00E0060C00D4060C00C8060C0050
:102ED000BC060C00B0060C00A4060B0099060C0002
:102EE0008D060B0082060B0077060B006C060B00AC
:102EF00061060A0057060B004C060A0042060A004B
:102F000038060A002E060A0024060A001A060A00DD
:102F10001006090007060A00FD050900F40509006E
:102F2000EB050900E2050900D9050900D0050900F3
:102F3000C7050900BE050900B5050800AD05080074
:102F4000A50509009C050800940508008C050800EB
:102F5000840508007C050800740508006C0507005E
:102F6000650508005D050700560508004E050700C9
:102F70004705070040050800380507003105070030
:102F80002A050700230507001C0506001605070093
:102F90000F0507000805060002050700FB040600F0
:102FA000F5040700EE040600E8040600E20407004A
:102FB000DB040600D5040600CF040600C9040600A1
:102FC000C3040600BD040600B7040600B1040500F2
:102FD000AC040600A6040600A00405009B0406003D
:102FE00095040500900406008A0405008504050088
:102FF000800406007A0405007504050070040500CD
:103000006B04050066040500610405005C0405000E
:1030100057040500520405004D040500480405004E
:10302000430405003E0404003A040500350405008D
:10303000300404002C0405002704040023040500C8
:103040001E0404001A040400160405001104040000
:103050000D04040009040500040404000004040035
:10306000FC030400F8030400F4030400F00304006C
:10307000EC030400E8030400E4030400E00304009C
:10308000DC030400D8030400D4030400D0030400CC
:10309000CC030400C8030300C50303005D2E000039
:1030A0006E23000013180000AF0E00003D08000062
:1030B00063040000450200002701000020002000FA
:1030C000200020002000FFFFFF43616E6E6F742020
:1030D0006F70656E207375626469722000220A0049
:1030E000556E6B6E6F776E20636F6D6D616E643AB7
:1030F000202200204500205A0020590020204D3970
:103100003220580053746570732070657220756E9C
:10311000697400627573793A207061757365642013
:10312000666F7220696E7075740A00627573793A01
:103130002070617573656420666F722075736572A7
:103140000A00627573793A2070726F6365737369F0
:103150006E670A0053442F46442072657469726199
:10316000646F0053442F464420696E736572746126
:10317000646F004D3131322053687574646F776E1F
:1031800000444554454E494441005072696E74658F
:10319000722073746F707065642064756520746F3D
:1031A000206572726F72732E20466978207468658C
:1031B000206572726F7220616E6420757365204D98
:1031C00039393920746F20726573746172742E20DE
:1031D0002854656D7065726174757265206973201D
:1031E00072657365742E205365742069742061665E
:1031F0007465722072657374617274696E67290AEE
:10320000004E6F20436865636B73756D207769743A
:1032100068206C696E65206E756D6265722C204C3D
:10322000617374204C696E653A20004D3239004E4E
:103230006F20436865636B73756D207769746820D0
:103240006C696E65206E756D6265722C204C6173C1
:1032500074204C696E653A2000636865636B737512
:103260006D206D69736D617463682C204C6173749B
:10327000204C696E653A20004C696E65204E756D74
:10328000626572206973206E6F74204C61737420C4
:103290004C696E65204E756D6265722B312C204C29
:1032A000617374204C696E653A20004D31313000F5
:1032B00053657269616C20737461747573206D69F4
:1032C000736D617463680A00534420726561642001
:1032D0006572726F720A004B494C4C2062757474AF
:1032E0006F6E2F70696E0A002121204B494C4C20D3
:1032F0006361757365642062792000746F6F206D5F
:1033000075636820696E6163746976652074696DA0
:1033100065202D2063757272656E7420636F6D6D0C
:10332000616E643A20002121204B494C4C2063619E
:103330007573656420627920006F6B0A00526573B3
:10334000656E643A200020453A00205A3A00205920
:103350003A00583A005349524955532033303020EF
:1033600049444558204C6973746100496D70726915
:103370006D69656E646F2E2E2E00496D70726573D7
:1033800069C3B36E2050617573616461000028EFFA
:1033900020F911241FBECFEFD1E2DEBFCDBF00E088
:1033A0000CBF84B78093C21414BE0FB6F894A895CE
:1033B00080916000886180936000109260000FBE71
:1033C00013E0A0E0B2E0E0E2FDE002E00BBF02C0EB
:1033D00007900D92A439B107D9F724E1A4E9B3E02D
:1033E00001C01D92A23CB207E1F719E1C8ECD9E196
:1033F00000E006C021970109802FFE010F9404020E
:10340000C73CD10780E00807A9F70E949AF00D9405
:103410007F060C940000CF93DF93EC01CB01BA013F
:103420000E949FFD20E030E048EC52E40F94F5024A
:103430002FE632E143E85AE30F9419026883798357
:103440008A839B83DF91CF910895CF93DF93EC0123
:10345000CB01BA010E949FFD20E030E048EC52E42D
:103460000F94F5022FE632E143E85AE30F94190274
:10347000688379838A839B83DF91CF910895CF936B
:10348000DF93EC01CB01BA010E949FFD6883798331
:103490008A839B83DF91CF910895CF93DF93EC01D3
:1034A000CB01BA010E949FFD688379838A839B8345
:1034B000DF91CF910895CF93DF93EC01CB01BA0157
:1034C0000E949FFD20E030E048EC52E40F94F502AA
:1034D0002FE632E143E85AE30F94190268837983B7
:1034E0008A839B83DF91CF910895CF93DF93EC0183
:1034F000CB01BA010E949DFD2AE037ED43E25DE376
:103500000F94F5020F946203688379838A839B8307
:10351000DF91CF910895CF93DF93EC01CB01BA01F6
:103520000E949FFD2AE037ED43E25DE30F94F50230
:10353000688379838A839B83DF91CF910895FC010F
:10354000518340830895CF93DF93EC01CB01BA01FF
:103550000E949FFD20E030E04AE754E40F94F5021A
:1035600027E137EB41ED58E30F9419026883798323
:103570008A839B83DF91CF910895FC01A081B18163
:103580001C92A281B3818C918F5F8C930280F38116
:10359000E02D90818CE0989F800D1124E5E1F0E111
:1035A00013AE84AF08955B9800C090910B0187FD26
:1035B00090959078909309015B9A00C000C05B9849
:1035C00000C090910B0186FD909590789093090131
:1035D0005B9A00C000C05B9800C090910B0185FD14
:1035E00090959078909309015B9A00C000C05B9819
:1035F00000C090910B0184FD909590789093090103
:103600005B9A00C000C05B9800C090910B0183FDE5
:1036100090959078909309015B9A00C000C05B98E8
:1036200000C090910B0182FD9095907890930901D4
:103630005B9A00C000C05B9800C090910B0181FDB7
:1036400090959078909309015B9A00C000C05B98B8
:1036500000C080910B018078809309015B9A00C0C3
:1036600000C0089590E080E00895CF93DF93C0916B
:10367000C705D091C80581E0CE31D105E4F020E046
:1036800030E040E05FE36091C3057091C405809134
:10369000C5059091C6050F9419020F945D036C1B2C
:1036A0007D0B77FF03C071956195710981E06330EF
:1036B00071050CF080E0DF91CF91089590E080E0FB
:1036C000089520915310833021F425FD0CC024FD72
:1036D0000CC030E0A90102C0559547958A95E2F7E4
:1036E000CA018170089581E0089580E00895809175
:1036F000B90484FD0BC08091BB0487FD07C0909185
:10370000BC04937081E019F480E0089581E008958D
:103710002FEB280F2A3108F047C0E22FF0E080910C
:10372000B9049091BA04A091BB04B091BC0404C048
:10373000B695A795979587952A95D2F780FD02C0F3
:1037400081700895E156FB4FE081EE2341F18091B5
:10375000700790917107E80FF92FF11D808190EDAE
:10376000980F9A3030F08E3251F4818180538A3034
:1037700098F4F0939E04E0939D0481E008958D32C7
:1037800011F08B3249F4818190ED980F9A3088F3D3
:103790008E3211F48281EACFF0E0E0E0EACF1092BD
:1037A0009E0410929D04E9CF80E00895B1DF882344
:1037B00041F081E020919D0430919E04232B09F477
:1037C00080E008958F929F92AF92BF92CF92DF9246
:1037D000EF92FF92CF936B017C0120E030E0A901D2
:1037E0000E9499FD87FD6AC06DEB77E386E095E363
:1037F000A70196010F94190243E050E00E94C5B161
:103800006B017C01C114D104E104F10409F45BC033
:10381000F7FE59C0F094E094D094C094C11CD11C20
:10382000E11CF11C8DE280934D05C701B60128EE25
:1038300033E040E050E00F9495018AE0882E912C0F
:10384000A12CB12CCA01B901A50194010F949501D5
:10385000605D60934E058EE280934F05C701B6010F
:1038600024E630E040E050E00F949501CA01B90130
:10387000A50194010F949501605D60935005C70107
:10388000B601A50194010F949501C62FCA01B90193
:10389000A50194010F949501605D60935105C05D91
:1038A000C09352058DE495E0CF91FF90EF90DF90AB
:1038B000CF90BF90AF909F908F9008956DEB77E37E
:1038C00086E095EB95CF80E2AECF0E949FFD20E091
:1038D00030E04AE754E40F94F50227E137EB41ED7D
:1038E00058E30F9419026ECF0E949FFD20E030E054
:1038F00048EC52E40F94F5022FE632E143E85AE334
:103900000F9419020C942CC60E949FFD0C943DC587
:10391000CF92DF92EF92FF92CF93DF9300D01F926E
:10392000CDB7DEB70E949FFD20E030E048EC52E4C6
:103930000F94F5022FE632E143E85AE30F9419029F
:103940006B017C0120E030E0A9010E9499FD2DEB84
:1039500037E346E055E387FF04C02DEB37E346E04D
:1039600055EBC701B6010F94190269837A838B83E3
:103970009C83CE0101960E9413B20F900F900F907E
:103980000F90DF91CF91FF90EF90DF90CF9008954F
:103990000E949DFD2AE037ED43E25DE30F94F502BE
:1039A0000F9462030C9415C60E949FFD2AE037ED28
:1039B00043E25DE30F94F5020C9406C70E949FFD5D
:1039C0000C9406C70E949FFD20E030E048EC52E4D2
:1039D0000F94F5022FE632E143E85AE30F941902FF
:1039E0000C9447C1CB010C94EBAD0C94019D0C944D
:1039F000019D0C9484860C9484860C9484860C948B
:103A0000848680916B02882341F060914405709117
:103A1000450541E081E00C94E5CE089563E972E04C
:103A200084E690E00E94E5B570E060E08AE090E016
:103A30000E94E5B56AEB72E084E690E00C94E5B58F
:103A40000E94C7AAEBCF8111E9CF68E270E080E95C
:103A500091E00C94E5B50E940983F5CF0E943CAC3F
:103A6000F2CFCF92DF92EF92FF920F931F930E94BB
:103A7000A1D30091C9041091CA042091CB043091C4
:103A8000CC046B017C01C01AD10AE20AF30A970147
:103A9000860137FD11C02091C80420952093C804E9
:103AA0006A547C4F8F4F9F4F6093C9047093CA0430
:103AB0008093CB049093CC0481E09091C804911141
:103AC00001C080E01F910F91FF90EF90DF90CF90A9
:103AD0000895CF93DF93C091C705D091C805209773
:103AE00029F16091C3057091C4058091C50590913D
:103AF000C6050F945D036E5F7F4F24976C177D079B
:103B0000ACF47093A9056093A8050E94A1D3605AF4
:103B100075418F4F9F4F6093AA057093AB058093BB
:103B2000AC059093AD05DF91CF9108951092AA0551
:103B30001092AB051092AC051092AD05F4CFBF9278
:103B4000CF92DF92EF92FF920F931F93CF93DF9369
:103B50006B01E9014A3009F4D6C0453109F081C052
:103B6000DB011296ED91FC911281C681D7815A9AA0
:103B700000C0000086E290E00197F0F7012F029567
:103B8000007F20E1B22EB10E88EF0DDD00C00000F5
:103B900086E290E00197F0F7103208F0A1C0812F83
:103BA0008077806800DD802FFEDC00C0000086E2A8
:103BB00090E00197F0F780E8F6DC80E0F4DC00C0EC
:103BC000000086E290E00197F0F78AEFECDC00C09D
:103BD000000086E290E00197F0F77E01B0E1EB0E85
:103BE000F11C8881807FDFDC89918295807FDBDC1E
:103BF000CE15DF05B1F700C0000086E290E0019726
:103C0000F0F71F5F005F1B11BFCF5A98D6011296C5
:103C1000ED91FC9180819281980F9283218192177E
:103C200008F0DCC194819F5F94839381890F821790
:103C300010F08FEF820F8383458150E0440F551FB2
:103C400070E060E0868197810F942B0681E0DF9120
:103C5000CF911F910F91FF90EF90DF90CF90BF9089
:103C60000895FB0102811381423309F4B9C108F4BC
:103C7000C1C1463409F4AEC1473409F4B6C14B336F
:103C800029F789812B81D80112966C91129713968E
:103C90004C91213009F4F3C1233009F0D4C138EF3D
:103CA000380F582F91E0431708F490E041E0531784
:103CB00008F040E031E0561708F430E0592F542B5B
:103CC000352319F4942309F4C1CFFA8030E0F901C7
:103CD000E753FD4FD0802B533D4FF901E080CCC11D
:103CE00080EE810F8068807F5EDC812F8295807FEF
:103CF0005ADC00C0000086E290E00197F0F780E80F
:103D000052DC80E85BCF529A5A9880910A01806811
:103D100080930A0180910B01807880930901539A66
:103D20005B9A5A9A00C0000086E290E00197F0F793
:103D300088E790E0CEE9DFE0FE013197F1F70197E7
:103D4000D9F788EF30DC00C0000086E290E00197F0
:103D5000F0F780E228DC80E026DC00C0000086E28C
:103D600090E00197F0F780E01EDC80E81CDC00C0EA
:103D7000000086E290E00197F0F780E014DC80E13B
:103D800012DC00C0000086E290E00197F0F7CE015F
:103D90000197F1F7CE010197F1F7CE010197F1F705
:103DA000CE010197F1F7CE010197F1F7CE0101970E
:103DB000F1F7CE010197F1F7CE010197F1F7CE01AE
:103DC0000197F1F7CE010197F1F7CE010197F1F7D5
:103DD000CE010197F1F7CE010197F1F7CE010197DE
:103DE000F1F72197F1F780E2DEDB80E4DCDB00C055
:103DF000000086E290E00197F0F780E2D4DB80E6F5
:103E0000D2DB00C0000086E290E00197F0F7D0E03E
:103E1000C0E08C2F80778068C6DB8D2FC4DB00C0AC
:103E2000000086E290E00197F0F780E8BCDB80E0DC
:103E3000BADB00C0000086E290E00197F0F78AEF5D
:103E4000B2DB00C0000086E290E00197F0F790E25C
:103E50005B9800C080910B018078809309015B9A88
:103E600000C000C05B9800C080910B0180788093F7
:103E700009015B9A00C000C05B9800C080910B01F3
:103E80008078809309015B9A00C000C05B9800C0F5
:103E900080910B018078809309015B9A00C000C07B
:103EA0005B9800C080910B018078809309015B9A38
:103EB00000C000C05B9800C080910B0180788093A7
:103EC00009015B9A00C000C05B9800C080910B01A3
:103ED0008078809309015B9A00C000C05B9800C0A5
:103EE00080910B018078809309015B9A00C000C02B
:103EF0005B9800C080910B018078809309015B9AE8
:103F000000C000C05B9800C080910B018078809356
:103F100009015B9A00C000C05B9800C080910B0152
:103F20008078809309015B9A00C000C05B9800C054
:103F300080910B018078809309015B9A00C000C0DA
:103F40005B9800C080910B018078809309015B9A97
:103F500000C000C05B9800C080910B018078809306
:103F600009015B9A00C000C05B9800C080910B0102
:103F70008078809309015B9A00C000C05B9800C004
:103F800080910B018078809309015B9A00C000C08A
:103F900000C00000E6E2F0E03197F0F7915009F040
:103FA00057CF88EF00DB00C0000086E290E0019769
:103FB000F0F7CF5FD05FC03209F02BCF80E0F3DAAB
:103FC00080ECF1DA00C0000086E290E00197F0F7A3
:103FD0005A983CCEF8018581888338CE80E037CE70
:103FE000B901C8010E9432D431CED80111968C910A
:103FF00088832CCE443191F0473109F027CE1882C6
:10400000D80112968C911297898315968C911597E9
:1040100081508A8313968C918B8318CED801159684
:104020004C91159750E0440F551F70E060E01696D4
:104030008D919C910F942B06F80112828081815002
:104040008383148203CE481708F400CE861708F441
:10405000FDCDFA80E12CD12C243070F437CEBE0196
:10406000C8010E9432D4898198819D0D98838E0D5C
:104070008983FF0C09F4EACDF7FEF6CFF0CF58E0C4
:10408000580F382F0FCEEF92FF920F931F93CF93BD
:10409000DF93EC018B017A018A859B858617970750
:1040A00031F0888199810E9464D61B870A87B70105
:1040B000888199810E949DCF2E813F81820F932F0D
:1040C000911D9F838E8390E080E0DF91CF911F91BF
:1040D0000F91FF90EF9008959F92AF92BF92CF9271
:1040E000DF92EF92FF920F931F93CF93DF93EC0138
:1040F0008B01942EA52E8A859B858617970731F014
:10410000888199810E9464D61B870A878885998552
:10411000019649F5BC800A818E81080FC880D9803C
:10412000D6015596ED91FC91C6011995B80EE92C72
:10413000FA2C10E0F70121917F01211127C08E8117
:104140009F81810F911D9F838E8390E080E0DF919E
:10415000CF911F910F91FF90EF90DF90CF90BF9084
:10416000AF909F9008950E811F81692D7A2D8881CF
:1041700099810E949DCF800F912F911D28853985AF
:104180002817390738F681E090E0E1CF4B2D602FFA
:10419000C6010E94BCD6080F180FCCCFDF92EF9259
:1041A000FF920F931F93CF93DF93EC01D62E1CAD9C
:1041B0000BAD7C0184E0E80EF11CE98DFA8DC7019E
:1041C0001995412F480F2D2D602FC7010E94BCD695
:1041D0009BAD890F8BAF81E090E0DF91CF911F9174
:1041E0000F91FF90EF90DF9008952F923F924F92A2
:1041F0005F926F927F928F929F92AF92BF92CF9277
:10420000DF92EF92FF920F931F93CF93DF93D62FFE
:10421000C72FFC0180809180A280B380C501B401CA
:1042200020E831E541E050E00F947301C9016DE6EB
:1042300071E00F94DD016B017C01C501B40120E147
:104240003EE040E050E00F947301CA01B90128E15B
:1042500030E040E050E00F947301362E272E062FF9
:10426000172F8CE3482E512C612C712CC501B40101
:10427000A30192010F947301B62EA72ECA01B901B2
:10428000A30192010F947301CB01C114D10479F100
:10429000AF92BF927F936F932F923F92FF92EF92D4
:1042A000DF92CF928EEA9AE09F938F93CF93DF9322
:1042B0000E9432FD8DB79EB70E960FB6F8949EBF42
:1042C0000FBE8DBF8D2F9C2FDF91CF911F910F912E
:1042D000FF90EF90DF90CF90BF90AF909F908F9026
:1042E0007F906F905F904F903F902F900895E114D2
:1042F000F104C9F0AF92BF927F936F932F923F92D8
:10430000FF92EF928EE99AE09F938F93CF93DF9382
:104310000E9432FDEDB7FEB73C960FB6F894FEBF93
:104320000FBEEDBFCFCF012BB9F0AF92BF927F93FD
:104330006F932F923F9282E99AE09F938F93CF934E
:10434000DF930E9432FD8DB79EB70A960FB6F894A0
:104350009EBF0FBE8DBFB6CF892BA9F0AF92BF9283
:104360007F936F938AE89AE09F938F93CF93DF9325
:104370000E9432FDEDB7FEB738960FB6F894FEBF37
:104380000FBEEDBF9FCFAF92BF9286E89AE09F939A
:104390008F93CF93DF930E9432FD0F900F900F9079
:1043A0000F900F900F908ECFCF93C091DD04CC2350
:1043B000C9F14CE050E060E270E08FEC94E00F94C3
:1043C0002B062C2F30E060E2C43630F0C90164E6E1
:1043D00070E00F94F101605D6093500580E2CA3097
:1043E00058F0EAE0F0E0C901BF010F94F101CB0100
:1043F000BF010F94F101805D80935105C9016AE00E
:1044000070E00F94F101805D8093520583E0E0E558
:10441000F5E0A3EDB4E001900D928A95E1F785E215
:104420008093D604CF910895CF92DF92EF92FF92BE
:104430000F931F93CF93DF93CDB7DEB72C970FB6B3
:10444000F894DEBF0FBECDBFF0905010E090511039
:104450002091C70421111DC049EE5CE06E2D8F2D07
:104460000E9427D790E080E0F80EF0925010E09282
:10447000511099272C960FB6F894DEBF0FBECDBF12
:10448000DF91CF911F910F91FF90EF90DF90CF9030
:104490000895C0901D10D0901E1029E130E13A839C
:1044A00029832F2D30E03C832B832E2D30E03E835B
:1044B0002D8318861F827A8769871C861B860CE6E7
:1044C00010E29E012F5F3F4F44E45FE6BC01C6014E
:1044D0000E9459CBB60189E190E10E9464D68F8198
:1044E0009885C2CF80919D0490919E04009731F0F1
:1044F0004AE050E070E060E00C94BAFB60E070E0ED
:10450000CB01089580919D0490919E04009731F015
:104510004AE050E070E060E00C948FFA60E070E0F8
:10452000CB010895EFDFCB010895CF93DF93EB012B
:104530003DD9882319F0DF91CF91F4CFCE01DF91DF
:10454000CF910895DFDF97FD0AC0DCDF6F3F710573
:104550008105910509F02CF4D5DF862F089580E0C0
:1045600008958FEF089580919D0490919E04892B6A
:1045700039F0E8DF91E0811101C090E0892F0895C2
:1045800091E0FCCFCF93DF93C82FD62F0FD988238C
:1045900019F0DF91CF91E7CF8C2FBAD8811101C0EC
:1045A0008D2FDF91CF9108950F931F93CF9380911B
:1045B0009D0490919E04009709F1FC018F01C19127
:1045C0002C2F2F7DA1F0C53431F0C53621F0C83530
:1045D00011F0C83799F7F801108270E060E00E948E
:1045E0003AF9F801C083CF911F910F91089570E0BF
:1045F00060E0CF911F910F910C943AF960E070E068
:10460000CB01F1CF4F925F926F927F92AF92BF92A8
:10461000CF92DF92EF92FF920F931F93CF9381EC93
:10462000A82E82E0B82E9CE5E92E97E0F92E0BE744
:1046300012E02BEAC22E2EE0D22EC0E0F5018191CD
:104640005F01B4D8882309F4A2C0AEDF2B013C017E
:104650008C2F37D8882309F490C0F801208131814C
:1046600042815381C301B2010F941902F7016083A3
:10467000718382839383CF5FF4E0EF0EF11C0C5FB4
:104680001F4F84E0C80ED11CC330C1F685E48ED81C
:10469000882309F487C088DF6B017C0183E011D88F
:1046A000882371F02091870230918802409189021D
:1046B00050918A02C701B6010F9419026B017C0167
:1046C000C0926807D0926907E0926A07F0926B0780
:1046D00086E46CD88823B9F067DF20E030E0A901D8
:1046E0000F943F0418167CF45FDF20E030E040E7D1
:1046F00052E40F94F5026093330270933402809376
:1047000035029093360280917C0583FD28C080910C
:104710009906882321F120918702309188024091E7
:10472000890250918A0260916807709169078091AF
:104730006A0790916B070F941802209149073091F6
:104740004A0740914B0750914C070F941902609310
:10475000490770934A0780934B0790934C07CF917A
:104760001F910F91FF90EF90DF90CF90BF90AF908F
:104770007F906F905F904F900895F6012081318176
:1047800042815381C301B2010F9418026FCFF80127
:1047900080819181A281B381F70180839183A2837B
:1047A000B38369CF8091870290918802A09189029A
:1047B000B0918A028093680790936907A0936A0773
:1047C000B0936B0785CFCF93DF93CDB7DEB720E2F1
:1047D000488559856F818E810E944ACFDF91CF91A4
:1047E00008950F931F93522F20911310309114109E
:1047F0002817390731F110924905909314108093CE
:1048000013108B0130E020E00093BA061093BB0632
:104810002093BC063093BD064093B3065093B40674
:10482000835B9E4321F4109252071092430582E06D
:1048300080936B0281E08093CA0610924705109224
:1048400046051F910F91089520E040E070E060E080
:1048500083EB9EE3C6CFCF930E94C7AA0E94098331
:10486000C82F882319F080E00E9483828C2FEBD818
:10487000CF91EACF81E69FE09093AC068093AB06A0
:10488000E3CFCF93DF93C0914305CC23B1F0C15068
:10489000C093430589E0C89FE0011124C35FDA4F4C
:1048A0006A817B812F814E81888199819ADF8885F9
:1048B00080935207DF91CF910895DF91CF91C4CFBC
:1048C000E0914305E63028F581E08E0F80934305A3
:1048D0004091BA065091BB066091BC067091BD062E
:1048E0002091B3069091B4068091520739E0E39F7E
:1048F000F0011124E35FFA4FA0911310B09114104E
:10490000B183A08342835383648375832683978313
:1049100080870895CF93DF93CDB7DEB78E81282FA0
:10492000082E000C330B90910D0F9217130609F00F
:104930008CF480930D0F9E01275F3F4F4F81588568
:104940006AE270E082EE9EE00E9461FD1092E10E4C
:104950001092E00EDF91CF9108950F931F93CF93A4
:10496000DF938C016F3F19F410920D0F60E02091DE
:104970000D0F862F062E000C990B2817190609F02B
:1049800014F560930D0FC8010E94E8FC800F911F81
:10499000EC01C01BD10BCB32D1053CF00197FC01DF
:1049A0002491207C2038D1F3F3CFDD27AE01B8016C
:1049B00082EE9EE00E9409FDCE51D14F18821092E6
:1049C000E10E1092E00EDF91CF911F910F910895AB
:1049D000CF9380910505811109C08DE39EE09093EE
:1049E00045058093440581E08093050569DF20E05B
:1049F00040E070E060E081E09DE1F3DEC1E0C09363
:104A000052070E94D286109252073BDFC093520792
:104A100060E08AE793E3A1DF89E39EE09093AC0630
:104A20008093AB06CF9108950F931F930E94A1D35B
:104A300000910105109102052091030530910405B4
:104A4000601B710B820B930B97FD0EC083B185FB2E
:104A5000882780F991E089271E9B82609091090147
:104A600096FF84608093000580910005817090918D
:104A7000000591FD82609091FF04981749F0813004
:104A800009F148F0823079F0833091F08093FF048F
:104A90001F910F910895913079F09230B9F790916C
:104AA000FE0491500CC0992339F09330C1F3EECF3E
:104AB0009130A9F3923051F79091FE049F5F90934B
:104AC000FE04E4CF992359F3933001F7F5CFCF9249
:104AD000DF92EF92FF92CF93C82F833011F460934F
:104AE000F1040E94A1D36B017C0124EA30E74DE779
:104AF0005FE3609115027091160280911702909108
:104B000018020E9499FD87FD18C08AEF90E0A0E08E
:104B1000B0E08C0D9D1DAE1DBF1D8093F2049093DF
:104B2000F304A093F404B093F504C0931102CF9161
:104B3000FF90EF90DF90CF90089580E090E0DC014F
:104B4000E8CF8F3010F48F5F08958F5008959CE068
:104B5000899F802D112491E0980F9093C6042CE03A
:104B6000280F2093D00630E02E5F3F4F40914D102C
:104B70004217130619F014F080E0089520914F10A9
:104B80009217D0F7662341F08E5F0E9492D58091F4
:104B9000D0068E5F0E9492D58091D00690914D10E4
:104BA000891750F320914F109091C604291720F3D4
:104BB000109250108093511081E00895CF9380910E
:104BC000C504811154C010925010109251101092CF
:104BD000521010921E1010921D1010922010109260
:104BE0001F101092221081E08093211082E28093A6
:104BF00023101092281010922710ECE3F0E12AE421
:104C000030E18FEF81932E173F07E1F7C1E0C093AA
:104C1000391022E539EC30932F1020932E10C093D9
:104C20003010109231101092321090E490933310A3
:104C30001092341021E539EC30934B1020934A1038
:104C40002AE032E030931C1020931B1092E19093E5
:104C500040109AE29093411093E190933E1080931C
:104C60003D1080933C100E9470D4C093C50481E035
:104C70008093C70489E29DE090930F0F80930E0FFD
:104C80001092110F1092100FCF91089597DF259871
:104C90002D9A26982E9AEAE0F1E080818F7B80831E
:104CA00080910B018095807480930901BDDE109284
:104CB000FE040C94BDCB2091C404022E000C330BD7
:104CC0008217130641F08093C40469ED7FE089E107
:104CD00090E10C9464D60895EF92FF920F931F9386
:104CE000CF93DF93CDB7DEB72C970FB6F894DEBF26
:104CF0000FBECDBFFC0160817181828193816F3FC6
:104D000071058105910509F0B8F485E190E146DA75
:104D1000E0911D10F0911E103196849190E02C9638
:104D20000FB6F894DEBF0FBECDBFDF91CF911F91BC
:104D30000F91FF90EF900895109150100091511035
:104D40002091C70421110FC049E05DE0602F812F41
:104D50000E9427D790E080E0180F10935010009326
:104D600051109927DCCFE0901D10F0901E1029E122
:104D700030E13A832983212F30E03C832B83202F9D
:104D800030E03E832D8318861F822FEF3FEF3A8756
:104D900029871C861B862CE630E2AE014F5F5F4FF1
:104DA000BF01C7010E9494CAB70189E190E10E9446
:104DB00064D68F819885D0CF4F925F926F927F9209
:104DC0008F929F92AF92BF92CF92DF92EF92FF921B
:104DD0000F931F93CF93DF9300D000D01F921F92A9
:104DE000CDB7DEB76C015A014901FB0190818CE01F
:104DF000989F800D1124982FF6012081822F880F13
:104E0000820F880F809350109093511041155105D7
:104E100009F4A0C0DA82C9827C836B83011122C0AD
:104E2000AE014B5F5F4FB401C5010E942DB65C011E
:104E30008D819E81AF81B885892B8A2B8B2B09F4BC
:104E400089C0CE01059648DFF60180818F5F80839F
:104E5000853130F3CE0101960E94BD1AE1CF10E0FA
:104E600075010DC07A0110E00AC0E114F104B9F334
:104E70008FEFE81AF80A10E0E114F10489F3AE01AB
:104E80004B5F5F4FB401C5010E942DB65C014D80A0
:104E90005E806F8078844114510461047104E9F0EC
:104EA000F0E24F16510461047104A9F0D301C2016C
:104EB0008D97A109B1090297A105B10570F04BE2E8
:104EC000441651046104710441F05AE0451651043E
:104ED00061047104E9F5112341F2F6018081482F44
:104EE000410F5527551F4631510534F0853020F0CC
:104EF000CE0101960E94BD1A81E041145104610463
:104F0000710409F480E0180FF6018081810F80831D
:104F1000112369F01150AE014B5F5F4FB401C7011F
:104F20000E942DB67C01CE010596D6DEF1CF41144C
:104F300051046104710471F0FAE04F1651046104E8
:104F4000710409F08CCFCE0101960E94BD1A88CF62
:104F50001F5F92CF28960FB6F894DEBF0FBECDBF6D
:104F6000DF91CF911F910F91FF90EF90DF90CF9045
:104F7000BF90AF909F908F907F906F905F904F9079
:104F800008952F923F924F925F926F927F928F92ED
:104F90009F92AF92BF92CF92DF92EF92FF920F93C8
:104FA0001F93CF93DF9300D0CDB7DEB74C013B0109
:104FB0005A012B83232E280181E0809352074091D0
:104FC000BA065091BB066091BC067091BD064115B2
:104FD00051056105710571F0141615060CF080E09D
:104FE000809346051092BA061092BB061092BC063A
:104FF0001092BD061091460530904A0510924A0560
:10500000311005C080916B02882309F46CC0C20185
:105010000E9411B6082F80E0C114D10419F0C60116
:105020000E9411B61A821982E114F104B1F4402FE2
:1050300050E0282F30E0CA01820F931F46976CF48E
:1050400085E190E0841B950B821B930B97FD0196E5
:10505000959587958A8381E0898301E024E43FE682
:10506000A201BE016F5F7F4FCE010296A5DEE11463
:10507000F10489F08A81882321F01A8289818F5F67
:10508000898300E027E43FE6A701BE016F5F7F4F01
:10509000CE01029691DEC114D10451F000E024E467
:1050A0003FE6A601BE016F5F7F4FCE01029684DE10
:1050B00041E04127B30181E00E9401D6C4010E9472
:1050C00011B6412FB40194E1981B892F0E9401D69B
:1050D000332049F0111102C0AB80B22CA114B104ED
:1050E000C1F0F50119950F900F900F90DF91CF91BE
:1050F0001F910F91FF90EF90DF90CF90BF90AF90F6
:105100009F908F907F906F905F904F903F902F90E7
:105110000895B7DBE8CFCF92DF92EF92FF920F9323
:105120001F938EE4C82E8FE0D82EF12CE12C06E6DA
:105130001FE030E020E04BE254E260E57FE089E5EB
:105140009FE01FDF1F910F91FF90EF90DF90CF90B6
:105150000895AF92BF92CF92DF92EF92FF920F939A
:105160001F93CF93DF93CDB7DEB7ADB6BEB68FE555
:105170009EE00E9411B690E001962DB73EB7281B25
:10518000390B0FB6F8943EBF0FBE2DBF8DB79EB73B
:1051900001967C016FE57EE00E94E1FCE091AF06A4
:1051A000E15010E000E0E43038F4F0E0EE0FFF1FD3
:1051B000E45CFC4F008111818CE4C82E8EE0D82E77
:1051C00024E234E24BE254E26EE47EE085E59EE0C8
:1051D000D8DE0FB6F894BEBE0FBEADBEDF91CF9144
:1051E0001F910F91FF90EF90DF90CF90BF90AF9005
:1051F00008956FEF7FEF18C9E5E1F0E183AF64AF89
:10520000CA01F7CFF6CFCF93DF93FC0125AD211173
:1052100004C021E025AF0E9470D4C0911B10D09132
:105220001C10E0914A10F0914B1082E01995E0912A
:105230004A10F0914B1081E0199530E020E044E1F4
:10524000BE0189E190E10E946CD42CE430E147E199
:10525000BE0189E190E10E946CD4E0914A10F09186
:105260004B1080E0DF91CF9119944F925F926F9233
:105270007F928F929F92AF92BF92CF92DF92EF92E6
:10528000FF921F93CF93DF93CDB7DEB760970FB632
:10529000F894DEBF0FBECDBF0E94A1D36B017C018D
:1052A000809111028F3F09F44CC00E94A1D38090DD
:1052B000F2049090F304A090F404B090F5046819FF
:1052C00079098A099B0997FD3CC08091D90F39DC87
:1052D0009091DA0F8917A9F18091110240E050E016
:1052E00065E073E4843050F424E0829FF0011124DF
:1052F000E153FD4F40815181628173814D875E870B
:105300006F87788B19821A821B821C821D821E82F3
:105310001F82188619861A861B861C864091F10406
:10532000833011F0409158079E012F5F3F4FBE011F
:10533000635F7F4F8BE792E00E941D968FEF809313
:10534000110272DB8091000582FF33C08091FD0461
:10535000811131C091E09093FD0480915B07892712
:1053600080934A0510925B0783E080936B02109252
:1053700000050E94A1D36C507E4F8F4F9F4F6093CA
:10538000010570930205809303059093040568E876
:1053900073E182E090E00E94E5B516E0115059F00B
:1053A0000E947FB562E070E080E090E00E946ED3E2
:1053B000F5CF1092FD0480914E0790914F07A09178
:1053C0005007B0915107A7019601281B390B4A0BD2
:1053D0005B0BDA01C901B7FF05C08091470588233F
:1053E00009F4B9C1D701C6018C599F4FAF4FBF4FC8
:1053F00080934E0790934F07A0935007B0935107A7
:105400006091FE04062E000C770B77FF03C07195A8
:10541000619571099091FE048091FC04981365C018
:10542000633008F062C01092FE048091FE04809305
:10543000FC04643008F069C080914A058111E7C01E
:105440008091131090911410835B9E4341F48091DE
:105450001202882309F4EDC08150809312020E9449
:10546000F2868090780590907905A0907A05B090AA
:105470007B0581110E94FF86D501C4013AE0B695F3
:10548000A795979587953A95D1F78F3F4FEF94075A
:10549000A105B10520F08FEF9FEFA0E0B0E0969559
:1054A000879520916B022111D6C0309147053111AB
:1054B00081C18091131090911410835B9E4309F475
:1054C00060C18091520781115CC18091F804909174
:1054D000F904A091FA04B091FB04C81AD90AEA0AA7
:1054E000FB0AF7FC5CC1B0D95AC1633009F09DCF0B
:1054F0008091FE0487FD07C081E0880F880F8093AC
:10550000FE0464E092CF8FEFF8CF8091CF0621E0C8
:1055100030E040E050E0882309F456C08090CB068C
:105520009090CC06A090CD06B090CE068114910448
:10553000A104B104E9F170E090E080E00E949DFDDB
:1055400020E030E040E85EE30E94FEFD2B013C01DC
:10555000C701B601681979098A099B090E949DFD56
:105560009B01AC01C301B2010F94F50220E030E0D1
:105570004AE754E40E94FEFD4B015C0120E030E06C
:1055800040EA52E40F943F0424E630E040E050E06B
:1055900087FF12C020E030E040EF51E4C501B401C4
:1055A0000F943F042AE030E040E050E087FF04C061
:1055B00021E030E040E050E0C092CB06D092CC0633
:1055C000E092CD06F092CE06A091FE040A2E000CC9
:1055D000BB0B0F94BB0124E030E040E050E00F949F
:1055E00095018091BA069091BB06A091BC06B0913E
:1055F000BD06820F931FA41FB51F8093BA06909318
:10560000BB06A093BC06B093BD061092FE04D70162
:10561000C601805A9541AF4FBF4F8093F8049093D5
:10562000F904A093FA04B093FB0481E080936B0229
:1056300007CF8CE0809312028091F6049091F704DA
:10564000009729F001979093F7048093F60481E086
:1056500080936B0204CF009741F04091F604509183
:10566000F7044817590708F024CF809147058111A6
:1056700011C0223038F0243008F43FC0243011F437
:1056800010926B0285E190E1BEDD81E08093B60669
:105690008093470583E00FDB81E080933910E09130
:1056A0001310F091141019951092B60680914705C9
:1056B000811127C010924A05809113109091141007
:1056C000835B9E4309F0FDCE0E94A1D3DC01CB0198
:1056D0008C199D09AE09BF098090F6049090F704DB
:1056E000B12CA12C88169906AA06BB0608F0E1CEBB
:1056F0009093F7048093F604DCCE81E080936B02F4
:10570000C1CF89E190E10E9434D691E0811101C0BE
:1057100090E090934705882369F28091131090914F
:105720001410835B9E43B9F40E94A1D3DC01CB012A
:105730008C199D09AE09BF09C090F604D090F704FA
:10574000F12CE12CC816D906EA06FB0620F490934A
:10575000F7048093F60460960FB6F894DEBF0FBE90
:10576000CDBFDF91CF911F91FF90EF90DF90CF9051
:10577000BF90AF909F908F907F906F905F904F9071
:10578000089540E6C40E4AEED41EE11CF11CC092FE
:10579000F804D092F904E092FA04F092FB048091AC
:1057A00047058111D8CF80916B028130A1F610920C
:1057B0006B02D1CF009709F46DCF4FCFCF92DF921C
:1057C000EF92FF920F931F93CF93DF93CDB7DEB786
:1057D0002C970FB6F894DEBF0FBECDBFF0905010DF
:1057E000E09051102091C70421111DC049EC5CE0EC
:1057F0006E2D8F2D0E9427D790E080E0F80EF0925A
:105800005010E092511099272C960FB6F894DEBFF5
:105810000FBECDBFDF91CF911F910F91FF90EF9001
:10582000DF90CF900895C0901D10D0901E1029E1F8
:1058300030E13A8329832F2D30E03C832B832E2DBA
:1058400030E03E832D8318861F827A8769871C8605
:105850001B860CE610E29E012F5F3F4F47E45FE698
:10586000BC01C6010E9459CBB60189E190E10E94BA
:1058700064D68F819885C2CF6F927F928F929F92CC
:10588000AF92BF92CF92DF92EF92FF920F931F934E
:10589000CF93DF9300D000D01F921F92CDB7DEB719
:1058A0007C01162F5A014901862F660F990B9C0126
:1058B0002F533D4F690186E0682E712C10160CF0B5
:1058C0003DC0AE014B5F5F4F64E47FE6C7010E94BD
:1058D0002DB67C018D819E81AF81B8850097A10591
:1058E000B10561F18B379105A105B10509F474C0CB
:1058F0008E379105A105B10509F46EC08A32910574
:10590000A105B10589F517FF12C087E69DE01E3F8E
:1059100011F082E69DE036E00302B00111240E94FE
:10592000142266E070E00F94F101061B8DC08FE633
:105930009DE068DC015009F051C000E0802F2896FE
:105940000FB6F894DEBF0FBECDBFDF91CF911F9190
:105950000F91FF90EF90DF90CF90BF90AF909F900E
:105960008F907F906F90089584329105A105B105C5
:10597000C9F48114910461F0E6E00E02B001112433
:10598000C4010E941422B3010F94F101061B96CFAB
:10599000A114B104E1F0F6E00F02B0011124C50139
:1059A0000DDFF1CF80349105A105B10581F40150DF
:1059B000F6018081082E000C990BAA0BBB0B898382
:1059C0009A83AB83BC83CE01019686D977CFCE0173
:1059D000059682D9015072CF17FD97CF81E04D8196
:1059E0005E816F8178854B3751056105710509F43A
:1059F00080E0810F8A30C4F001506AE00F94D0013A
:105A0000D92E082E000C990BC096092E000CAA0B5B
:105A1000BB0B89839A83AB83BC83CE0101965CD98F
:105A2000002309F48ACF8D2D082E000C990BC09607
:105A3000092E000CAA0BBB0B89839A83AB83BC8312
:105A4000CE01019649D90150002309F476CF86E0B2
:105A50000802B0011124C7010E94142266E070E020
:105A60000F94F101061B6ACF6FEF7FEFA7CE8F92E5
:105A70009F92AF92BF92CF92DF92EF92FF920F93DD
:105A80001F93CF93DF9300D01F92CDB7DEB74C01A9
:105A90006B010E9411B6A82EC6010E941FB6B12C40
:105AA00023E130E07901E81AF10815E2EA14FB0479
:105AB0000CF41FE1812F90E09C012E5F3F4F40913D
:105AC0004D104217130611F00CF03FC009972091BA
:105AD0004F1028171906CCF12091D4063091D50625
